{
	"src/Assignment.sol": {
		"BikeData": {
			"abi": [
				{
					"anonymous": false,
					"inputs": [
						{
							"indexed": false,
							"internalType": "string",
							"name": "name_of_bike",
							"type": "string"
						},
						{
							"indexed": false,
							"internalType": "uint256",
							"name": "price_of_bike",
							"type": "uint256"
						},
						{
							"indexed": false,
							"internalType": "bytes",
							"name": "source_of_image",
							"type": "bytes"
						},
						{
							"indexed": false,
							"internalType": "address",
							"name": "name_of_seller",
							"type": "address"
						}
					],
					"name": "ShowBikeInfo",
					"type": "event"
				},
				{
					"inputs": [
						{
							"internalType": "string",
							"name": "_BikeName",
							"type": "string"
						},
						{
							"internalType": "uint256",
							"name": "_price",
							"type": "uint256"
						}
					],
					"name": "addNewBike",
					"outputs": [],
					"stateMutability": "payable",
					"type": "function"
				},
				{
					"inputs": [
						{
							"internalType": "string",
							"name": "_BikeName",
							"type": "string"
						}
					],
					"name": "buyBike",
					"outputs": [],
					"stateMutability": "payable",
					"type": "function"
				},
				{
					"inputs": [
						{
							"internalType": "string",
							"name": "_BikeName",
							"type": "string"
						}
					],
					"name": "confirmOrRefundPurchase",
					"outputs": [],
					"stateMutability": "payable",
					"type": "function"
				},
				{
					"inputs": [
						{
							"internalType": "string",
							"name": "_BikeName",
							"type": "string"
						}
					],
					"name": "delBike",
					"outputs": [],
					"stateMutability": "nonpayable",
					"type": "function"
				},
				{
					"inputs": [
						{
							"internalType": "string",
							"name": "_BikeName",
							"type": "string"
						}
					],
					"name": "getBikePrice",
					"outputs": [
						{
							"internalType": "uint256",
							"name": "",
							"type": "uint256"
						}
					],
					"stateMutability": "view",
					"type": "function"
				},
				{
					"inputs": [
						{
							"internalType": "uint256",
							"name": "_time",
							"type": "uint256"
						}
					],
					"name": "ifTooLate",
					"outputs": [
						{
							"internalType": "bool",
							"name": "",
							"type": "bool"
						}
					],
					"stateMutability": "view",
					"type": "function"
				},
				{
					"inputs": [
						{
							"internalType": "string",
							"name": "_BikeName",
							"type": "string"
						}
					],
					"name": "refund",
					"outputs": [],
					"stateMutability": "payable",
					"type": "function"
				},
				{
					"inputs": [
						{
							"internalType": "string",
							"name": "_BikeName",
							"type": "string"
						}
					],
					"name": "searchBike",
					"outputs": [
						{
							"internalType": "uint256",
							"name": "",
							"type": "uint256"
						}
					],
					"stateMutability": "view",
					"type": "function"
				},
				{
					"inputs": [],
					"name": "showBalance",
					"outputs": [
						{
							"internalType": "uint256",
							"name": "",
							"type": "uint256"
						}
					],
					"stateMutability": "view",
					"type": "function"
				},
				{
					"inputs": [],
					"name": "showBike",
					"outputs": [],
					"stateMutability": "nonpayable",
					"type": "function"
				},
				{
					"inputs": [],
					"name": "zzzcontractKiller",
					"outputs": [],
					"stateMutability": "nonpayable",
					"type": "function"
				},
				{
					"stateMutability": "payable",
					"type": "receive"
				}
			],
			"devdoc": {
				"kind": "dev",
				"methods": {},
				"version": 1
			},
			"evm": {
				"assembly": "    /* \"src/Assignment.sol\":251:6824  contract BikeData is Ownable {\r... */\n  mstore(0x40, 0x80)\n  callvalue\n  dup1\n  iszero\n  tag_1\n  jumpi\n  0x00\n  dup1\n  revert\ntag_1:\n  pop\n    /* \"src/Assignment.sol\":130:140  msg.sender */\n  caller\n    /* \"src/Assignment.sol\":122:127  owner */\n  0x00\n  dup1\n    /* \"src/Assignment.sol\":122:140  owner = msg.sender */\n  0x0100\n  exp\n  dup2\n  sload\n  dup2\n  0xffffffffffffffffffffffffffffffffffffffff\n  mul\n  not\n  and\n  swap1\n  dup4\n  0xffffffffffffffffffffffffffffffffffffffff\n  and\n  mul\n  or\n  swap1\n  sstore\n  pop\n    /* \"src/Assignment.sol\":251:6824  contract BikeData is Ownable {\r... */\n  dataSize(sub_0)\n  dup1\n  dataOffset(sub_0)\n  0x00\n  codecopy\n  0x00\n  return\nstop\n\nsub_0: assembly {\n        /* \"src/Assignment.sol\":251:6824  contract BikeData is Ownable {\r... */\n      mstore(0x40, 0x80)\n      jumpi(tag_1, lt(calldatasize, 0x04))\n      shr(0xe0, calldataload(0x00))\n      dup1\n      0xa1e9ec1d\n      gt\n      tag_14\n      jumpi\n      dup1\n      0xa1e9ec1d\n      eq\n      tag_8\n      jumpi\n      dup1\n      0xaecd833a\n      eq\n      tag_9\n      jumpi\n      dup1\n      0xb7731f19\n      eq\n      tag_10\n      jumpi\n      dup1\n      0xd7403aab\n      eq\n      tag_11\n      jumpi\n      dup1\n      0xfe4f95df\n      eq\n      tag_12\n      jumpi\n      dup1\n      0xfe5f2e88\n      eq\n      tag_13\n      jumpi\n      jump(tag_2)\n    tag_14:\n      dup1\n      0x81b2d07b\n      eq\n      tag_3\n      jumpi\n      dup1\n      0x82ea1db8\n      eq\n      tag_4\n      jumpi\n      dup1\n      0x8ef39bb6\n      eq\n      tag_5\n      jumpi\n      dup1\n      0x8fc71381\n      eq\n      tag_6\n      jumpi\n      dup1\n      0x9ade37a0\n      eq\n      tag_7\n      jumpi\n      jump(tag_2)\n    tag_1:\n      jumpi(tag_2, calldatasize)\n      stop\n    tag_2:\n      0x00\n      dup1\n      revert\n        /* \"src/Assignment.sol\":6611:6716  function showBalance() public view Owned returns(uint256) {\r... */\n    tag_3:\n      callvalue\n      dup1\n      iszero\n      tag_17\n      jumpi\n      0x00\n      dup1\n      revert\n    tag_17:\n      pop\n      tag_18\n      tag_19\n      jump\t// in\n    tag_18:\n      mload(0x40)\n      tag_20\n      swap2\n      swap1\n      tag_21\n      jump\t// in\n    tag_20:\n      mload(0x40)\n      dup1\n      swap2\n      sub\n      swap1\n      return\n        /* \"src/Assignment.sol\":4471:5659  function confirmOrRefundPurchase(string memory _BikeName) public payable {\r... */\n    tag_4:\n      tag_22\n      0x04\n      dup1\n      calldatasize\n      sub\n      dup2\n      add\n      swap1\n      tag_23\n      swap2\n      swap1\n      tag_24\n      jump\t// in\n    tag_23:\n      tag_25\n      jump\t// in\n    tag_22:\n      stop\n        /* \"src/Assignment.sol\":1940:2772  function addNewBike(string memory _BikeName, uint256 _price/*, bytes memory _image*/) public payable {\r... */\n    tag_5:\n      tag_26\n      0x04\n      dup1\n      calldatasize\n      sub\n      dup2\n      add\n      swap1\n      tag_27\n      swap2\n      swap1\n      tag_28\n      jump\t// in\n    tag_27:\n      tag_29\n      jump\t// in\n    tag_26:\n      stop\n        /* \"src/Assignment.sol\":3443:4442  function buyBike(string memory _BikeName) public payable {\r... */\n    tag_6:\n      tag_30\n      0x04\n      dup1\n      calldatasize\n      sub\n      dup2\n      add\n      swap1\n      tag_31\n      swap2\n      swap1\n      tag_24\n      jump\t// in\n    tag_31:\n      tag_32\n      jump\t// in\n    tag_30:\n      stop\n        /* \"src/Assignment.sol\":1635:1904  function searchBike(string memory _BikeName) public view returns(uint) {\r... */\n    tag_7:\n      callvalue\n      dup1\n      iszero\n      tag_33\n      jumpi\n      0x00\n      dup1\n      revert\n    tag_33:\n      pop\n      tag_34\n      0x04\n      dup1\n      calldatasize\n      sub\n      dup2\n      add\n      swap1\n      tag_35\n      swap2\n      swap1\n      tag_24\n      jump\t// in\n    tag_35:\n      tag_36\n      jump\t// in\n    tag_34:\n      mload(0x40)\n      tag_37\n      swap2\n      swap1\n      tag_21\n      jump\t// in\n    tag_37:\n      mload(0x40)\n      dup1\n      swap2\n      sub\n      swap1\n      return\n        /* \"src/Assignment.sol\":6724:6821  function zzzcontractKiller() public Owned {\r... */\n    tag_8:\n      callvalue\n      dup1\n      iszero\n      tag_38\n      jumpi\n      0x00\n      dup1\n      revert\n    tag_38:\n      pop\n      tag_39\n      tag_40\n      jump\t// in\n    tag_39:\n      stop\n        /* \"src/Assignment.sol\":1398:1549  function ifTooLate(uint _time) public view returns(bool){\r... */\n    tag_9:\n      callvalue\n      dup1\n      iszero\n      tag_41\n      jumpi\n      0x00\n      dup1\n      revert\n    tag_41:\n      pop\n      tag_42\n      0x04\n      dup1\n      calldatasize\n      sub\n      dup2\n      add\n      swap1\n      tag_43\n      swap2\n      swap1\n      tag_44\n      jump\t// in\n    tag_43:\n      tag_45\n      jump\t// in\n    tag_42:\n      mload(0x40)\n      tag_46\n      swap2\n      swap1\n      tag_47\n      jump\t// in\n    tag_46:\n      mload(0x40)\n      dup1\n      swap2\n      sub\n      swap1\n      return\n        /* \"src/Assignment.sol\":2886:3411  function delBike(string memory _BikeName) public Owned {\r... */\n    tag_10:\n      callvalue\n      dup1\n      iszero\n      tag_48\n      jumpi\n      0x00\n      dup1\n      revert\n    tag_48:\n      pop\n      tag_49\n      0x04\n      dup1\n      calldatasize\n      sub\n      dup2\n      add\n      swap1\n      tag_50\n      swap2\n      swap1\n      tag_24\n      jump\t// in\n    tag_50:\n      tag_51\n      jump\t// in\n    tag_49:\n      stop\n        /* \"src/Assignment.sol\":6049:6180  function getBikePrice(string memory _BikeName) public view returns(uint256) {\r... */\n    tag_11:\n      callvalue\n      dup1\n      iszero\n      tag_52\n      jumpi\n      0x00\n      dup1\n      revert\n    tag_52:\n      pop\n      tag_53\n      0x04\n      dup1\n      calldatasize\n      sub\n      dup2\n      add\n      swap1\n      tag_54\n      swap2\n      swap1\n      tag_24\n      jump\t// in\n    tag_54:\n      tag_55\n      jump\t// in\n    tag_53:\n      mload(0x40)\n      tag_56\n      swap2\n      swap1\n      tag_21\n      jump\t// in\n    tag_56:\n      mload(0x40)\n      dup1\n      swap2\n      sub\n      swap1\n      return\n        /* \"src/Assignment.sol\":6236:6603  function showBike() public {\r... */\n    tag_12:\n      callvalue\n      dup1\n      iszero\n      tag_57\n      jumpi\n      0x00\n      dup1\n      revert\n    tag_57:\n      pop\n      tag_58\n      tag_59\n      jump\t// in\n    tag_58:\n      stop\n        /* \"src/Assignment.sol\":5685:5980  function refund(string memory _BikeName) public payable {\r... */\n    tag_13:\n      tag_60\n      0x04\n      dup1\n      calldatasize\n      sub\n      dup2\n      add\n      swap1\n      tag_61\n      swap2\n      swap1\n      tag_24\n      jump\t// in\n    tag_61:\n      tag_62\n      jump\t// in\n    tag_60:\n      stop\n        /* \"src/Assignment.sol\":6611:6716  function showBalance() public view Owned returns(uint256) {\r... */\n    tag_19:\n        /* \"src/Assignment.sol\":6660:6667  uint256 */\n      0x00\n        /* \"src/Assignment.sol\":186:191  owner */\n      dup1\n      0x00\n      swap1\n      sload\n      swap1\n      0x0100\n      exp\n      swap1\n      div\n      0xffffffffffffffffffffffffffffffffffffffff\n      and\n        /* \"src/Assignment.sol\":172:191  msg.sender == owner */\n      0xffffffffffffffffffffffffffffffffffffffff\n      and\n        /* \"src/Assignment.sol\":172:182  msg.sender */\n      caller\n        /* \"src/Assignment.sol\":172:191  msg.sender == owner */\n      0xffffffffffffffffffffffffffffffffffffffff\n      and\n      eq\n        /* \"src/Assignment.sol\":164:192  require(msg.sender == owner) */\n      tag_64\n      jumpi\n      0x00\n      dup1\n      revert\n    tag_64:\n        /* \"src/Assignment.sol\":6687:6708  address(this).balance */\n      selfbalance\n        /* \"src/Assignment.sol\":6680:6708  return address(this).balance */\n      swap1\n      pop\n        /* \"src/Assignment.sol\":6611:6716  function showBalance() public view Owned returns(uint256) {\r... */\n      swap1\n      jump\t// out\n        /* \"src/Assignment.sol\":4471:5659  function confirmOrRefundPurchase(string memory _BikeName) public payable {\r... */\n    tag_25:\n        /* \"src/Assignment.sol\":4649:4659  msg.sender */\n      caller\n        /* \"src/Assignment.sol\":4625:4659  BikeBuyer[_BikeName] == msg.sender */\n      0xffffffffffffffffffffffffffffffffffffffff\n      and\n        /* \"src/Assignment.sol\":4625:4634  BikeBuyer */\n      0x04\n        /* \"src/Assignment.sol\":4635:4644  _BikeName */\n      dup3\n        /* \"src/Assignment.sol\":4625:4645  BikeBuyer[_BikeName] */\n      mload(0x40)\n      tag_67\n      swap2\n      swap1\n      tag_68\n      jump\t// in\n    tag_67:\n      swap1\n      dup2\n      mstore\n      0x20\n      add\n      mload(0x40)\n      dup1\n      swap2\n      sub\n      swap1\n      keccak256\n      0x00\n      swap1\n      sload\n      swap1\n      0x0100\n      exp\n      swap1\n      div\n      0xffffffffffffffffffffffffffffffffffffffff\n      and\n        /* \"src/Assignment.sol\":4625:4659  BikeBuyer[_BikeName] == msg.sender */\n      0xffffffffffffffffffffffffffffffffffffffff\n      and\n      eq\n        /* \"src/Assignment.sol\":4617:4705  require(BikeBuyer[_BikeName] == msg.sender, \"This account hasn't purchased the product\") */\n      tag_69\n      jumpi\n      mload(0x40)\n      0x08c379a000000000000000000000000000000000000000000000000000000000\n      dup2\n      mstore\n      0x04\n      add\n      tag_70\n      swap1\n      tag_71\n      jump\t// in\n    tag_70:\n      mload(0x40)\n      dup1\n      swap2\n      sub\n      swap1\n      revert\n    tag_69:\n        /* \"src/Assignment.sol\":4721:4769  ifTooLate(purchasedTime[_BikeName] + 60 seconds) */\n      tag_72\n        /* \"src/Assignment.sol\":4758:4768  60 seconds */\n      0x3c\n        /* \"src/Assignment.sol\":4731:4744  purchasedTime */\n      0x03\n        /* \"src/Assignment.sol\":4745:4754  _BikeName */\n      dup4\n        /* \"src/Assignment.sol\":4731:4755  purchasedTime[_BikeName] */\n      mload(0x40)\n      tag_73\n      swap2\n      swap1\n      tag_68\n      jump\t// in\n    tag_73:\n      swap1\n      dup2\n      mstore\n      0x20\n      add\n      mload(0x40)\n      dup1\n      swap2\n      sub\n      swap1\n      keccak256\n      sload\n        /* \"src/Assignment.sol\":4731:4768  purchasedTime[_BikeName] + 60 seconds */\n      tag_74\n      swap2\n      swap1\n      tag_75\n      jump\t// in\n    tag_74:\n        /* \"src/Assignment.sol\":4721:4730  ifTooLate */\n      tag_45\n        /* \"src/Assignment.sol\":4721:4769  ifTooLate(purchasedTime[_BikeName] + 60 seconds) */\n      jump\t// in\n    tag_72:\n        /* \"src/Assignment.sol\":4716:5648  if (!ifTooLate(purchasedTime[_BikeName] + 60 seconds)) {//만약 3일이 안지났다면 구매 프로세스 진행(임시로 60초 정도로 설정)\r... */\n      tag_76\n      jumpi\n        /* \"src/Assignment.sol\":4880:4892  bool success */\n      0x00\n        /* \"src/Assignment.sol\":4905:4913  BikeInfo */\n      0x02\n        /* \"src/Assignment.sol\":4914:4923  _BikeName */\n      dup3\n        /* \"src/Assignment.sol\":4905:4924  BikeInfo[_BikeName] */\n      mload(0x40)\n      tag_77\n      swap2\n      swap1\n      tag_68\n      jump\t// in\n    tag_77:\n      swap1\n      dup2\n      mstore\n      0x20\n      add\n      mload(0x40)\n      dup1\n      swap2\n      sub\n      swap1\n      keccak256\n        /* \"src/Assignment.sol\":4905:4935  BikeInfo[_BikeName].BikeSeller */\n      0x02\n      add\n      0x00\n      swap1\n      sload\n      swap1\n      0x0100\n      exp\n      swap1\n      div\n      0xffffffffffffffffffffffffffffffffffffffff\n      and\n        /* \"src/Assignment.sol\":4897:4941  address(BikeInfo[_BikeName].BikeSeller).call */\n      0xffffffffffffffffffffffffffffffffffffffff\n      and\n        /* \"src/Assignment.sol\":4949:4957  BikeInfo */\n      0x02\n        /* \"src/Assignment.sol\":4958:4967  _BikeName */\n      dup4\n        /* \"src/Assignment.sol\":4949:4968  BikeInfo[_BikeName] */\n      mload(0x40)\n      tag_78\n      swap2\n      swap1\n      tag_68\n      jump\t// in\n    tag_78:\n      swap1\n      dup2\n      mstore\n      0x20\n      add\n      mload(0x40)\n      dup1\n      swap2\n      sub\n      swap1\n      keccak256\n        /* \"src/Assignment.sol\":4949:4978  BikeInfo[_BikeName].BikePrice */\n      0x00\n      add\n      sload\n        /* \"src/Assignment.sol\":4897:4983  address(BikeInfo[_BikeName].BikeSeller).call{value: BikeInfo[_BikeName].BikePrice}(\"\") */\n      mload(0x40)\n      tag_79\n      swap1\n      tag_80\n      jump\t// in\n    tag_79:\n      0x00\n      mload(0x40)\n      dup1\n      dup4\n      sub\n      dup2\n      dup6\n      dup8\n      gas\n      call\n      swap3\n      pop\n      pop\n      pop\n      returndatasize\n      dup1\n      0x00\n      dup2\n      eq\n      tag_83\n      jumpi\n      mload(0x40)\n      swap2\n      pop\n      and(add(returndatasize, 0x3f), not(0x1f))\n      dup3\n      add\n      0x40\n      mstore\n      returndatasize\n      dup3\n      mstore\n      returndatasize\n      0x00\n      0x20\n      dup5\n      add\n      returndatacopy\n      jump(tag_82)\n    tag_83:\n      0x60\n      swap2\n      pop\n    tag_82:\n      pop\n        /* \"src/Assignment.sol\":4879:4983  (bool success,) = address(BikeInfo[_BikeName].BikeSeller).call{value: BikeInfo[_BikeName].BikePrice}(\"\") */\n      pop\n      swap1\n      pop\n        /* \"src/Assignment.sol\":4999:5012  bool _success */\n      0x00\n        /* \"src/Assignment.sol\":5025:5030  owner */\n      dup1\n      0x00\n      swap1\n      sload\n      swap1\n      0x0100\n      exp\n      swap1\n      div\n      0xffffffffffffffffffffffffffffffffffffffff\n      and\n        /* \"src/Assignment.sol\":5017:5036  address(owner).call */\n      0xffffffffffffffffffffffffffffffffffffffff\n      and\n        /* \"src/Assignment.sol\":5076:5079  100 */\n      0x64\n        /* \"src/Assignment.sol\":5044:5052  BikeInfo */\n      0x02\n        /* \"src/Assignment.sol\":5053:5062  _BikeName */\n      dup6\n        /* \"src/Assignment.sol\":5044:5063  BikeInfo[_BikeName] */\n      mload(0x40)\n      tag_84\n      swap2\n      swap1\n      tag_68\n      jump\t// in\n    tag_84:\n      swap1\n      dup2\n      mstore\n      0x20\n      add\n      mload(0x40)\n      dup1\n      swap2\n      sub\n      swap1\n      keccak256\n        /* \"src/Assignment.sol\":5044:5073  BikeInfo[_BikeName].BikePrice */\n      0x00\n      add\n      sload\n        /* \"src/Assignment.sol\":5044:5079  BikeInfo[_BikeName].BikePrice / 100 */\n      tag_85\n      swap2\n      swap1\n      tag_86\n      jump\t// in\n    tag_85:\n        /* \"src/Assignment.sol\":5017:5084  address(owner).call{value: BikeInfo[_BikeName].BikePrice / 100}(\"\") */\n      mload(0x40)\n      tag_87\n      swap1\n      tag_80\n      jump\t// in\n    tag_87:\n      0x00\n      mload(0x40)\n      dup1\n      dup4\n      sub\n      dup2\n      dup6\n      dup8\n      gas\n      call\n      swap3\n      pop\n      pop\n      pop\n      returndatasize\n      dup1\n      0x00\n      dup2\n      eq\n      tag_90\n      jumpi\n      mload(0x40)\n      swap2\n      pop\n      and(add(returndatasize, 0x3f), not(0x1f))\n      dup3\n      add\n      0x40\n      mstore\n      returndatasize\n      dup3\n      mstore\n      returndatasize\n      0x00\n      0x20\n      dup5\n      add\n      returndatacopy\n      jump(tag_89)\n    tag_90:\n      0x60\n      swap2\n      pop\n    tag_89:\n      pop\n        /* \"src/Assignment.sol\":4998:5084  (bool _success,) = address(owner).call{value: BikeInfo[_BikeName].BikePrice / 100}(\"\") */\n      pop\n      swap1\n      pop\n        /* \"src/Assignment.sol\":5107:5114  success */\n      dup2\n        /* \"src/Assignment.sol\":5099:5131  require(success,\"Failed to pay\") */\n      tag_91\n      jumpi\n      mload(0x40)\n      0x08c379a000000000000000000000000000000000000000000000000000000000\n      dup2\n      mstore\n      0x04\n      add\n      tag_92\n      swap1\n      tag_93\n      jump\t// in\n    tag_92:\n      mload(0x40)\n      dup1\n      swap2\n      sub\n      swap1\n      revert\n    tag_91:\n        /* \"src/Assignment.sol\":5154:5162  _success */\n      dup1\n        /* \"src/Assignment.sol\":5146:5179  require(_success,\"Failed to pay\") */\n      tag_94\n      jumpi\n      mload(0x40)\n      0x08c379a000000000000000000000000000000000000000000000000000000000\n      dup2\n      mstore\n      0x04\n      add\n      tag_95\n      swap1\n      tag_93\n      jump\t// in\n    tag_95:\n      mload(0x40)\n      dup1\n      swap2\n      sub\n      swap1\n      revert\n    tag_94:\n        /* \"src/Assignment.sol\":5203:5211  BikeInfo */\n      0x02\n        /* \"src/Assignment.sol\":5212:5221  _BikeName */\n      dup4\n        /* \"src/Assignment.sol\":5203:5222  BikeInfo[_BikeName] */\n      mload(0x40)\n      tag_96\n      swap2\n      swap1\n      tag_68\n      jump\t// in\n    tag_96:\n      swap1\n      dup2\n      mstore\n      0x20\n      add\n      mload(0x40)\n      dup1\n      swap2\n      sub\n      swap1\n      keccak256\n      0x00\n        /* \"src/Assignment.sol\":5196:5222  delete BikeInfo[_BikeName] */\n      dup1\n      dup3\n      add\n      0x00\n      swap1\n      sstore\n      0x01\n      dup3\n      add\n      0x00\n      tag_97\n      swap2\n      swap1\n      tag_98\n      jump\t// in\n    tag_97:\n      0x02\n      dup3\n      add\n      exp(0x0100, 0x00)\n      dup2\n      sload\n      swap1\n      0xffffffffffffffffffffffffffffffffffffffff\n      mul\n      not\n      and\n      swap1\n      sstore\n      pop\n      pop\n        /* \"src/Assignment.sol\":5244:5253  BikeBuyer */\n      0x04\n        /* \"src/Assignment.sol\":5254:5263  _BikeName */\n      dup4\n        /* \"src/Assignment.sol\":5244:5264  BikeBuyer[_BikeName] */\n      mload(0x40)\n      tag_99\n      swap2\n      swap1\n      tag_68\n      jump\t// in\n    tag_99:\n      swap1\n      dup2\n      mstore\n      0x20\n      add\n      mload(0x40)\n      dup1\n      swap2\n      sub\n      swap1\n      keccak256\n      0x00\n        /* \"src/Assignment.sol\":5237:5264  delete BikeBuyer[_BikeName] */\n      0x0100\n      exp\n      dup2\n      sload\n      swap1\n      0xffffffffffffffffffffffffffffffffffffffff\n      mul\n      not\n      and\n      swap1\n      sstore\n        /* \"src/Assignment.sol\":5286:5299  purchasedTime */\n      0x03\n        /* \"src/Assignment.sol\":5300:5309  _BikeName */\n      dup4\n        /* \"src/Assignment.sol\":5286:5310  purchasedTime[_BikeName] */\n      mload(0x40)\n      tag_100\n      swap2\n      swap1\n      tag_68\n      jump\t// in\n    tag_100:\n      swap1\n      dup2\n      mstore\n      0x20\n      add\n      mload(0x40)\n      dup1\n      swap2\n      sub\n      swap1\n      keccak256\n        /* \"src/Assignment.sol\":5279:5310  delete purchasedTime[_BikeName] */\n      0x00\n      swap1\n      sstore\n        /* \"src/Assignment.sol\":4771:5322  {//만약 3일이 안지났다면 구매 프로세스 진행(임시로 60초 정도로 설정)\r... */\n      pop\n      pop\n        /* \"src/Assignment.sol\":4716:5648  if (!ifTooLate(purchasedTime[_BikeName] + 60 seconds)) {//만약 3일이 안지났다면 구매 프로세스 진행(임시로 60초 정도로 설정)\r... */\n      jump(tag_101)\n    tag_76:\n        /* \"src/Assignment.sol\":5442:5459  refund(_BikeName) */\n      tag_102\n        /* \"src/Assignment.sol\":5449:5458  _BikeName */\n      dup2\n        /* \"src/Assignment.sol\":5442:5448  refund */\n      tag_62\n        /* \"src/Assignment.sol\":5442:5459  refund(_BikeName) */\n      jump\t// in\n    tag_102:\n        /* \"src/Assignment.sol\":5474:5487  BikeNameArray */\n      0x01\n        /* \"src/Assignment.sol\":5493:5502  _BikeName */\n      dup2\n        /* \"src/Assignment.sol\":5474:5503  BikeNameArray.push(_BikeName) */\n      swap1\n      dup1\n      0x01\n      dup2\n      sload\n      add\n      dup1\n      dup3\n      sstore\n      dup1\n      swap2\n      pop\n      pop\n      0x01\n      swap1\n      sub\n      swap1\n      0x00\n      mstore\n      keccak256(0x00, 0x20)\n      add\n      0x00\n      swap1\n      swap2\n      swap1\n      swap2\n      swap1\n      swap2\n      pop\n      swap1\n      dup1\n      mload\n      swap1\n      0x20\n      add\n      swap1\n      tag_104\n      swap3\n      swap2\n      swap1\n      tag_105\n      jump\t// in\n    tag_104:\n      pop\n        /* \"src/Assignment.sol\":5570:5579  BikeBuyer */\n      0x04\n        /* \"src/Assignment.sol\":5580:5589  _BikeName */\n      dup2\n        /* \"src/Assignment.sol\":5570:5590  BikeBuyer[_BikeName] */\n      mload(0x40)\n      tag_106\n      swap2\n      swap1\n      tag_68\n      jump\t// in\n    tag_106:\n      swap1\n      dup2\n      mstore\n      0x20\n      add\n      mload(0x40)\n      dup1\n      swap2\n      sub\n      swap1\n      keccak256\n      0x00\n        /* \"src/Assignment.sol\":5563:5590  delete BikeBuyer[_BikeName] */\n      0x0100\n      exp\n      dup2\n      sload\n      swap1\n      0xffffffffffffffffffffffffffffffffffffffff\n      mul\n      not\n      and\n      swap1\n      sstore\n        /* \"src/Assignment.sol\":5612:5625  purchasedTime */\n      0x03\n        /* \"src/Assignment.sol\":5626:5635  _BikeName */\n      dup2\n        /* \"src/Assignment.sol\":5612:5636  purchasedTime[_BikeName] */\n      mload(0x40)\n      tag_107\n      swap2\n      swap1\n      tag_68\n      jump\t// in\n    tag_107:\n      swap1\n      dup2\n      mstore\n      0x20\n      add\n      mload(0x40)\n      dup1\n      swap2\n      sub\n      swap1\n      keccak256\n        /* \"src/Assignment.sol\":5605:5636  delete purchasedTime[_BikeName] */\n      0x00\n      swap1\n      sstore\n        /* \"src/Assignment.sol\":4716:5648  if (!ifTooLate(purchasedTime[_BikeName] + 60 seconds)) {//만약 3일이 안지났다면 구매 프로세스 진행(임시로 60초 정도로 설정)\r... */\n    tag_101:\n        /* \"src/Assignment.sol\":4471:5659  function confirmOrRefundPurchase(string memory _BikeName) public payable {\r... */\n      pop\n      jump\t// out\n        /* \"src/Assignment.sol\":1940:2772  function addNewBike(string memory _BikeName, uint256 _price/*, bytes memory _image*/) public payable {\r... */\n    tag_29:\n        /* \"src/Assignment.sol\":2052:2071  bytes memory _image */\n      0x60\n        /* \"src/Assignment.sol\":2115:2118  999 */\n      0x03e7\n        /* \"src/Assignment.sol\":2090:2111  searchBike(_BikeName) */\n      tag_109\n        /* \"src/Assignment.sol\":2101:2110  _BikeName */\n      dup5\n        /* \"src/Assignment.sol\":2090:2100  searchBike */\n      tag_36\n        /* \"src/Assignment.sol\":2090:2111  searchBike(_BikeName) */\n      jump\t// in\n    tag_109:\n        /* \"src/Assignment.sol\":2090:2118  searchBike(_BikeName) == 999 */\n      eq\n        /* \"src/Assignment.sol\":2082:2145  require(searchBike(_BikeName) == 999, \"The name is duplicated\") */\n      tag_110\n      jumpi\n      mload(0x40)\n      0x08c379a000000000000000000000000000000000000000000000000000000000\n      dup2\n      mstore\n      0x04\n      add\n      tag_111\n      swap1\n      tag_112\n      jump\t// in\n    tag_111:\n      mload(0x40)\n      dup1\n      swap2\n      sub\n      swap1\n      revert\n    tag_110:\n        /* \"src/Assignment.sol\":2180:2189  msg.value */\n      callvalue\n        /* \"src/Assignment.sol\":2173:2176  100 */\n      0x64\n        /* \"src/Assignment.sol\":2164:2170  _price */\n      dup4\n        /* \"src/Assignment.sol\":2164:2176  _price / 100 */\n      tag_113\n      swap2\n      swap1\n      tag_86\n      jump\t// in\n    tag_113:\n        /* \"src/Assignment.sol\":2164:2189  _price / 100 <= msg.value */\n      gt\n      iszero\n        /* \"src/Assignment.sol\":2156:2207  require(_price / 100 <= msg.value, \"Check the fee\") */\n      tag_114\n      jumpi\n      mload(0x40)\n      0x08c379a000000000000000000000000000000000000000000000000000000000\n      dup2\n      mstore\n      0x04\n      add\n      tag_115\n      swap1\n      tag_116\n      jump\t// in\n    tag_115:\n      mload(0x40)\n      dup1\n      swap2\n      sub\n      swap1\n      revert\n    tag_114:\n        /* \"src/Assignment.sol\":2220:2233  BikeNameArray */\n      0x01\n        /* \"src/Assignment.sol\":2239:2248  _BikeName */\n      dup4\n        /* \"src/Assignment.sol\":2220:2249  BikeNameArray.push(_BikeName) */\n      swap1\n      dup1\n      0x01\n      dup2\n      sload\n      add\n      dup1\n      dup3\n      sstore\n      dup1\n      swap2\n      pop\n      pop\n      0x01\n      swap1\n      sub\n      swap1\n      0x00\n      mstore\n      keccak256(0x00, 0x20)\n      add\n      0x00\n      swap1\n      swap2\n      swap1\n      swap2\n      swap1\n      swap2\n      pop\n      swap1\n      dup1\n      mload\n      swap1\n      0x20\n      add\n      swap1\n      tag_118\n      swap3\n      swap2\n      swap1\n      tag_105\n      jump\t// in\n    tag_118:\n      pop\n        /* \"src/Assignment.sol\":2261:2273  bool success */\n      0x00\n        /* \"src/Assignment.sol\":2286:2290  this */\n      address\n        /* \"src/Assignment.sol\":2278:2296  address(this).call */\n      0xffffffffffffffffffffffffffffffffffffffff\n      and\n        /* \"src/Assignment.sol\":2304:2313  msg.value */\n      callvalue\n        /* \"src/Assignment.sol\":2278:2318  address(this).call{value: msg.value}(\"\") */\n      mload(0x40)\n      tag_119\n      swap1\n      tag_80\n      jump\t// in\n    tag_119:\n      0x00\n      mload(0x40)\n      dup1\n      dup4\n      sub\n      dup2\n      dup6\n      dup8\n      gas\n      call\n      swap3\n      pop\n      pop\n      pop\n      returndatasize\n      dup1\n      0x00\n      dup2\n      eq\n      tag_122\n      jumpi\n      mload(0x40)\n      swap2\n      pop\n      and(add(returndatasize, 0x3f), not(0x1f))\n      dup3\n      add\n      0x40\n      mstore\n      returndatasize\n      dup3\n      mstore\n      returndatasize\n      0x00\n      0x20\n      dup5\n      add\n      returndatacopy\n      jump(tag_121)\n    tag_122:\n      0x60\n      swap2\n      pop\n    tag_121:\n      pop\n        /* \"src/Assignment.sol\":2260:2318  (bool success,) = address(this).call{value: msg.value}(\"\") */\n      pop\n      swap1\n      pop\n        /* \"src/Assignment.sol\":2337:2344  success */\n      dup1\n        /* \"src/Assignment.sol\":2329:2361  require(success,\"Failed to pay\") */\n      tag_123\n      jumpi\n      mload(0x40)\n      0x08c379a000000000000000000000000000000000000000000000000000000000\n      dup2\n      mstore\n      0x04\n      add\n      tag_124\n      swap1\n      tag_93\n      jump\t// in\n    tag_124:\n      mload(0x40)\n      dup1\n      swap2\n      sub\n      swap1\n      revert\n    tag_123:\n        /* \"src/Assignment.sol\":2459:2468  msg.value */\n      callvalue\n        /* \"src/Assignment.sol\":2453:2456  100 */\n      0x64\n        /* \"src/Assignment.sol\":2444:2450  _price */\n      dup5\n        /* \"src/Assignment.sol\":2444:2456  _price / 100 */\n      tag_125\n      swap2\n      swap1\n      tag_86\n      jump\t// in\n    tag_125:\n        /* \"src/Assignment.sol\":2444:2468  _price / 100 < msg.value */\n      lt\n        /* \"src/Assignment.sol\":2441:2624  if(_price / 100 < msg.value){\r... */\n      iszero\n      tag_126\n      jumpi\n        /* \"src/Assignment.sol\":2485:2498  bool _success */\n      0x00\n        /* \"src/Assignment.sol\":2503:2513  msg.sender */\n      caller\n        /* \"src/Assignment.sol\":2503:2518  msg.sender.call */\n      0xffffffffffffffffffffffffffffffffffffffff\n      and\n        /* \"src/Assignment.sol\":2546:2549  100 */\n      0x64\n        /* \"src/Assignment.sol\":2537:2543  _price */\n      dup6\n        /* \"src/Assignment.sol\":2537:2549  _price / 100 */\n      tag_127\n      swap2\n      swap1\n      tag_86\n      jump\t// in\n    tag_127:\n        /* \"src/Assignment.sol\":2525:2534  msg.value */\n      callvalue\n        /* \"src/Assignment.sol\":2525:2549  msg.value - _price / 100 */\n      tag_128\n      swap2\n      swap1\n      tag_129\n      jump\t// in\n    tag_128:\n        /* \"src/Assignment.sol\":2503:2554  msg.sender.call{value:msg.value - _price / 100}(\"\") */\n      mload(0x40)\n      tag_130\n      swap1\n      tag_80\n      jump\t// in\n    tag_130:\n      0x00\n      mload(0x40)\n      dup1\n      dup4\n      sub\n      dup2\n      dup6\n      dup8\n      gas\n      call\n      swap3\n      pop\n      pop\n      pop\n      returndatasize\n      dup1\n      0x00\n      dup2\n      eq\n      tag_133\n      jumpi\n      mload(0x40)\n      swap2\n      pop\n      and(add(returndatasize, 0x3f), not(0x1f))\n      dup3\n      add\n      0x40\n      mstore\n      returndatasize\n      dup3\n      mstore\n      returndatasize\n      0x00\n      0x20\n      dup5\n      add\n      returndatacopy\n      jump(tag_132)\n    tag_133:\n      0x60\n      swap2\n      pop\n    tag_132:\n      pop\n        /* \"src/Assignment.sol\":2484:2554  (bool _success,) = msg.sender.call{value:msg.value - _price / 100}(\"\") */\n      pop\n      swap1\n      pop\n        /* \"src/Assignment.sol\":2577:2585  _success */\n      dup1\n        /* \"src/Assignment.sol\":2569:2612  require(_success,\"Failed to return change\") */\n      tag_134\n      jumpi\n      mload(0x40)\n      0x08c379a000000000000000000000000000000000000000000000000000000000\n      dup2\n      mstore\n      0x04\n      add\n      tag_135\n      swap1\n      tag_136\n      jump\t// in\n    tag_135:\n      mload(0x40)\n      dup1\n      swap2\n      sub\n      swap1\n      revert\n    tag_134:\n        /* \"src/Assignment.sol\":2469:2624  {\r... */\n      pop\n        /* \"src/Assignment.sol\":2441:2624  if(_price / 100 < msg.value){\r... */\n    tag_126:\n        /* \"src/Assignment.sol\":2681:2719  BikeStruct(_price, _image, msg.sender) */\n      mload(0x40)\n      dup1\n      0x60\n      add\n      0x40\n      mstore\n      dup1\n        /* \"src/Assignment.sol\":2692:2698  _price */\n      dup5\n        /* \"src/Assignment.sol\":2681:2719  BikeStruct(_price, _image, msg.sender) */\n      dup2\n      mstore\n      0x20\n      add\n        /* \"src/Assignment.sol\":2700:2706  _image */\n      dup4\n        /* \"src/Assignment.sol\":2681:2719  BikeStruct(_price, _image, msg.sender) */\n      dup2\n      mstore\n      0x20\n      add\n        /* \"src/Assignment.sol\":2708:2718  msg.sender */\n      caller\n        /* \"src/Assignment.sol\":2681:2719  BikeStruct(_price, _image, msg.sender) */\n      0xffffffffffffffffffffffffffffffffffffffff\n      and\n      dup2\n      mstore\n      pop\n        /* \"src/Assignment.sol\":2659:2667  BikeInfo */\n      0x02\n        /* \"src/Assignment.sol\":2668:2677  _BikeName */\n      dup6\n        /* \"src/Assignment.sol\":2659:2678  BikeInfo[_BikeName] */\n      mload(0x40)\n      tag_137\n      swap2\n      swap1\n      tag_68\n      jump\t// in\n    tag_137:\n      swap1\n      dup2\n      mstore\n      0x20\n      add\n      mload(0x40)\n      dup1\n      swap2\n      sub\n      swap1\n      keccak256\n        /* \"src/Assignment.sol\":2659:2719  BikeInfo[_BikeName] = BikeStruct(_price, _image, msg.sender) */\n      0x00\n      dup3\n      add\n      mload\n      dup2\n      0x00\n      add\n      sstore\n      0x20\n      dup3\n      add\n      mload\n      dup2\n      0x01\n      add\n      swap1\n      dup1\n      mload\n      swap1\n      0x20\n      add\n      swap1\n      tag_138\n      swap3\n      swap2\n      swap1\n      tag_139\n      jump\t// in\n    tag_138:\n      pop\n      0x40\n      dup3\n      add\n      mload\n      dup2\n      0x02\n      add\n      exp(0x0100, 0x00)\n      dup2\n      sload\n      dup2\n      0xffffffffffffffffffffffffffffffffffffffff\n      mul\n      not\n      and\n      swap1\n      dup4\n      0xffffffffffffffffffffffffffffffffffffffff\n      and\n      mul\n      or\n      swap1\n      sstore\n      pop\n      swap1\n      pop\n      pop\n        /* \"src/Assignment.sol\":2041:2772  {\r... */\n      pop\n      pop\n        /* \"src/Assignment.sol\":1940:2772  function addNewBike(string memory _BikeName, uint256 _price/*, bytes memory _image*/) public payable {\r... */\n      pop\n      pop\n      jump\t// out\n        /* \"src/Assignment.sol\":3443:4442  function buyBike(string memory _BikeName) public payable {\r... */\n    tag_32:\n        /* \"src/Assignment.sol\":3543:3546  999 */\n      0x03e7\n        /* \"src/Assignment.sol\":3519:3540  searchBike(_BikeName) */\n      tag_141\n        /* \"src/Assignment.sol\":3530:3539  _BikeName */\n      dup3\n        /* \"src/Assignment.sol\":3519:3529  searchBike */\n      tag_36\n        /* \"src/Assignment.sol\":3519:3540  searchBike(_BikeName) */\n      jump\t// in\n    tag_141:\n        /* \"src/Assignment.sol\":3519:3546  searchBike(_BikeName) < 999 */\n      lt\n        /* \"src/Assignment.sol\":3511:3565  require(searchBike(_BikeName) < 999, \"Check the name\") */\n      tag_142\n      jumpi\n      mload(0x40)\n      0x08c379a000000000000000000000000000000000000000000000000000000000\n      dup2\n      mstore\n      0x04\n      add\n      tag_143\n      swap1\n      tag_144\n      jump\t// in\n    tag_143:\n      mload(0x40)\n      dup1\n      swap2\n      sub\n      swap1\n      revert\n    tag_142:\n        /* \"src/Assignment.sol\":3611:3620  msg.value */\n      callvalue\n        /* \"src/Assignment.sol\":3584:3607  getBikePrice(_BikeName) */\n      tag_145\n        /* \"src/Assignment.sol\":3597:3606  _BikeName */\n      dup3\n        /* \"src/Assignment.sol\":3584:3596  getBikePrice */\n      tag_55\n        /* \"src/Assignment.sol\":3584:3607  getBikePrice(_BikeName) */\n      jump\t// in\n    tag_145:\n        /* \"src/Assignment.sol\":3584:3620  getBikePrice(_BikeName) <= msg.value */\n      gt\n      iszero\n        /* \"src/Assignment.sol\":3576:3640  require(getBikePrice(_BikeName) <= msg.value, \"Check the price\") */\n      tag_146\n      jumpi\n      mload(0x40)\n      0x08c379a000000000000000000000000000000000000000000000000000000000\n      dup2\n      mstore\n      0x04\n      add\n      tag_147\n      swap1\n      tag_148\n      jump\t// in\n    tag_147:\n      mload(0x40)\n      dup1\n      swap2\n      sub\n      swap1\n      revert\n    tag_146:\n        /* \"src/Assignment.sol\":3653:3670  uint creationTime */\n      0x00\n        /* \"src/Assignment.sol\":3673:3688  block.timestamp */\n      timestamp\n        /* \"src/Assignment.sol\":3653:3688  uint creationTime = block.timestamp */\n      swap1\n      pop\n        /* \"src/Assignment.sol\":3724:3734  msg.sender */\n      caller\n        /* \"src/Assignment.sol\":3701:3710  BikeBuyer */\n      0x04\n        /* \"src/Assignment.sol\":3711:3720  _BikeName */\n      dup4\n        /* \"src/Assignment.sol\":3701:3721  BikeBuyer[_BikeName] */\n      mload(0x40)\n      tag_149\n      swap2\n      swap1\n      tag_68\n      jump\t// in\n    tag_149:\n      swap1\n      dup2\n      mstore\n      0x20\n      add\n      mload(0x40)\n      dup1\n      swap2\n      sub\n      swap1\n      keccak256\n      0x00\n        /* \"src/Assignment.sol\":3701:3734  BikeBuyer[_BikeName] = msg.sender */\n      0x0100\n      exp\n      dup2\n      sload\n      dup2\n      0xffffffffffffffffffffffffffffffffffffffff\n      mul\n      not\n      and\n      swap1\n      dup4\n      0xffffffffffffffffffffffffffffffffffffffff\n      and\n      mul\n      or\n      swap1\n      sstore\n      pop\n        /* \"src/Assignment.sol\":3772:3784  creationTime */\n      dup1\n        /* \"src/Assignment.sol\":3745:3758  purchasedTime */\n      0x03\n        /* \"src/Assignment.sol\":3759:3768  _BikeName */\n      dup4\n        /* \"src/Assignment.sol\":3745:3769  purchasedTime[_BikeName] */\n      mload(0x40)\n      tag_150\n      swap2\n      swap1\n      tag_68\n      jump\t// in\n    tag_150:\n      swap1\n      dup2\n      mstore\n      0x20\n      add\n      mload(0x40)\n      dup1\n      swap2\n      sub\n      swap1\n      keccak256\n        /* \"src/Assignment.sol\":3745:3784  purchasedTime[_BikeName] = creationTime */\n      dup2\n      swap1\n      sstore\n      pop\n        /* \"src/Assignment.sol\":3837:3850  BikeNameArray */\n      0x01\n        /* \"src/Assignment.sol\":3874:3875  1 */\n      dup1\n        /* \"src/Assignment.sol\":3851:3864  BikeNameArray */\n      dup1\n        /* \"src/Assignment.sol\":3851:3871  BikeNameArray.length */\n      dup1\n      sload\n      swap1\n      pop\n        /* \"src/Assignment.sol\":3851:3875  BikeNameArray.length - 1 */\n      tag_151\n      swap2\n      swap1\n      tag_129\n      jump\t// in\n    tag_151:\n        /* \"src/Assignment.sol\":3837:3876  BikeNameArray[BikeNameArray.length - 1] */\n      dup2\n      sload\n      dup2\n      lt\n      tag_152\n      jumpi\n      tag_153\n      tag_154\n      jump\t// in\n    tag_153:\n    tag_152:\n      swap1\n      0x00\n      mstore\n      keccak256(0x00, 0x20)\n      add\n        /* \"src/Assignment.sol\":3798:3811  BikeNameArray */\n      0x01\n        /* \"src/Assignment.sol\":3812:3833  searchBike(_BikeName) */\n      tag_156\n        /* \"src/Assignment.sol\":3823:3832  _BikeName */\n      dup5\n        /* \"src/Assignment.sol\":3812:3822  searchBike */\n      tag_36\n        /* \"src/Assignment.sol\":3812:3833  searchBike(_BikeName) */\n      jump\t// in\n    tag_156:\n        /* \"src/Assignment.sol\":3798:3834  BikeNameArray[searchBike(_BikeName)] */\n      dup2\n      sload\n      dup2\n      lt\n      tag_157\n      jumpi\n      tag_158\n      tag_154\n      jump\t// in\n    tag_158:\n    tag_157:\n      swap1\n      0x00\n      mstore\n      keccak256(0x00, 0x20)\n      add\n        /* \"src/Assignment.sol\":3798:3876  BikeNameArray[searchBike(_BikeName)] = BikeNameArray[BikeNameArray.length - 1] */\n      swap1\n      dup1\n      sload\n      tag_160\n      swap1\n      tag_161\n      jump\t// in\n    tag_160:\n      tag_162\n      swap3\n      swap2\n      swap1\n      tag_163\n      jump\t// in\n    tag_162:\n      pop\n        /* \"src/Assignment.sol\":3887:3900  BikeNameArray */\n      0x01\n        /* \"src/Assignment.sol\":3887:3906  BikeNameArray.pop() */\n      dup1\n      sload\n      dup1\n      tag_164\n      jumpi\n      tag_165\n      tag_166\n      jump\t// in\n    tag_165:\n    tag_164:\n      0x01\n      swap1\n      sub\n      dup2\n      dup2\n      swap1\n      0x00\n      mstore\n      keccak256(0x00, 0x20)\n      add\n      0x00\n      tag_168\n      swap2\n      swap1\n      tag_169\n      jump\t// in\n    tag_168:\n      swap1\n      sstore\n        /* \"src/Assignment.sol\":3920:3933  bool _success */\n      0x00\n        /* \"src/Assignment.sol\":3946:3950  this */\n      address\n        /* \"src/Assignment.sol\":3938:3956  address(this).call */\n      0xffffffffffffffffffffffffffffffffffffffff\n      and\n        /* \"src/Assignment.sol\":3963:3972  msg.value */\n      callvalue\n        /* \"src/Assignment.sol\":3938:3977  address(this).call{value:msg.value}(\"\") */\n      mload(0x40)\n      tag_170\n      swap1\n      tag_80\n      jump\t// in\n    tag_170:\n      0x00\n      mload(0x40)\n      dup1\n      dup4\n      sub\n      dup2\n      dup6\n      dup8\n      gas\n      call\n      swap3\n      pop\n      pop\n      pop\n      returndatasize\n      dup1\n      0x00\n      dup2\n      eq\n      tag_173\n      jumpi\n      mload(0x40)\n      swap2\n      pop\n      and(add(returndatasize, 0x3f), not(0x1f))\n      dup3\n      add\n      0x40\n      mstore\n      returndatasize\n      dup3\n      mstore\n      returndatasize\n      0x00\n      0x20\n      dup5\n      add\n      returndatacopy\n      jump(tag_172)\n    tag_173:\n      0x60\n      swap2\n      pop\n    tag_172:\n      pop\n        /* \"src/Assignment.sol\":3919:3977  (bool _success,) = address(this).call{value:msg.value}(\"\") */\n      pop\n      swap1\n      pop\n        /* \"src/Assignment.sol\":3989:4003  bool __success */\n      0x00\n        /* \"src/Assignment.sol\":4016:4020  this */\n      address\n        /* \"src/Assignment.sol\":4008:4026  address(this).call */\n      0xffffffffffffffffffffffffffffffffffffffff\n      and\n        /* \"src/Assignment.sol\":4065:4068  100 */\n      0x64\n        /* \"src/Assignment.sol\":4033:4041  BikeInfo */\n      0x02\n        /* \"src/Assignment.sol\":4042:4051  _BikeName */\n      dup7\n        /* \"src/Assignment.sol\":4033:4052  BikeInfo[_BikeName] */\n      mload(0x40)\n      tag_174\n      swap2\n      swap1\n      tag_68\n      jump\t// in\n    tag_174:\n      swap1\n      dup2\n      mstore\n      0x20\n      add\n      mload(0x40)\n      dup1\n      swap2\n      sub\n      swap1\n      keccak256\n        /* \"src/Assignment.sol\":4033:4062  BikeInfo[_BikeName].BikePrice */\n      0x00\n      add\n      sload\n        /* \"src/Assignment.sol\":4033:4068  BikeInfo[_BikeName].BikePrice / 100 */\n      tag_175\n      swap2\n      swap1\n      tag_86\n      jump\t// in\n    tag_175:\n        /* \"src/Assignment.sol\":4008:4073  address(this).call{value:BikeInfo[_BikeName].BikePrice / 100}(\"\") */\n      mload(0x40)\n      tag_176\n      swap1\n      tag_80\n      jump\t// in\n    tag_176:\n      0x00\n      mload(0x40)\n      dup1\n      dup4\n      sub\n      dup2\n      dup6\n      dup8\n      gas\n      call\n      swap3\n      pop\n      pop\n      pop\n      returndatasize\n      dup1\n      0x00\n      dup2\n      eq\n      tag_179\n      jumpi\n      mload(0x40)\n      swap2\n      pop\n      and(add(returndatasize, 0x3f), not(0x1f))\n      dup3\n      add\n      0x40\n      mstore\n      returndatasize\n      dup3\n      mstore\n      returndatasize\n      0x00\n      0x20\n      dup5\n      add\n      returndatacopy\n      jump(tag_178)\n    tag_179:\n      0x60\n      swap2\n      pop\n    tag_178:\n      pop\n        /* \"src/Assignment.sol\":3988:4073  (bool __success,) = address(this).call{value:BikeInfo[_BikeName].BikePrice / 100}(\"\") */\n      pop\n      swap1\n      pop\n        /* \"src/Assignment.sol\":4092:4100  _success */\n      dup2\n        /* \"src/Assignment.sol\":4084:4117  require(_success,\"Failed to pay\") */\n      tag_180\n      jumpi\n      mload(0x40)\n      0x08c379a000000000000000000000000000000000000000000000000000000000\n      dup2\n      mstore\n      0x04\n      add\n      tag_181\n      swap1\n      tag_93\n      jump\t// in\n    tag_181:\n      mload(0x40)\n      dup1\n      swap2\n      sub\n      swap1\n      revert\n    tag_180:\n        /* \"src/Assignment.sol\":4136:4145  __success */\n      dup1\n        /* \"src/Assignment.sol\":4128:4162  require(__success,\"Failed to pay\") */\n      tag_182\n      jumpi\n      mload(0x40)\n      0x08c379a000000000000000000000000000000000000000000000000000000000\n      dup2\n      mstore\n      0x04\n      add\n      tag_183\n      swap1\n      tag_93\n      jump\t// in\n    tag_183:\n      mload(0x40)\n      dup1\n      swap2\n      sub\n      swap1\n      revert\n    tag_182:\n        /* \"src/Assignment.sol\":4261:4270  msg.value */\n      callvalue\n        /* \"src/Assignment.sol\":4235:4258  getBikePrice(_BikeName) */\n      tag_184\n        /* \"src/Assignment.sol\":4248:4257  _BikeName */\n      dup6\n        /* \"src/Assignment.sol\":4235:4247  getBikePrice */\n      tag_55\n        /* \"src/Assignment.sol\":4235:4258  getBikePrice(_BikeName) */\n      jump\t// in\n    tag_184:\n        /* \"src/Assignment.sol\":4235:4270  getBikePrice(_BikeName) < msg.value */\n      lt\n        /* \"src/Assignment.sol\":4232:4435  if(getBikePrice(_BikeName) < msg.value){\r... */\n      iszero\n      tag_185\n      jumpi\n        /* \"src/Assignment.sol\":4287:4299  bool success */\n      0x00\n        /* \"src/Assignment.sol\":4304:4314  msg.sender */\n      caller\n        /* \"src/Assignment.sol\":4304:4319  msg.sender.call */\n      0xffffffffffffffffffffffffffffffffffffffff\n      and\n        /* \"src/Assignment.sol\":4338:4361  getBikePrice(_BikeName) */\n      tag_186\n        /* \"src/Assignment.sol\":4351:4360  _BikeName */\n      dup7\n        /* \"src/Assignment.sol\":4338:4350  getBikePrice */\n      tag_55\n        /* \"src/Assignment.sol\":4338:4361  getBikePrice(_BikeName) */\n      jump\t// in\n    tag_186:\n        /* \"src/Assignment.sol\":4326:4335  msg.value */\n      callvalue\n        /* \"src/Assignment.sol\":4326:4361  msg.value - getBikePrice(_BikeName) */\n      tag_187\n      swap2\n      swap1\n      tag_129\n      jump\t// in\n    tag_187:\n        /* \"src/Assignment.sol\":4304:4366  msg.sender.call{value:msg.value - getBikePrice(_BikeName)}(\"\") */\n      mload(0x40)\n      tag_188\n      swap1\n      tag_80\n      jump\t// in\n    tag_188:\n      0x00\n      mload(0x40)\n      dup1\n      dup4\n      sub\n      dup2\n      dup6\n      dup8\n      gas\n      call\n      swap3\n      pop\n      pop\n      pop\n      returndatasize\n      dup1\n      0x00\n      dup2\n      eq\n      tag_191\n      jumpi\n      mload(0x40)\n      swap2\n      pop\n      and(add(returndatasize, 0x3f), not(0x1f))\n      dup3\n      add\n      0x40\n      mstore\n      returndatasize\n      dup3\n      mstore\n      returndatasize\n      0x00\n      0x20\n      dup5\n      add\n      returndatacopy\n      jump(tag_190)\n    tag_191:\n      0x60\n      swap2\n      pop\n    tag_190:\n      pop\n        /* \"src/Assignment.sol\":4286:4366  (bool success,) = msg.sender.call{value:msg.value - getBikePrice(_BikeName)}(\"\") */\n      pop\n      swap1\n      pop\n        /* \"src/Assignment.sol\":4389:4396  success */\n      dup1\n        /* \"src/Assignment.sol\":4381:4423  require(success,\"Failed to return change\") */\n      tag_192\n      jumpi\n      mload(0x40)\n      0x08c379a000000000000000000000000000000000000000000000000000000000\n      dup2\n      mstore\n      0x04\n      add\n      tag_193\n      swap1\n      tag_136\n      jump\t// in\n    tag_193:\n      mload(0x40)\n      dup1\n      swap2\n      sub\n      swap1\n      revert\n    tag_192:\n        /* \"src/Assignment.sol\":4271:4435  {\r... */\n      pop\n        /* \"src/Assignment.sol\":4232:4435  if(getBikePrice(_BikeName) < msg.value){\r... */\n    tag_185:\n        /* \"src/Assignment.sol\":3500:4442  {\r... */\n      pop\n      pop\n      pop\n        /* \"src/Assignment.sol\":3443:4442  function buyBike(string memory _BikeName) public payable {\r... */\n      pop\n      jump\t// out\n        /* \"src/Assignment.sol\":1635:1904  function searchBike(string memory _BikeName) public view returns(uint) {\r... */\n    tag_36:\n        /* \"src/Assignment.sol\":1700:1704  uint */\n      0x00\n        /* \"src/Assignment.sol\":1721:1730  uint256 i */\n      dup1\n        /* \"src/Assignment.sol\":1733:1734  0 */\n      0x00\n        /* \"src/Assignment.sol\":1721:1734  uint256 i = 0 */\n      swap1\n      pop\n        /* \"src/Assignment.sol\":1717:1875  for(uint256 i = 0; i < BikeNameArray.length; i++)\r... */\n    tag_195:\n        /* \"src/Assignment.sol\":1740:1753  BikeNameArray */\n      0x01\n        /* \"src/Assignment.sol\":1740:1760  BikeNameArray.length */\n      dup1\n      sload\n      swap1\n      pop\n        /* \"src/Assignment.sol\":1736:1737  i */\n      dup2\n        /* \"src/Assignment.sol\":1736:1760  i < BikeNameArray.length */\n      lt\n        /* \"src/Assignment.sol\":1717:1875  for(uint256 i = 0; i < BikeNameArray.length; i++)\r... */\n      iszero\n      tag_196\n      jumpi\n        /* \"src/Assignment.sol\":1837:1846  _BikeName */\n      dup3\n        /* \"src/Assignment.sol\":1821:1848  keccak256(bytes(_BikeName)) */\n      dup1\n      mload\n      swap1\n      0x20\n      add\n      keccak256\n        /* \"src/Assignment.sol\":1799:1812  BikeNameArray */\n      0x01\n        /* \"src/Assignment.sol\":1813:1814  i */\n      dup3\n        /* \"src/Assignment.sol\":1799:1815  BikeNameArray[i] */\n      dup2\n      sload\n      dup2\n      lt\n      tag_198\n      jumpi\n      tag_199\n      tag_154\n      jump\t// in\n    tag_199:\n    tag_198:\n      swap1\n      0x00\n      mstore\n      keccak256(0x00, 0x20)\n      add\n        /* \"src/Assignment.sol\":1783:1817  keccak256(bytes(BikeNameArray[i])) */\n      mload(0x40)\n      tag_201\n      swap2\n      swap1\n      tag_202\n      jump\t// in\n    tag_201:\n      mload(0x40)\n      dup1\n      swap2\n      sub\n      swap1\n      keccak256\n        /* \"src/Assignment.sol\":1783:1848  keccak256(bytes(BikeNameArray[i])) == keccak256(bytes(_BikeName)) */\n      eq\n        /* \"src/Assignment.sol\":1780:1875  if(keccak256(bytes(BikeNameArray[i])) == keccak256(bytes(_BikeName)))\r... */\n      iszero\n      tag_203\n      jumpi\n        /* \"src/Assignment.sol\":1874:1875  i */\n      dup1\n        /* \"src/Assignment.sol\":1867:1875  return i */\n      swap2\n      pop\n      pop\n      jump(tag_194)\n        /* \"src/Assignment.sol\":1780:1875  if(keccak256(bytes(BikeNameArray[i])) == keccak256(bytes(_BikeName)))\r... */\n    tag_203:\n        /* \"src/Assignment.sol\":1762:1765  i++ */\n      dup1\n      dup1\n      tag_204\n      swap1\n      tag_205\n      jump\t// in\n    tag_204:\n      swap2\n      pop\n      pop\n        /* \"src/Assignment.sol\":1717:1875  for(uint256 i = 0; i < BikeNameArray.length; i++)\r... */\n      jump(tag_195)\n    tag_196:\n      pop\n        /* \"src/Assignment.sol\":1893:1896  999 */\n      0x03e7\n        /* \"src/Assignment.sol\":1886:1896  return 999 */\n      swap1\n      pop\n        /* \"src/Assignment.sol\":1635:1904  function searchBike(string memory _BikeName) public view returns(uint) {\r... */\n    tag_194:\n      swap2\n      swap1\n      pop\n      jump\t// out\n        /* \"src/Assignment.sol\":6724:6821  function zzzcontractKiller() public Owned {\r... */\n    tag_40:\n        /* \"src/Assignment.sol\":186:191  owner */\n      0x00\n      dup1\n      sload\n      swap1\n      0x0100\n      exp\n      swap1\n      div\n      0xffffffffffffffffffffffffffffffffffffffff\n      and\n        /* \"src/Assignment.sol\":172:191  msg.sender == owner */\n      0xffffffffffffffffffffffffffffffffffffffff\n      and\n        /* \"src/Assignment.sol\":172:182  msg.sender */\n      caller\n        /* \"src/Assignment.sol\":172:191  msg.sender == owner */\n      0xffffffffffffffffffffffffffffffffffffffff\n      and\n      eq\n        /* \"src/Assignment.sol\":164:192  require(msg.sender == owner) */\n      tag_207\n      jumpi\n      0x00\n      dup1\n      revert\n    tag_207:\n        /* \"src/Assignment.sol\":6806:6810  this */\n      address\n        /* \"src/Assignment.sol\":6777:6813  selfdestruct(payable(address(this))) */\n      0xffffffffffffffffffffffffffffffffffffffff\n      and\n      selfdestruct\n        /* \"src/Assignment.sol\":1398:1549  function ifTooLate(uint _time) public view returns(bool){\r... */\n    tag_45:\n        /* \"src/Assignment.sol\":1449:1453  bool */\n      0x00\n        /* \"src/Assignment.sol\":1487:1492  _time */\n      dup2\n        /* \"src/Assignment.sol\":1468:1483  block.timestamp */\n      timestamp\n        /* \"src/Assignment.sol\":1468:1492  block.timestamp >= _time */\n      lt\n        /* \"src/Assignment.sol\":1465:1518  if(block.timestamp >= _time)\r... */\n      tag_210\n      jumpi\n        /* \"src/Assignment.sol\":1514:1518  true */\n      0x01\n        /* \"src/Assignment.sol\":1507:1518  return true */\n      swap1\n      pop\n      jump(tag_209)\n        /* \"src/Assignment.sol\":1465:1518  if(block.timestamp >= _time)\r... */\n    tag_210:\n        /* \"src/Assignment.sol\":1536:1541  false */\n      0x00\n        /* \"src/Assignment.sol\":1529:1541  return false */\n      swap1\n      pop\n        /* \"src/Assignment.sol\":1398:1549  function ifTooLate(uint _time) public view returns(bool){\r... */\n    tag_209:\n      swap2\n      swap1\n      pop\n      jump\t// out\n        /* \"src/Assignment.sol\":2886:3411  function delBike(string memory _BikeName) public Owned {\r... */\n    tag_51:\n        /* \"src/Assignment.sol\":186:191  owner */\n      0x00\n      dup1\n      sload\n      swap1\n      0x0100\n      exp\n      swap1\n      div\n      0xffffffffffffffffffffffffffffffffffffffff\n      and\n        /* \"src/Assignment.sol\":172:191  msg.sender == owner */\n      0xffffffffffffffffffffffffffffffffffffffff\n      and\n        /* \"src/Assignment.sol\":172:182  msg.sender */\n      caller\n        /* \"src/Assignment.sol\":172:191  msg.sender == owner */\n      0xffffffffffffffffffffffffffffffffffffffff\n      and\n      eq\n        /* \"src/Assignment.sol\":164:192  require(msg.sender == owner) */\n      tag_212\n      jumpi\n      0x00\n      dup1\n      revert\n    tag_212:\n        /* \"src/Assignment.sol\":2984:2987  999 */\n      0x03e7\n        /* \"src/Assignment.sol\":2960:2981  searchBike(_BikeName) */\n      tag_214\n        /* \"src/Assignment.sol\":2971:2980  _BikeName */\n      dup3\n        /* \"src/Assignment.sol\":2960:2970  searchBike */\n      tag_36\n        /* \"src/Assignment.sol\":2960:2981  searchBike(_BikeName) */\n      jump\t// in\n    tag_214:\n        /* \"src/Assignment.sol\":2960:2987  searchBike(_BikeName) < 999 */\n      lt\n        /* \"src/Assignment.sol\":2952:3006  require(searchBike(_BikeName) < 999, \"Check the name\") */\n      tag_215\n      jumpi\n      mload(0x40)\n      0x08c379a000000000000000000000000000000000000000000000000000000000\n      dup2\n      mstore\n      0x04\n      add\n      tag_216\n      swap1\n      tag_144\n      jump\t// in\n    tag_216:\n      mload(0x40)\n      dup1\n      swap2\n      sub\n      swap1\n      revert\n    tag_215:\n        /* \"src/Assignment.sol\":3082:3095  bool _success */\n      0x00\n        /* \"src/Assignment.sol\":3108:3116  BikeInfo */\n      0x02\n        /* \"src/Assignment.sol\":3117:3126  _BikeName */\n      dup3\n        /* \"src/Assignment.sol\":3108:3127  BikeInfo[_BikeName] */\n      mload(0x40)\n      tag_217\n      swap2\n      swap1\n      tag_68\n      jump\t// in\n    tag_217:\n      swap1\n      dup2\n      mstore\n      0x20\n      add\n      mload(0x40)\n      dup1\n      swap2\n      sub\n      swap1\n      keccak256\n        /* \"src/Assignment.sol\":3108:3138  BikeInfo[_BikeName].BikeSeller */\n      0x02\n      add\n      0x00\n      swap1\n      sload\n      swap1\n      0x0100\n      exp\n      swap1\n      div\n      0xffffffffffffffffffffffffffffffffffffffff\n      and\n        /* \"src/Assignment.sol\":3100:3144  address(BikeInfo[_BikeName].BikeSeller).call */\n      0xffffffffffffffffffffffffffffffffffffffff\n      and\n        /* \"src/Assignment.sol\":3184:3187  100 */\n      0x64\n        /* \"src/Assignment.sol\":3152:3160  BikeInfo */\n      0x02\n        /* \"src/Assignment.sol\":3161:3170  _BikeName */\n      dup5\n        /* \"src/Assignment.sol\":3152:3171  BikeInfo[_BikeName] */\n      mload(0x40)\n      tag_218\n      swap2\n      swap1\n      tag_68\n      jump\t// in\n    tag_218:\n      swap1\n      dup2\n      mstore\n      0x20\n      add\n      mload(0x40)\n      dup1\n      swap2\n      sub\n      swap1\n      keccak256\n        /* \"src/Assignment.sol\":3152:3181  BikeInfo[_BikeName].BikePrice */\n      0x00\n      add\n      sload\n        /* \"src/Assignment.sol\":3152:3187  BikeInfo[_BikeName].BikePrice / 100 */\n      tag_219\n      swap2\n      swap1\n      tag_86\n      jump\t// in\n    tag_219:\n        /* \"src/Assignment.sol\":3100:3192  address(BikeInfo[_BikeName].BikeSeller).call{value: BikeInfo[_BikeName].BikePrice / 100}(\"\") */\n      mload(0x40)\n      tag_220\n      swap1\n      tag_80\n      jump\t// in\n    tag_220:\n      0x00\n      mload(0x40)\n      dup1\n      dup4\n      sub\n      dup2\n      dup6\n      dup8\n      gas\n      call\n      swap3\n      pop\n      pop\n      pop\n      returndatasize\n      dup1\n      0x00\n      dup2\n      eq\n      tag_223\n      jumpi\n      mload(0x40)\n      swap2\n      pop\n      and(add(returndatasize, 0x3f), not(0x1f))\n      dup3\n      add\n      0x40\n      mstore\n      returndatasize\n      dup3\n      mstore\n      returndatasize\n      0x00\n      0x20\n      dup5\n      add\n      returndatacopy\n      jump(tag_222)\n    tag_223:\n      0x60\n      swap2\n      pop\n    tag_222:\n      pop\n        /* \"src/Assignment.sol\":3081:3192  (bool _success,) = address(BikeInfo[_BikeName].BikeSeller).call{value: BikeInfo[_BikeName].BikePrice / 100}(\"\") */\n      pop\n      swap1\n      pop\n        /* \"src/Assignment.sol\":3211:3219  _success */\n      dup1\n        /* \"src/Assignment.sol\":3203:3243  require(_success,\"Failed to refund fee\") */\n      tag_224\n      jumpi\n      mload(0x40)\n      0x08c379a000000000000000000000000000000000000000000000000000000000\n      dup2\n      mstore\n      0x04\n      add\n      tag_225\n      swap1\n      tag_226\n      jump\t// in\n    tag_225:\n      mload(0x40)\n      dup1\n      swap2\n      sub\n      swap1\n      revert\n    tag_224:\n        /* \"src/Assignment.sol\":3295:3308  BikeNameArray */\n      0x01\n        /* \"src/Assignment.sol\":3332:3333  1 */\n      dup1\n        /* \"src/Assignment.sol\":3309:3322  BikeNameArray */\n      dup1\n        /* \"src/Assignment.sol\":3309:3329  BikeNameArray.length */\n      dup1\n      sload\n      swap1\n      pop\n        /* \"src/Assignment.sol\":3309:3333  BikeNameArray.length - 1 */\n      tag_227\n      swap2\n      swap1\n      tag_129\n      jump\t// in\n    tag_227:\n        /* \"src/Assignment.sol\":3295:3334  BikeNameArray[BikeNameArray.length - 1] */\n      dup2\n      sload\n      dup2\n      lt\n      tag_228\n      jumpi\n      tag_229\n      tag_154\n      jump\t// in\n    tag_229:\n    tag_228:\n      swap1\n      0x00\n      mstore\n      keccak256(0x00, 0x20)\n      add\n        /* \"src/Assignment.sol\":3256:3269  BikeNameArray */\n      0x01\n        /* \"src/Assignment.sol\":3270:3291  searchBike(_BikeName) */\n      tag_231\n        /* \"src/Assignment.sol\":3281:3290  _BikeName */\n      dup5\n        /* \"src/Assignment.sol\":3270:3280  searchBike */\n      tag_36\n        /* \"src/Assignment.sol\":3270:3291  searchBike(_BikeName) */\n      jump\t// in\n    tag_231:\n        /* \"src/Assignment.sol\":3256:3292  BikeNameArray[searchBike(_BikeName)] */\n      dup2\n      sload\n      dup2\n      lt\n      tag_232\n      jumpi\n      tag_233\n      tag_154\n      jump\t// in\n    tag_233:\n    tag_232:\n      swap1\n      0x00\n      mstore\n      keccak256(0x00, 0x20)\n      add\n        /* \"src/Assignment.sol\":3256:3334  BikeNameArray[searchBike(_BikeName)] = BikeNameArray[BikeNameArray.length - 1] */\n      swap1\n      dup1\n      sload\n      tag_235\n      swap1\n      tag_161\n      jump\t// in\n    tag_235:\n      tag_236\n      swap3\n      swap2\n      swap1\n      tag_163\n      jump\t// in\n    tag_236:\n      pop\n        /* \"src/Assignment.sol\":3345:3358  BikeNameArray */\n      0x01\n        /* \"src/Assignment.sol\":3345:3364  BikeNameArray.pop() */\n      dup1\n      sload\n      dup1\n      tag_237\n      jumpi\n      tag_238\n      tag_166\n      jump\t// in\n    tag_238:\n    tag_237:\n      0x01\n      swap1\n      sub\n      dup2\n      dup2\n      swap1\n      0x00\n      mstore\n      keccak256(0x00, 0x20)\n      add\n      0x00\n      tag_240\n      swap2\n      swap1\n      tag_169\n      jump\t// in\n    tag_240:\n      swap1\n      sstore\n        /* \"src/Assignment.sol\":3384:3392  BikeInfo */\n      0x02\n        /* \"src/Assignment.sol\":3393:3402  _BikeName */\n      dup3\n        /* \"src/Assignment.sol\":3384:3403  BikeInfo[_BikeName] */\n      mload(0x40)\n      tag_241\n      swap2\n      swap1\n      tag_68\n      jump\t// in\n    tag_241:\n      swap1\n      dup2\n      mstore\n      0x20\n      add\n      mload(0x40)\n      dup1\n      swap2\n      sub\n      swap1\n      keccak256\n      0x00\n        /* \"src/Assignment.sol\":3377:3403  delete BikeInfo[_BikeName] */\n      dup1\n      dup3\n      add\n      0x00\n      swap1\n      sstore\n      0x01\n      dup3\n      add\n      0x00\n      tag_242\n      swap2\n      swap1\n      tag_98\n      jump\t// in\n    tag_242:\n      0x02\n      dup3\n      add\n      exp(0x0100, 0x00)\n      dup2\n      sload\n      swap1\n      0xffffffffffffffffffffffffffffffffffffffff\n      mul\n      not\n      and\n      swap1\n      sstore\n      pop\n      pop\n        /* \"src/Assignment.sol\":2941:3411  {\r... */\n      pop\n        /* \"src/Assignment.sol\":2886:3411  function delBike(string memory _BikeName) public Owned {\r... */\n      pop\n      jump\t// out\n        /* \"src/Assignment.sol\":6049:6180  function getBikePrice(string memory _BikeName) public view returns(uint256) {\r... */\n    tag_55:\n        /* \"src/Assignment.sol\":6116:6123  uint256 */\n      0x00\n        /* \"src/Assignment.sol\":6143:6151  BikeInfo */\n      0x02\n        /* \"src/Assignment.sol\":6152:6161  _BikeName */\n      dup3\n        /* \"src/Assignment.sol\":6143:6162  BikeInfo[_BikeName] */\n      mload(0x40)\n      tag_244\n      swap2\n      swap1\n      tag_68\n      jump\t// in\n    tag_244:\n      swap1\n      dup2\n      mstore\n      0x20\n      add\n      mload(0x40)\n      dup1\n      swap2\n      sub\n      swap1\n      keccak256\n        /* \"src/Assignment.sol\":6143:6172  BikeInfo[_BikeName].BikePrice */\n      0x00\n      add\n      sload\n        /* \"src/Assignment.sol\":6136:6172  return BikeInfo[_BikeName].BikePrice */\n      swap1\n      pop\n        /* \"src/Assignment.sol\":6049:6180  function getBikePrice(string memory _BikeName) public view returns(uint256) {\r... */\n      swap2\n      swap1\n      pop\n      jump\t// out\n        /* \"src/Assignment.sol\":6236:6603  function showBike() public {\r... */\n    tag_59:\n        /* \"src/Assignment.sol\":6278:6287  uint256 i */\n      0x00\n        /* \"src/Assignment.sol\":6274:6596  for(uint256 i = 0; i <BikeNameArray.length ; i++) {\r... */\n    tag_246:\n        /* \"src/Assignment.sol\":6296:6309  BikeNameArray */\n      0x01\n        /* \"src/Assignment.sol\":6296:6316  BikeNameArray.length */\n      dup1\n      sload\n      swap1\n      pop\n        /* \"src/Assignment.sol\":6293:6294  i */\n      dup2\n        /* \"src/Assignment.sol\":6293:6316  i <BikeNameArray.length */\n      lt\n        /* \"src/Assignment.sol\":6274:6596  for(uint256 i = 0; i <BikeNameArray.length ; i++) {\r... */\n      iszero\n      tag_247\n      jumpi\n        /* \"src/Assignment.sol\":6339:6362  string memory _bikeName */\n      0x00\n        /* \"src/Assignment.sol\":6365:6378  BikeNameArray */\n      0x01\n        /* \"src/Assignment.sol\":6379:6380  i */\n      dup3\n        /* \"src/Assignment.sol\":6365:6381  BikeNameArray[i] */\n      dup2\n      sload\n      dup2\n      lt\n      tag_249\n      jumpi\n      tag_250\n      tag_154\n      jump\t// in\n    tag_250:\n    tag_249:\n      swap1\n      0x00\n      mstore\n      keccak256(0x00, 0x20)\n      add\n        /* \"src/Assignment.sol\":6339:6381  string memory _bikeName = BikeNameArray[i] */\n      dup1\n      sload\n      tag_252\n      swap1\n      tag_161\n      jump\t// in\n    tag_252:\n      dup1\n      0x1f\n      add\n      0x20\n      dup1\n      swap2\n      div\n      mul\n      0x20\n      add\n      mload(0x40)\n      swap1\n      dup2\n      add\n      0x40\n      mstore\n      dup1\n      swap3\n      swap2\n      swap1\n      dup2\n      dup2\n      mstore\n      0x20\n      add\n      dup3\n      dup1\n      sload\n      tag_253\n      swap1\n      tag_161\n      jump\t// in\n    tag_253:\n      dup1\n      iszero\n      tag_254\n      jumpi\n      dup1\n      0x1f\n      lt\n      tag_255\n      jumpi\n      0x0100\n      dup1\n      dup4\n      sload\n      div\n      mul\n      dup4\n      mstore\n      swap2\n      0x20\n      add\n      swap2\n      jump(tag_254)\n    tag_255:\n      dup3\n      add\n      swap2\n      swap1\n      0x00\n      mstore\n      keccak256(0x00, 0x20)\n      swap1\n    tag_256:\n      dup2\n      sload\n      dup2\n      mstore\n      swap1\n      0x01\n      add\n      swap1\n      0x20\n      add\n      dup1\n      dup4\n      gt\n      tag_256\n      jumpi\n      dup3\n      swap1\n      sub\n      0x1f\n      and\n      dup3\n      add\n      swap2\n    tag_254:\n      pop\n      pop\n      pop\n      pop\n      pop\n      swap1\n      pop\n        /* \"src/Assignment.sol\":6467:6584  ShowBikeInfo(_bikeName, BikeInfo[_bikeName].BikePrice, BikeInfo[_bikeName].BikeImage, BikeInfo[_bikeName].BikeSeller) */\n      0x8421fc2459e9d0f7a0d6d573fb7ab7b48c410d971688b840efb276ca33a55a61\n        /* \"src/Assignment.sol\":6480:6489  _bikeName */\n      dup2\n        /* \"src/Assignment.sol\":6491:6499  BikeInfo */\n      0x02\n        /* \"src/Assignment.sol\":6500:6509  _bikeName */\n      dup4\n        /* \"src/Assignment.sol\":6491:6510  BikeInfo[_bikeName] */\n      mload(0x40)\n      tag_257\n      swap2\n      swap1\n      tag_68\n      jump\t// in\n    tag_257:\n      swap1\n      dup2\n      mstore\n      0x20\n      add\n      mload(0x40)\n      dup1\n      swap2\n      sub\n      swap1\n      keccak256\n        /* \"src/Assignment.sol\":6491:6520  BikeInfo[_bikeName].BikePrice */\n      0x00\n      add\n      sload\n        /* \"src/Assignment.sol\":6522:6530  BikeInfo */\n      0x02\n        /* \"src/Assignment.sol\":6531:6540  _bikeName */\n      dup5\n        /* \"src/Assignment.sol\":6522:6541  BikeInfo[_bikeName] */\n      mload(0x40)\n      tag_258\n      swap2\n      swap1\n      tag_68\n      jump\t// in\n    tag_258:\n      swap1\n      dup2\n      mstore\n      0x20\n      add\n      mload(0x40)\n      dup1\n      swap2\n      sub\n      swap1\n      keccak256\n        /* \"src/Assignment.sol\":6522:6551  BikeInfo[_bikeName].BikeImage */\n      0x01\n      add\n        /* \"src/Assignment.sol\":6553:6561  BikeInfo */\n      0x02\n        /* \"src/Assignment.sol\":6562:6571  _bikeName */\n      dup6\n        /* \"src/Assignment.sol\":6553:6572  BikeInfo[_bikeName] */\n      mload(0x40)\n      tag_259\n      swap2\n      swap1\n      tag_68\n      jump\t// in\n    tag_259:\n      swap1\n      dup2\n      mstore\n      0x20\n      add\n      mload(0x40)\n      dup1\n      swap2\n      sub\n      swap1\n      keccak256\n        /* \"src/Assignment.sol\":6553:6583  BikeInfo[_bikeName].BikeSeller */\n      0x02\n      add\n      0x00\n      swap1\n      sload\n      swap1\n      0x0100\n      exp\n      swap1\n      div\n      0xffffffffffffffffffffffffffffffffffffffff\n      and\n        /* \"src/Assignment.sol\":6467:6584  ShowBikeInfo(_bikeName, BikeInfo[_bikeName].BikePrice, BikeInfo[_bikeName].BikeImage, BikeInfo[_bikeName].BikeSeller) */\n      mload(0x40)\n      tag_260\n      swap5\n      swap4\n      swap3\n      swap2\n      swap1\n      tag_261\n      jump\t// in\n    tag_260:\n      mload(0x40)\n      dup1\n      swap2\n      sub\n      swap1\n      log1\n        /* \"src/Assignment.sol\":6324:6596  {\r... */\n      pop\n        /* \"src/Assignment.sol\":6319:6322  i++ */\n      dup1\n      dup1\n      tag_262\n      swap1\n      tag_205\n      jump\t// in\n    tag_262:\n      swap2\n      pop\n      pop\n        /* \"src/Assignment.sol\":6274:6596  for(uint256 i = 0; i <BikeNameArray.length ; i++) {\r... */\n      jump(tag_246)\n    tag_247:\n      pop\n        /* \"src/Assignment.sol\":6236:6603  function showBike() public {\r... */\n      jump\t// out\n        /* \"src/Assignment.sol\":5685:5980  function refund(string memory _BikeName) public payable {\r... */\n    tag_62:\n        /* \"src/Assignment.sol\":5784:5794  msg.sender */\n      caller\n        /* \"src/Assignment.sol\":5760:5794  BikeBuyer[_BikeName] == msg.sender */\n      0xffffffffffffffffffffffffffffffffffffffff\n      and\n        /* \"src/Assignment.sol\":5760:5769  BikeBuyer */\n      0x04\n        /* \"src/Assignment.sol\":5770:5779  _BikeName */\n      dup3\n        /* \"src/Assignment.sol\":5760:5780  BikeBuyer[_BikeName] */\n      mload(0x40)\n      tag_264\n      swap2\n      swap1\n      tag_68\n      jump\t// in\n    tag_264:\n      swap1\n      dup2\n      mstore\n      0x20\n      add\n      mload(0x40)\n      dup1\n      swap2\n      sub\n      swap1\n      keccak256\n      0x00\n      swap1\n      sload\n      swap1\n      0x0100\n      exp\n      swap1\n      div\n      0xffffffffffffffffffffffffffffffffffffffff\n      and\n        /* \"src/Assignment.sol\":5760:5794  BikeBuyer[_BikeName] == msg.sender */\n      0xffffffffffffffffffffffffffffffffffffffff\n      and\n      eq\n        /* \"src/Assignment.sol\":5752:5840  require(BikeBuyer[_BikeName] == msg.sender, \"This account hasn't purchased the product\") */\n      tag_265\n      jumpi\n      mload(0x40)\n      0x08c379a000000000000000000000000000000000000000000000000000000000\n      dup2\n      mstore\n      0x04\n      add\n      tag_266\n      swap1\n      tag_71\n      jump\t// in\n    tag_266:\n      mload(0x40)\n      dup1\n      swap2\n      sub\n      swap1\n      revert\n    tag_265:\n        /* \"src/Assignment.sol\":5852:5865  bool _success */\n      0x00\n        /* \"src/Assignment.sol\":5870:5880  msg.sender */\n      caller\n        /* \"src/Assignment.sol\":5870:5885  msg.sender.call */\n      0xffffffffffffffffffffffffffffffffffffffff\n      and\n        /* \"src/Assignment.sol\":5893:5901  BikeInfo */\n      0x02\n        /* \"src/Assignment.sol\":5902:5911  _BikeName */\n      dup4\n        /* \"src/Assignment.sol\":5893:5912  BikeInfo[_BikeName] */\n      mload(0x40)\n      tag_267\n      swap2\n      swap1\n      tag_68\n      jump\t// in\n    tag_267:\n      swap1\n      dup2\n      mstore\n      0x20\n      add\n      mload(0x40)\n      dup1\n      swap2\n      sub\n      swap1\n      keccak256\n        /* \"src/Assignment.sol\":5893:5922  BikeInfo[_BikeName].BikePrice */\n      0x00\n      add\n      sload\n        /* \"src/Assignment.sol\":5870:5927  msg.sender.call{value: BikeInfo[_BikeName].BikePrice}(\"\") */\n      mload(0x40)\n      tag_268\n      swap1\n      tag_80\n      jump\t// in\n    tag_268:\n      0x00\n      mload(0x40)\n      dup1\n      dup4\n      sub\n      dup2\n      dup6\n      dup8\n      gas\n      call\n      swap3\n      pop\n      pop\n      pop\n      returndatasize\n      dup1\n      0x00\n      dup2\n      eq\n      tag_271\n      jumpi\n      mload(0x40)\n      swap2\n      pop\n      and(add(returndatasize, 0x3f), not(0x1f))\n      dup3\n      add\n      0x40\n      mstore\n      returndatasize\n      dup3\n      mstore\n      returndatasize\n      0x00\n      0x20\n      dup5\n      add\n      returndatacopy\n      jump(tag_270)\n    tag_271:\n      0x60\n      swap2\n      pop\n    tag_270:\n      pop\n        /* \"src/Assignment.sol\":5851:5927  (bool _success,) = msg.sender.call{value: BikeInfo[_BikeName].BikePrice}(\"\") */\n      pop\n      swap1\n      pop\n        /* \"src/Assignment.sol\":5946:5954  _success */\n      dup1\n        /* \"src/Assignment.sol\":5938:5972  require(_success, \"Failed to pay\") */\n      tag_272\n      jumpi\n      mload(0x40)\n      0x08c379a000000000000000000000000000000000000000000000000000000000\n      dup2\n      mstore\n      0x04\n      add\n      tag_273\n      swap1\n      tag_93\n      jump\t// in\n    tag_273:\n      mload(0x40)\n      dup1\n      swap2\n      sub\n      swap1\n      revert\n    tag_272:\n        /* \"src/Assignment.sol\":5741:5980  {\r... */\n      pop\n        /* \"src/Assignment.sol\":5685:5980  function refund(string memory _BikeName) public payable {\r... */\n      pop\n      jump\t// out\n    tag_98:\n      pop\n      dup1\n      sload\n      tag_274\n      swap1\n      tag_161\n      jump\t// in\n    tag_274:\n      0x00\n      dup3\n      sstore\n      dup1\n      0x1f\n      lt\n      tag_276\n      jumpi\n      pop\n      jump(tag_275)\n    tag_276:\n      0x1f\n      add\n      0x20\n      swap1\n      div\n      swap1\n      0x00\n      mstore\n      keccak256(0x00, 0x20)\n      swap1\n      dup2\n      add\n      swap1\n      tag_277\n      swap2\n      swap1\n      tag_278\n      jump\t// in\n    tag_277:\n    tag_275:\n      pop\n      jump\t// out\n    tag_105:\n      dup3\n      dup1\n      sload\n      tag_279\n      swap1\n      tag_161\n      jump\t// in\n    tag_279:\n      swap1\n      0x00\n      mstore\n      keccak256(0x00, 0x20)\n      swap1\n      0x1f\n      add\n      0x20\n      swap1\n      div\n      dup2\n      add\n      swap3\n      dup3\n      tag_281\n      jumpi\n      0x00\n      dup6\n      sstore\n      jump(tag_280)\n    tag_281:\n      dup3\n      0x1f\n      lt\n      tag_282\n      jumpi\n      dup1\n      mload\n      not(0xff)\n      and\n      dup4\n      dup1\n      add\n      or\n      dup6\n      sstore\n      jump(tag_280)\n    tag_282:\n      dup3\n      dup1\n      add\n      0x01\n      add\n      dup6\n      sstore\n      dup3\n      iszero\n      tag_280\n      jumpi\n      swap2\n      dup3\n      add\n    tag_283:\n      dup3\n      dup2\n      gt\n      iszero\n      tag_284\n      jumpi\n      dup3\n      mload\n      dup3\n      sstore\n      swap2\n      0x20\n      add\n      swap2\n      swap1\n      0x01\n      add\n      swap1\n      jump(tag_283)\n    tag_284:\n    tag_280:\n      pop\n      swap1\n      pop\n      tag_285\n      swap2\n      swap1\n      tag_278\n      jump\t// in\n    tag_285:\n      pop\n      swap1\n      jump\t// out\n    tag_139:\n      dup3\n      dup1\n      sload\n      tag_286\n      swap1\n      tag_161\n      jump\t// in\n    tag_286:\n      swap1\n      0x00\n      mstore\n      keccak256(0x00, 0x20)\n      swap1\n      0x1f\n      add\n      0x20\n      swap1\n      div\n      dup2\n      add\n      swap3\n      dup3\n      tag_288\n      jumpi\n      0x00\n      dup6\n      sstore\n      jump(tag_287)\n    tag_288:\n      dup3\n      0x1f\n      lt\n      tag_289\n      jumpi\n      dup1\n      mload\n      not(0xff)\n      and\n      dup4\n      dup1\n      add\n      or\n      dup6\n      sstore\n      jump(tag_287)\n    tag_289:\n      dup3\n      dup1\n      add\n      0x01\n      add\n      dup6\n      sstore\n      dup3\n      iszero\n      tag_287\n      jumpi\n      swap2\n      dup3\n      add\n    tag_290:\n      dup3\n      dup2\n      gt\n      iszero\n      tag_291\n      jumpi\n      dup3\n      mload\n      dup3\n      sstore\n      swap2\n      0x20\n      add\n      swap2\n      swap1\n      0x01\n      add\n      swap1\n      jump(tag_290)\n    tag_291:\n    tag_287:\n      pop\n      swap1\n      pop\n      tag_292\n      swap2\n      swap1\n      tag_278\n      jump\t// in\n    tag_292:\n      pop\n      swap1\n      jump\t// out\n    tag_163:\n      dup3\n      dup1\n      sload\n      tag_293\n      swap1\n      tag_161\n      jump\t// in\n    tag_293:\n      swap1\n      0x00\n      mstore\n      keccak256(0x00, 0x20)\n      swap1\n      0x1f\n      add\n      0x20\n      swap1\n      div\n      dup2\n      add\n      swap3\n      dup3\n      tag_295\n      jumpi\n      0x00\n      dup6\n      sstore\n      jump(tag_294)\n    tag_295:\n      dup3\n      0x1f\n      lt\n      tag_296\n      jumpi\n      dup1\n      sload\n      dup6\n      sstore\n      jump(tag_294)\n    tag_296:\n      dup3\n      dup1\n      add\n      0x01\n      add\n      dup6\n      sstore\n      dup3\n      iszero\n      tag_294\n      jumpi\n      0x00\n      mstore\n      keccak256(0x00, 0x20)\n      swap2\n      0x1f\n      add\n      0x20\n      swap1\n      div\n      dup3\n      add\n    tag_297:\n      dup3\n      dup2\n      gt\n      iszero\n      tag_298\n      jumpi\n      dup3\n      sload\n      dup3\n      sstore\n      swap2\n      0x01\n      add\n      swap2\n      swap1\n      0x01\n      add\n      swap1\n      jump(tag_297)\n    tag_298:\n    tag_294:\n      pop\n      swap1\n      pop\n      tag_299\n      swap2\n      swap1\n      tag_278\n      jump\t// in\n    tag_299:\n      pop\n      swap1\n      jump\t// out\n    tag_169:\n      pop\n      dup1\n      sload\n      tag_300\n      swap1\n      tag_161\n      jump\t// in\n    tag_300:\n      0x00\n      dup3\n      sstore\n      dup1\n      0x1f\n      lt\n      tag_302\n      jumpi\n      pop\n      jump(tag_301)\n    tag_302:\n      0x1f\n      add\n      0x20\n      swap1\n      div\n      swap1\n      0x00\n      mstore\n      keccak256(0x00, 0x20)\n      swap1\n      dup2\n      add\n      swap1\n      tag_303\n      swap2\n      swap1\n      tag_278\n      jump\t// in\n    tag_303:\n    tag_301:\n      pop\n      jump\t// out\n    tag_278:\n    tag_304:\n      dup1\n      dup3\n      gt\n      iszero\n      tag_305\n      jumpi\n      0x00\n      dup2\n      0x00\n      swap1\n      sstore\n      pop\n      0x01\n      add\n      jump(tag_304)\n    tag_305:\n      pop\n      swap1\n      jump\t// out\n        /* \"#utility.yul\":7:419   */\n    tag_307:\n        /* \"#utility.yul\":85:90   */\n      0x00\n        /* \"#utility.yul\":110:176   */\n      tag_309\n        /* \"#utility.yul\":126:175   */\n      tag_310\n        /* \"#utility.yul\":168:174   */\n      dup5\n        /* \"#utility.yul\":126:175   */\n      tag_311\n      jump\t// in\n    tag_310:\n        /* \"#utility.yul\":110:176   */\n      tag_312\n      jump\t// in\n    tag_309:\n        /* \"#utility.yul\":101:176   */\n      swap1\n      pop\n        /* \"#utility.yul\":199:205   */\n      dup3\n        /* \"#utility.yul\":192:197   */\n      dup2\n        /* \"#utility.yul\":185:206   */\n      mstore\n        /* \"#utility.yul\":237:241   */\n      0x20\n        /* \"#utility.yul\":230:235   */\n      dup2\n        /* \"#utility.yul\":226:242   */\n      add\n        /* \"#utility.yul\":275:278   */\n      dup5\n        /* \"#utility.yul\":266:272   */\n      dup5\n        /* \"#utility.yul\":261:264   */\n      dup5\n        /* \"#utility.yul\":257:273   */\n      add\n        /* \"#utility.yul\":254:279   */\n      gt\n        /* \"#utility.yul\":251:363   */\n      iszero\n      tag_313\n      jumpi\n        /* \"#utility.yul\":282:361   */\n      tag_314\n      tag_315\n      jump\t// in\n    tag_314:\n        /* \"#utility.yul\":251:363   */\n    tag_313:\n        /* \"#utility.yul\":372:413   */\n      tag_316\n        /* \"#utility.yul\":406:412   */\n      dup5\n        /* \"#utility.yul\":401:404   */\n      dup3\n        /* \"#utility.yul\":396:399   */\n      dup6\n        /* \"#utility.yul\":372:413   */\n      tag_317\n      jump\t// in\n    tag_316:\n        /* \"#utility.yul\":91:419   */\n      pop\n        /* \"#utility.yul\":7:419   */\n      swap4\n      swap3\n      pop\n      pop\n      pop\n      jump\t// out\n        /* \"#utility.yul\":439:779   */\n    tag_318:\n        /* \"#utility.yul\":495:500   */\n      0x00\n        /* \"#utility.yul\":544:547   */\n      dup3\n        /* \"#utility.yul\":537:541   */\n      0x1f\n        /* \"#utility.yul\":529:535   */\n      dup4\n        /* \"#utility.yul\":525:542   */\n      add\n        /* \"#utility.yul\":521:548   */\n      slt\n        /* \"#utility.yul\":511:633   */\n      tag_320\n      jumpi\n        /* \"#utility.yul\":552:631   */\n      tag_321\n      tag_322\n      jump\t// in\n    tag_321:\n        /* \"#utility.yul\":511:633   */\n    tag_320:\n        /* \"#utility.yul\":669:675   */\n      dup2\n        /* \"#utility.yul\":656:676   */\n      calldataload\n        /* \"#utility.yul\":694:773   */\n      tag_323\n        /* \"#utility.yul\":769:772   */\n      dup5\n        /* \"#utility.yul\":761:767   */\n      dup3\n        /* \"#utility.yul\":754:758   */\n      0x20\n        /* \"#utility.yul\":746:752   */\n      dup7\n        /* \"#utility.yul\":742:759   */\n      add\n        /* \"#utility.yul\":694:773   */\n      tag_307\n      jump\t// in\n    tag_323:\n        /* \"#utility.yul\":685:773   */\n      swap2\n      pop\n        /* \"#utility.yul\":501:779   */\n      pop\n        /* \"#utility.yul\":439:779   */\n      swap3\n      swap2\n      pop\n      pop\n      jump\t// out\n        /* \"#utility.yul\":785:924   */\n    tag_324:\n        /* \"#utility.yul\":831:836   */\n      0x00\n        /* \"#utility.yul\":869:875   */\n      dup2\n        /* \"#utility.yul\":856:876   */\n      calldataload\n        /* \"#utility.yul\":847:876   */\n      swap1\n      pop\n        /* \"#utility.yul\":885:918   */\n      tag_326\n        /* \"#utility.yul\":912:917   */\n      dup2\n        /* \"#utility.yul\":885:918   */\n      tag_327\n      jump\t// in\n    tag_326:\n        /* \"#utility.yul\":785:924   */\n      swap3\n      swap2\n      pop\n      pop\n      jump\t// out\n        /* \"#utility.yul\":930:1439   */\n    tag_24:\n        /* \"#utility.yul\":999:1005   */\n      0x00\n        /* \"#utility.yul\":1048:1050   */\n      0x20\n        /* \"#utility.yul\":1036:1045   */\n      dup3\n        /* \"#utility.yul\":1027:1034   */\n      dup5\n        /* \"#utility.yul\":1023:1046   */\n      sub\n        /* \"#utility.yul\":1019:1051   */\n      slt\n        /* \"#utility.yul\":1016:1135   */\n      iszero\n      tag_329\n      jumpi\n        /* \"#utility.yul\":1054:1133   */\n      tag_330\n      tag_331\n      jump\t// in\n    tag_330:\n        /* \"#utility.yul\":1016:1135   */\n    tag_329:\n        /* \"#utility.yul\":1202:1203   */\n      0x00\n        /* \"#utility.yul\":1191:1200   */\n      dup3\n        /* \"#utility.yul\":1187:1204   */\n      add\n        /* \"#utility.yul\":1174:1205   */\n      calldataload\n        /* \"#utility.yul\":1232:1250   */\n      0xffffffffffffffff\n        /* \"#utility.yul\":1224:1230   */\n      dup2\n        /* \"#utility.yul\":1221:1251   */\n      gt\n        /* \"#utility.yul\":1218:1335   */\n      iszero\n      tag_332\n      jumpi\n        /* \"#utility.yul\":1254:1333   */\n      tag_333\n      tag_334\n      jump\t// in\n    tag_333:\n        /* \"#utility.yul\":1218:1335   */\n    tag_332:\n        /* \"#utility.yul\":1359:1422   */\n      tag_335\n        /* \"#utility.yul\":1414:1421   */\n      dup5\n        /* \"#utility.yul\":1405:1411   */\n      dup3\n        /* \"#utility.yul\":1394:1403   */\n      dup6\n        /* \"#utility.yul\":1390:1412   */\n      add\n        /* \"#utility.yul\":1359:1422   */\n      tag_318\n      jump\t// in\n    tag_335:\n        /* \"#utility.yul\":1349:1422   */\n      swap2\n      pop\n        /* \"#utility.yul\":1145:1432   */\n      pop\n        /* \"#utility.yul\":930:1439   */\n      swap3\n      swap2\n      pop\n      pop\n      jump\t// out\n        /* \"#utility.yul\":1445:2099   */\n    tag_28:\n        /* \"#utility.yul\":1523:1529   */\n      0x00\n        /* \"#utility.yul\":1531:1537   */\n      dup1\n        /* \"#utility.yul\":1580:1582   */\n      0x40\n        /* \"#utility.yul\":1568:1577   */\n      dup4\n        /* \"#utility.yul\":1559:1566   */\n      dup6\n        /* \"#utility.yul\":1555:1578   */\n      sub\n        /* \"#utility.yul\":1551:1583   */\n      slt\n        /* \"#utility.yul\":1548:1667   */\n      iszero\n      tag_337\n      jumpi\n        /* \"#utility.yul\":1586:1665   */\n      tag_338\n      tag_331\n      jump\t// in\n    tag_338:\n        /* \"#utility.yul\":1548:1667   */\n    tag_337:\n        /* \"#utility.yul\":1734:1735   */\n      0x00\n        /* \"#utility.yul\":1723:1732   */\n      dup4\n        /* \"#utility.yul\":1719:1736   */\n      add\n        /* \"#utility.yul\":1706:1737   */\n      calldataload\n        /* \"#utility.yul\":1764:1782   */\n      0xffffffffffffffff\n        /* \"#utility.yul\":1756:1762   */\n      dup2\n        /* \"#utility.yul\":1753:1783   */\n      gt\n        /* \"#utility.yul\":1750:1867   */\n      iszero\n      tag_339\n      jumpi\n        /* \"#utility.yul\":1786:1865   */\n      tag_340\n      tag_334\n      jump\t// in\n    tag_340:\n        /* \"#utility.yul\":1750:1867   */\n    tag_339:\n        /* \"#utility.yul\":1891:1954   */\n      tag_341\n        /* \"#utility.yul\":1946:1953   */\n      dup6\n        /* \"#utility.yul\":1937:1943   */\n      dup3\n        /* \"#utility.yul\":1926:1935   */\n      dup7\n        /* \"#utility.yul\":1922:1944   */\n      add\n        /* \"#utility.yul\":1891:1954   */\n      tag_318\n      jump\t// in\n    tag_341:\n        /* \"#utility.yul\":1881:1954   */\n      swap3\n      pop\n        /* \"#utility.yul\":1677:1964   */\n      pop\n        /* \"#utility.yul\":2003:2005   */\n      0x20\n        /* \"#utility.yul\":2029:2082   */\n      tag_342\n        /* \"#utility.yul\":2074:2081   */\n      dup6\n        /* \"#utility.yul\":2065:2071   */\n      dup3\n        /* \"#utility.yul\":2054:2063   */\n      dup7\n        /* \"#utility.yul\":2050:2072   */\n      add\n        /* \"#utility.yul\":2029:2082   */\n      tag_324\n      jump\t// in\n    tag_342:\n        /* \"#utility.yul\":2019:2082   */\n      swap2\n      pop\n        /* \"#utility.yul\":1974:2092   */\n      pop\n        /* \"#utility.yul\":1445:2099   */\n      swap3\n      pop\n      swap3\n      swap1\n      pop\n      jump\t// out\n        /* \"#utility.yul\":2105:2434   */\n    tag_44:\n        /* \"#utility.yul\":2164:2170   */\n      0x00\n        /* \"#utility.yul\":2213:2215   */\n      0x20\n        /* \"#utility.yul\":2201:2210   */\n      dup3\n        /* \"#utility.yul\":2192:2199   */\n      dup5\n        /* \"#utility.yul\":2188:2211   */\n      sub\n        /* \"#utility.yul\":2184:2216   */\n      slt\n        /* \"#utility.yul\":2181:2300   */\n      iszero\n      tag_344\n      jumpi\n        /* \"#utility.yul\":2219:2298   */\n      tag_345\n      tag_331\n      jump\t// in\n    tag_345:\n        /* \"#utility.yul\":2181:2300   */\n    tag_344:\n        /* \"#utility.yul\":2339:2340   */\n      0x00\n        /* \"#utility.yul\":2364:2417   */\n      tag_346\n        /* \"#utility.yul\":2409:2416   */\n      dup5\n        /* \"#utility.yul\":2400:2406   */\n      dup3\n        /* \"#utility.yul\":2389:2398   */\n      dup6\n        /* \"#utility.yul\":2385:2407   */\n      add\n        /* \"#utility.yul\":2364:2417   */\n      tag_324\n      jump\t// in\n    tag_346:\n        /* \"#utility.yul\":2354:2417   */\n      swap2\n      pop\n        /* \"#utility.yul\":2310:2427   */\n      pop\n        /* \"#utility.yul\":2105:2434   */\n      swap3\n      swap2\n      pop\n      pop\n      jump\t// out\n        /* \"#utility.yul\":2440:2558   */\n    tag_347:\n        /* \"#utility.yul\":2527:2551   */\n      tag_349\n        /* \"#utility.yul\":2545:2550   */\n      dup2\n        /* \"#utility.yul\":2527:2551   */\n      tag_350\n      jump\t// in\n    tag_349:\n        /* \"#utility.yul\":2522:2525   */\n      dup3\n        /* \"#utility.yul\":2515:2552   */\n      mstore\n        /* \"#utility.yul\":2440:2558   */\n      pop\n      pop\n      jump\t// out\n        /* \"#utility.yul\":2564:2673   */\n    tag_351:\n        /* \"#utility.yul\":2645:2666   */\n      tag_353\n        /* \"#utility.yul\":2660:2665   */\n      dup2\n        /* \"#utility.yul\":2645:2666   */\n      tag_354\n      jump\t// in\n    tag_353:\n        /* \"#utility.yul\":2640:2643   */\n      dup3\n        /* \"#utility.yul\":2633:2667   */\n      mstore\n        /* \"#utility.yul\":2564:2673   */\n      pop\n      pop\n      jump\t// out\n        /* \"#utility.yul\":2701:3550   */\n    tag_355:\n        /* \"#utility.yul\":2806:2809   */\n      0x00\n        /* \"#utility.yul\":2843:2848   */\n      dup2\n        /* \"#utility.yul\":2837:2849   */\n      sload\n        /* \"#utility.yul\":2872:2908   */\n      tag_357\n        /* \"#utility.yul\":2898:2907   */\n      dup2\n        /* \"#utility.yul\":2872:2908   */\n      tag_161\n      jump\t// in\n    tag_357:\n        /* \"#utility.yul\":2924:3012   */\n      tag_358\n        /* \"#utility.yul\":3005:3011   */\n      dup2\n        /* \"#utility.yul\":3000:3003   */\n      dup7\n        /* \"#utility.yul\":2924:3012   */\n      tag_359\n      jump\t// in\n    tag_358:\n        /* \"#utility.yul\":2917:3012   */\n      swap5\n      pop\n        /* \"#utility.yul\":3043:3044   */\n      0x01\n        /* \"#utility.yul\":3032:3041   */\n      dup3\n        /* \"#utility.yul\":3028:3045   */\n      and\n        /* \"#utility.yul\":3059:3060   */\n      0x00\n        /* \"#utility.yul\":3054:3191   */\n      dup2\n      eq\n      tag_361\n      jumpi\n        /* \"#utility.yul\":3205:3206   */\n      0x01\n        /* \"#utility.yul\":3200:3544   */\n      dup2\n      eq\n      tag_362\n      jumpi\n        /* \"#utility.yul\":3021:3544   */\n      jump(tag_360)\n        /* \"#utility.yul\":3054:3191   */\n    tag_361:\n        /* \"#utility.yul\":3138:3142   */\n      0xff\n        /* \"#utility.yul\":3134:3143   */\n      not\n        /* \"#utility.yul\":3123:3132   */\n      dup4\n        /* \"#utility.yul\":3119:3144   */\n      and\n        /* \"#utility.yul\":3114:3117   */\n      dup7\n        /* \"#utility.yul\":3107:3145   */\n      mstore\n        /* \"#utility.yul\":3174:3180   */\n      dup2\n        /* \"#utility.yul\":3169:3172   */\n      dup7\n        /* \"#utility.yul\":3165:3181   */\n      add\n        /* \"#utility.yul\":3158:3181   */\n      swap4\n      pop\n        /* \"#utility.yul\":3054:3191   */\n      jump(tag_360)\n        /* \"#utility.yul\":3200:3544   */\n    tag_362:\n        /* \"#utility.yul\":3267:3308   */\n      tag_363\n        /* \"#utility.yul\":3302:3307   */\n      dup6\n        /* \"#utility.yul\":3267:3308   */\n      tag_364\n      jump\t// in\n    tag_363:\n        /* \"#utility.yul\":3330:3331   */\n      0x00\n        /* \"#utility.yul\":3344:3498   */\n    tag_365:\n        /* \"#utility.yul\":3358:3364   */\n      dup4\n        /* \"#utility.yul\":3355:3356   */\n      dup2\n        /* \"#utility.yul\":3352:3365   */\n      lt\n        /* \"#utility.yul\":3344:3498   */\n      iszero\n      tag_367\n      jumpi\n        /* \"#utility.yul\":3432:3439   */\n      dup2\n        /* \"#utility.yul\":3426:3440   */\n      sload\n        /* \"#utility.yul\":3422:3423   */\n      dup2\n        /* \"#utility.yul\":3417:3420   */\n      dup10\n        /* \"#utility.yul\":3413:3424   */\n      add\n        /* \"#utility.yul\":3406:3441   */\n      mstore\n        /* \"#utility.yul\":3482:3483   */\n      0x01\n        /* \"#utility.yul\":3473:3480   */\n      dup3\n        /* \"#utility.yul\":3469:3484   */\n      add\n        /* \"#utility.yul\":3458:3484   */\n      swap2\n      pop\n        /* \"#utility.yul\":3380:3384   */\n      0x20\n        /* \"#utility.yul\":3377:3378   */\n      dup2\n        /* \"#utility.yul\":3373:3385   */\n      add\n        /* \"#utility.yul\":3368:3385   */\n      swap1\n      pop\n        /* \"#utility.yul\":3344:3498   */\n      jump(tag_365)\n    tag_367:\n        /* \"#utility.yul\":3527:3533   */\n      dup4\n        /* \"#utility.yul\":3522:3525   */\n      dup9\n        /* \"#utility.yul\":3518:3534   */\n      add\n        /* \"#utility.yul\":3511:3534   */\n      swap6\n      pop\n        /* \"#utility.yul\":3207:3544   */\n      pop\n      pop\n        /* \"#utility.yul\":3021:3544   */\n    tag_360:\n      pop\n        /* \"#utility.yul\":2810:3550   */\n      pop\n      pop\n        /* \"#utility.yul\":2701:3550   */\n      swap3\n      swap2\n      pop\n      pop\n      jump\t// out\n        /* \"#utility.yul\":3578:4376   */\n    tag_368:\n        /* \"#utility.yul\":3661:3664   */\n      0x00\n        /* \"#utility.yul\":3698:3703   */\n      dup2\n        /* \"#utility.yul\":3692:3704   */\n      sload\n        /* \"#utility.yul\":3727:3763   */\n      tag_370\n        /* \"#utility.yul\":3753:3762   */\n      dup2\n        /* \"#utility.yul\":3727:3763   */\n      tag_161\n      jump\t// in\n    tag_370:\n        /* \"#utility.yul\":3779:3849   */\n      tag_371\n        /* \"#utility.yul\":3842:3848   */\n      dup2\n        /* \"#utility.yul\":3837:3840   */\n      dup7\n        /* \"#utility.yul\":3779:3849   */\n      tag_372\n      jump\t// in\n    tag_371:\n        /* \"#utility.yul\":3772:3849   */\n      swap5\n      pop\n        /* \"#utility.yul\":3880:3881   */\n      0x01\n        /* \"#utility.yul\":3869:3878   */\n      dup3\n        /* \"#utility.yul\":3865:3882   */\n      and\n        /* \"#utility.yul\":3896:3897   */\n      0x00\n        /* \"#utility.yul\":3891:4026   */\n      dup2\n      eq\n      tag_374\n      jumpi\n        /* \"#utility.yul\":4040:4041   */\n      0x01\n        /* \"#utility.yul\":4035:4370   */\n      dup2\n      eq\n      tag_375\n      jumpi\n        /* \"#utility.yul\":3858:4370   */\n      jump(tag_373)\n        /* \"#utility.yul\":3891:4026   */\n    tag_374:\n        /* \"#utility.yul\":3975:3979   */\n      0xff\n        /* \"#utility.yul\":3971:3980   */\n      not\n        /* \"#utility.yul\":3960:3969   */\n      dup4\n        /* \"#utility.yul\":3956:3981   */\n      and\n        /* \"#utility.yul\":3951:3954   */\n      dup7\n        /* \"#utility.yul\":3944:3982   */\n      mstore\n        /* \"#utility.yul\":4011:4015   */\n      0x20\n        /* \"#utility.yul\":4006:4009   */\n      dup7\n        /* \"#utility.yul\":4002:4016   */\n      add\n        /* \"#utility.yul\":3995:4016   */\n      swap4\n      pop\n        /* \"#utility.yul\":3891:4026   */\n      jump(tag_373)\n        /* \"#utility.yul\":4035:4370   */\n    tag_375:\n        /* \"#utility.yul\":4102:4139   */\n      tag_376\n        /* \"#utility.yul\":4133:4138   */\n      dup6\n        /* \"#utility.yul\":4102:4139   */\n      tag_377\n      jump\t// in\n    tag_376:\n        /* \"#utility.yul\":4161:4162   */\n      0x00\n        /* \"#utility.yul\":4175:4329   */\n    tag_378:\n        /* \"#utility.yul\":4189:4195   */\n      dup4\n        /* \"#utility.yul\":4186:4187   */\n      dup2\n        /* \"#utility.yul\":4183:4196   */\n      lt\n        /* \"#utility.yul\":4175:4329   */\n      iszero\n      tag_380\n      jumpi\n        /* \"#utility.yul\":4263:4270   */\n      dup2\n        /* \"#utility.yul\":4257:4271   */\n      sload\n        /* \"#utility.yul\":4253:4254   */\n      dup2\n        /* \"#utility.yul\":4248:4251   */\n      dup10\n        /* \"#utility.yul\":4244:4255   */\n      add\n        /* \"#utility.yul\":4237:4272   */\n      mstore\n        /* \"#utility.yul\":4313:4314   */\n      0x01\n        /* \"#utility.yul\":4304:4311   */\n      dup3\n        /* \"#utility.yul\":4300:4315   */\n      add\n        /* \"#utility.yul\":4289:4315   */\n      swap2\n      pop\n        /* \"#utility.yul\":4211:4215   */\n      0x20\n        /* \"#utility.yul\":4208:4209   */\n      dup2\n        /* \"#utility.yul\":4204:4216   */\n      add\n        /* \"#utility.yul\":4199:4216   */\n      swap1\n      pop\n        /* \"#utility.yul\":4175:4329   */\n      jump(tag_378)\n    tag_380:\n        /* \"#utility.yul\":4358:4359   */\n      dup1\n        /* \"#utility.yul\":4353:4356   */\n      dup9\n        /* \"#utility.yul\":4349:4360   */\n      add\n        /* \"#utility.yul\":4342:4360   */\n      swap6\n      pop\n        /* \"#utility.yul\":4042:4370   */\n      pop\n      pop\n        /* \"#utility.yul\":3858:4370   */\n    tag_373:\n      pop\n        /* \"#utility.yul\":3665:4376   */\n      pop\n      pop\n        /* \"#utility.yul\":3578:4376   */\n      swap3\n      swap2\n      pop\n      pop\n      jump\t// out\n        /* \"#utility.yul\":4382:4746   */\n    tag_381:\n        /* \"#utility.yul\":4470:4473   */\n      0x00\n        /* \"#utility.yul\":4498:4537   */\n      tag_383\n        /* \"#utility.yul\":4531:4536   */\n      dup3\n        /* \"#utility.yul\":4498:4537   */\n      tag_384\n      jump\t// in\n    tag_383:\n        /* \"#utility.yul\":4553:4624   */\n      tag_385\n        /* \"#utility.yul\":4617:4623   */\n      dup2\n        /* \"#utility.yul\":4612:4615   */\n      dup6\n        /* \"#utility.yul\":4553:4624   */\n      tag_386\n      jump\t// in\n    tag_385:\n        /* \"#utility.yul\":4546:4624   */\n      swap4\n      pop\n        /* \"#utility.yul\":4633:4685   */\n      tag_387\n        /* \"#utility.yul\":4678:4684   */\n      dup2\n        /* \"#utility.yul\":4673:4676   */\n      dup6\n        /* \"#utility.yul\":4666:4670   */\n      0x20\n        /* \"#utility.yul\":4659:4664   */\n      dup7\n        /* \"#utility.yul\":4655:4671   */\n      add\n        /* \"#utility.yul\":4633:4685   */\n      tag_388\n      jump\t// in\n    tag_387:\n        /* \"#utility.yul\":4710:4739   */\n      tag_389\n        /* \"#utility.yul\":4732:4738   */\n      dup2\n        /* \"#utility.yul\":4710:4739   */\n      tag_390\n      jump\t// in\n    tag_389:\n        /* \"#utility.yul\":4705:4708   */\n      dup5\n        /* \"#utility.yul\":4701:4740   */\n      add\n        /* \"#utility.yul\":4694:4740   */\n      swap2\n      pop\n        /* \"#utility.yul\":4474:4746   */\n      pop\n        /* \"#utility.yul\":4382:4746   */\n      swap3\n      swap2\n      pop\n      pop\n      jump\t// out\n        /* \"#utility.yul\":4752:5129   */\n    tag_391:\n        /* \"#utility.yul\":4858:4861   */\n      0x00\n        /* \"#utility.yul\":4886:4925   */\n      tag_393\n        /* \"#utility.yul\":4919:4924   */\n      dup3\n        /* \"#utility.yul\":4886:4925   */\n      tag_384\n      jump\t// in\n    tag_393:\n        /* \"#utility.yul\":4941:5030   */\n      tag_394\n        /* \"#utility.yul\":5023:5029   */\n      dup2\n        /* \"#utility.yul\":5018:5021   */\n      dup6\n        /* \"#utility.yul\":4941:5030   */\n      tag_395\n      jump\t// in\n    tag_394:\n        /* \"#utility.yul\":4934:5030   */\n      swap4\n      pop\n        /* \"#utility.yul\":5039:5091   */\n      tag_396\n        /* \"#utility.yul\":5084:5090   */\n      dup2\n        /* \"#utility.yul\":5079:5082   */\n      dup6\n        /* \"#utility.yul\":5072:5076   */\n      0x20\n        /* \"#utility.yul\":5065:5070   */\n      dup7\n        /* \"#utility.yul\":5061:5077   */\n      add\n        /* \"#utility.yul\":5039:5091   */\n      tag_388\n      jump\t// in\n    tag_396:\n        /* \"#utility.yul\":5116:5122   */\n      dup1\n        /* \"#utility.yul\":5111:5114   */\n      dup5\n        /* \"#utility.yul\":5107:5123   */\n      add\n        /* \"#utility.yul\":5100:5123   */\n      swap2\n      pop\n        /* \"#utility.yul\":4862:5129   */\n      pop\n        /* \"#utility.yul\":4752:5129   */\n      swap3\n      swap2\n      pop\n      pop\n      jump\t// out\n        /* \"#utility.yul\":5135:5501   */\n    tag_397:\n        /* \"#utility.yul\":5277:5280   */\n      0x00\n        /* \"#utility.yul\":5298:5365   */\n      tag_399\n        /* \"#utility.yul\":5362:5364   */\n      0x29\n        /* \"#utility.yul\":5357:5360   */\n      dup4\n        /* \"#utility.yul\":5298:5365   */\n      tag_386\n      jump\t// in\n    tag_399:\n        /* \"#utility.yul\":5291:5365   */\n      swap2\n      pop\n        /* \"#utility.yul\":5374:5467   */\n      tag_400\n        /* \"#utility.yul\":5463:5466   */\n      dup3\n        /* \"#utility.yul\":5374:5467   */\n      tag_401\n      jump\t// in\n    tag_400:\n        /* \"#utility.yul\":5492:5494   */\n      0x40\n        /* \"#utility.yul\":5487:5490   */\n      dup3\n        /* \"#utility.yul\":5483:5495   */\n      add\n        /* \"#utility.yul\":5476:5495   */\n      swap1\n      pop\n        /* \"#utility.yul\":5135:5501   */\n      swap2\n      swap1\n      pop\n      jump\t// out\n        /* \"#utility.yul\":5507:5873   */\n    tag_402:\n        /* \"#utility.yul\":5649:5652   */\n      0x00\n        /* \"#utility.yul\":5670:5737   */\n      tag_404\n        /* \"#utility.yul\":5734:5736   */\n      0x17\n        /* \"#utility.yul\":5729:5732   */\n      dup4\n        /* \"#utility.yul\":5670:5737   */\n      tag_386\n      jump\t// in\n    tag_404:\n        /* \"#utility.yul\":5663:5737   */\n      swap2\n      pop\n        /* \"#utility.yul\":5746:5839   */\n      tag_405\n        /* \"#utility.yul\":5835:5838   */\n      dup3\n        /* \"#utility.yul\":5746:5839   */\n      tag_406\n      jump\t// in\n    tag_405:\n        /* \"#utility.yul\":5864:5866   */\n      0x20\n        /* \"#utility.yul\":5859:5862   */\n      dup3\n        /* \"#utility.yul\":5855:5867   */\n      add\n        /* \"#utility.yul\":5848:5867   */\n      swap1\n      pop\n        /* \"#utility.yul\":5507:5873   */\n      swap2\n      swap1\n      pop\n      jump\t// out\n        /* \"#utility.yul\":5879:6245   */\n    tag_407:\n        /* \"#utility.yul\":6021:6024   */\n      0x00\n        /* \"#utility.yul\":6042:6109   */\n      tag_409\n        /* \"#utility.yul\":6106:6108   */\n      0x0f\n        /* \"#utility.yul\":6101:6104   */\n      dup4\n        /* \"#utility.yul\":6042:6109   */\n      tag_386\n      jump\t// in\n    tag_409:\n        /* \"#utility.yul\":6035:6109   */\n      swap2\n      pop\n        /* \"#utility.yul\":6118:6211   */\n      tag_410\n        /* \"#utility.yul\":6207:6210   */\n      dup3\n        /* \"#utility.yul\":6118:6211   */\n      tag_411\n      jump\t// in\n    tag_410:\n        /* \"#utility.yul\":6236:6238   */\n      0x20\n        /* \"#utility.yul\":6231:6234   */\n      dup3\n        /* \"#utility.yul\":6227:6239   */\n      add\n        /* \"#utility.yul\":6220:6239   */\n      swap1\n      pop\n        /* \"#utility.yul\":5879:6245   */\n      swap2\n      swap1\n      pop\n      jump\t// out\n        /* \"#utility.yul\":6251:6617   */\n    tag_412:\n        /* \"#utility.yul\":6393:6396   */\n      0x00\n        /* \"#utility.yul\":6414:6481   */\n      tag_414\n        /* \"#utility.yul\":6478:6480   */\n      0x16\n        /* \"#utility.yul\":6473:6476   */\n      dup4\n        /* \"#utility.yul\":6414:6481   */\n      tag_386\n      jump\t// in\n    tag_414:\n        /* \"#utility.yul\":6407:6481   */\n      swap2\n      pop\n        /* \"#utility.yul\":6490:6583   */\n      tag_415\n        /* \"#utility.yul\":6579:6582   */\n      dup3\n        /* \"#utility.yul\":6490:6583   */\n      tag_416\n      jump\t// in\n    tag_415:\n        /* \"#utility.yul\":6608:6610   */\n      0x20\n        /* \"#utility.yul\":6603:6606   */\n      dup3\n        /* \"#utility.yul\":6599:6611   */\n      add\n        /* \"#utility.yul\":6592:6611   */\n      swap1\n      pop\n        /* \"#utility.yul\":6251:6617   */\n      swap2\n      swap1\n      pop\n      jump\t// out\n        /* \"#utility.yul\":6623:6989   */\n    tag_417:\n        /* \"#utility.yul\":6765:6768   */\n      0x00\n        /* \"#utility.yul\":6786:6853   */\n      tag_419\n        /* \"#utility.yul\":6850:6852   */\n      0x0e\n        /* \"#utility.yul\":6845:6848   */\n      dup4\n        /* \"#utility.yul\":6786:6853   */\n      tag_386\n      jump\t// in\n    tag_419:\n        /* \"#utility.yul\":6779:6853   */\n      swap2\n      pop\n        /* \"#utility.yul\":6862:6955   */\n      tag_420\n        /* \"#utility.yul\":6951:6954   */\n      dup3\n        /* \"#utility.yul\":6862:6955   */\n      tag_421\n      jump\t// in\n    tag_420:\n        /* \"#utility.yul\":6980:6982   */\n      0x20\n        /* \"#utility.yul\":6975:6978   */\n      dup3\n        /* \"#utility.yul\":6971:6983   */\n      add\n        /* \"#utility.yul\":6964:6983   */\n      swap1\n      pop\n        /* \"#utility.yul\":6623:6989   */\n      swap2\n      swap1\n      pop\n      jump\t// out\n        /* \"#utility.yul\":6995:7361   */\n    tag_422:\n        /* \"#utility.yul\":7137:7140   */\n      0x00\n        /* \"#utility.yul\":7158:7225   */\n      tag_424\n        /* \"#utility.yul\":7222:7224   */\n      0x14\n        /* \"#utility.yul\":7217:7220   */\n      dup4\n        /* \"#utility.yul\":7158:7225   */\n      tag_386\n      jump\t// in\n    tag_424:\n        /* \"#utility.yul\":7151:7225   */\n      swap2\n      pop\n        /* \"#utility.yul\":7234:7327   */\n      tag_425\n        /* \"#utility.yul\":7323:7326   */\n      dup3\n        /* \"#utility.yul\":7234:7327   */\n      tag_426\n      jump\t// in\n    tag_425:\n        /* \"#utility.yul\":7352:7354   */\n      0x20\n        /* \"#utility.yul\":7347:7350   */\n      dup3\n        /* \"#utility.yul\":7343:7355   */\n      add\n        /* \"#utility.yul\":7336:7355   */\n      swap1\n      pop\n        /* \"#utility.yul\":6995:7361   */\n      swap2\n      swap1\n      pop\n      jump\t// out\n        /* \"#utility.yul\":7367:7733   */\n    tag_427:\n        /* \"#utility.yul\":7509:7512   */\n      0x00\n        /* \"#utility.yul\":7530:7597   */\n      tag_429\n        /* \"#utility.yul\":7594:7596   */\n      0x0d\n        /* \"#utility.yul\":7589:7592   */\n      dup4\n        /* \"#utility.yul\":7530:7597   */\n      tag_386\n      jump\t// in\n    tag_429:\n        /* \"#utility.yul\":7523:7597   */\n      swap2\n      pop\n        /* \"#utility.yul\":7606:7699   */\n      tag_430\n        /* \"#utility.yul\":7695:7698   */\n      dup3\n        /* \"#utility.yul\":7606:7699   */\n      tag_431\n      jump\t// in\n    tag_430:\n        /* \"#utility.yul\":7724:7726   */\n      0x20\n        /* \"#utility.yul\":7719:7722   */\n      dup3\n        /* \"#utility.yul\":7715:7727   */\n      add\n        /* \"#utility.yul\":7708:7727   */\n      swap1\n      pop\n        /* \"#utility.yul\":7367:7733   */\n      swap2\n      swap1\n      pop\n      jump\t// out\n        /* \"#utility.yul\":7739:8137   */\n    tag_432:\n        /* \"#utility.yul\":7898:7901   */\n      0x00\n        /* \"#utility.yul\":7919:8002   */\n      tag_434\n        /* \"#utility.yul\":8000:8001   */\n      0x00\n        /* \"#utility.yul\":7995:7998   */\n      dup4\n        /* \"#utility.yul\":7919:8002   */\n      tag_359\n      jump\t// in\n    tag_434:\n        /* \"#utility.yul\":7912:8002   */\n      swap2\n      pop\n        /* \"#utility.yul\":8011:8104   */\n      tag_435\n        /* \"#utility.yul\":8100:8103   */\n      dup3\n        /* \"#utility.yul\":8011:8104   */\n      tag_436\n      jump\t// in\n    tag_435:\n        /* \"#utility.yul\":8129:8130   */\n      0x00\n        /* \"#utility.yul\":8124:8127   */\n      dup3\n        /* \"#utility.yul\":8120:8131   */\n      add\n        /* \"#utility.yul\":8113:8131   */\n      swap1\n      pop\n        /* \"#utility.yul\":7739:8137   */\n      swap2\n      swap1\n      pop\n      jump\t// out\n        /* \"#utility.yul\":8143:8509   */\n    tag_437:\n        /* \"#utility.yul\":8285:8288   */\n      0x00\n        /* \"#utility.yul\":8306:8373   */\n      tag_439\n        /* \"#utility.yul\":8370:8372   */\n      0x0d\n        /* \"#utility.yul\":8365:8368   */\n      dup4\n        /* \"#utility.yul\":8306:8373   */\n      tag_386\n      jump\t// in\n    tag_439:\n        /* \"#utility.yul\":8299:8373   */\n      swap2\n      pop\n        /* \"#utility.yul\":8382:8475   */\n      tag_440\n        /* \"#utility.yul\":8471:8474   */\n      dup3\n        /* \"#utility.yul\":8382:8475   */\n      tag_441\n      jump\t// in\n    tag_440:\n        /* \"#utility.yul\":8500:8502   */\n      0x20\n        /* \"#utility.yul\":8495:8498   */\n      dup3\n        /* \"#utility.yul\":8491:8503   */\n      add\n        /* \"#utility.yul\":8484:8503   */\n      swap1\n      pop\n        /* \"#utility.yul\":8143:8509   */\n      swap2\n      swap1\n      pop\n      jump\t// out\n        /* \"#utility.yul\":8515:8633   */\n    tag_442:\n        /* \"#utility.yul\":8602:8626   */\n      tag_444\n        /* \"#utility.yul\":8620:8625   */\n      dup2\n        /* \"#utility.yul\":8602:8626   */\n      tag_445\n      jump\t// in\n    tag_444:\n        /* \"#utility.yul\":8597:8600   */\n      dup3\n        /* \"#utility.yul\":8590:8627   */\n      mstore\n        /* \"#utility.yul\":8515:8633   */\n      pop\n      pop\n      jump\t// out\n        /* \"#utility.yul\":8639:8912   */\n    tag_202:\n        /* \"#utility.yul\":8770:8773   */\n      0x00\n        /* \"#utility.yul\":8792:8886   */\n      tag_447\n        /* \"#utility.yul\":8882:8885   */\n      dup3\n        /* \"#utility.yul\":8873:8879   */\n      dup5\n        /* \"#utility.yul\":8792:8886   */\n      tag_355\n      jump\t// in\n    tag_447:\n        /* \"#utility.yul\":8785:8886   */\n      swap2\n      pop\n        /* \"#utility.yul\":8903:8906   */\n      dup2\n        /* \"#utility.yul\":8896:8906   */\n      swap1\n      pop\n        /* \"#utility.yul\":8639:8912   */\n      swap3\n      swap2\n      pop\n      pop\n      jump\t// out\n        /* \"#utility.yul\":8918:9193   */\n    tag_68:\n        /* \"#utility.yul\":9050:9053   */\n      0x00\n        /* \"#utility.yul\":9072:9167   */\n      tag_449\n        /* \"#utility.yul\":9163:9166   */\n      dup3\n        /* \"#utility.yul\":9154:9160   */\n      dup5\n        /* \"#utility.yul\":9072:9167   */\n      tag_391\n      jump\t// in\n    tag_449:\n        /* \"#utility.yul\":9065:9167   */\n      swap2\n      pop\n        /* \"#utility.yul\":9184:9187   */\n      dup2\n        /* \"#utility.yul\":9177:9187   */\n      swap1\n      pop\n        /* \"#utility.yul\":8918:9193   */\n      swap3\n      swap2\n      pop\n      pop\n      jump\t// out\n        /* \"#utility.yul\":9199:9578   */\n    tag_80:\n        /* \"#utility.yul\":9383:9386   */\n      0x00\n        /* \"#utility.yul\":9405:9552   */\n      tag_451\n        /* \"#utility.yul\":9548:9551   */\n      dup3\n        /* \"#utility.yul\":9405:9552   */\n      tag_432\n      jump\t// in\n    tag_451:\n        /* \"#utility.yul\":9398:9552   */\n      swap2\n      pop\n        /* \"#utility.yul\":9569:9572   */\n      dup2\n        /* \"#utility.yul\":9562:9572   */\n      swap1\n      pop\n        /* \"#utility.yul\":9199:9578   */\n      swap2\n      swap1\n      pop\n      jump\t// out\n        /* \"#utility.yul\":9584:9794   */\n    tag_47:\n        /* \"#utility.yul\":9671:9675   */\n      0x00\n        /* \"#utility.yul\":9709:9711   */\n      0x20\n        /* \"#utility.yul\":9698:9707   */\n      dup3\n        /* \"#utility.yul\":9694:9712   */\n      add\n        /* \"#utility.yul\":9686:9712   */\n      swap1\n      pop\n        /* \"#utility.yul\":9722:9787   */\n      tag_453\n        /* \"#utility.yul\":9784:9785   */\n      0x00\n        /* \"#utility.yul\":9773:9782   */\n      dup4\n        /* \"#utility.yul\":9769:9786   */\n      add\n        /* \"#utility.yul\":9760:9766   */\n      dup5\n        /* \"#utility.yul\":9722:9787   */\n      tag_351\n      jump\t// in\n    tag_453:\n        /* \"#utility.yul\":9584:9794   */\n      swap3\n      swap2\n      pop\n      pop\n      jump\t// out\n        /* \"#utility.yul\":9800:10525   */\n    tag_261:\n        /* \"#utility.yul\":10012:10016   */\n      0x00\n        /* \"#utility.yul\":10050:10053   */\n      0x80\n        /* \"#utility.yul\":10039:10048   */\n      dup3\n        /* \"#utility.yul\":10035:10054   */\n      add\n        /* \"#utility.yul\":10027:10054   */\n      swap1\n      pop\n        /* \"#utility.yul\":10100:10109   */\n      dup2\n        /* \"#utility.yul\":10094:10098   */\n      dup2\n        /* \"#utility.yul\":10090:10110   */\n      sub\n        /* \"#utility.yul\":10086:10087   */\n      0x00\n        /* \"#utility.yul\":10075:10084   */\n      dup4\n        /* \"#utility.yul\":10071:10088   */\n      add\n        /* \"#utility.yul\":10064:10111   */\n      mstore\n        /* \"#utility.yul\":10128:10206   */\n      tag_455\n        /* \"#utility.yul\":10201:10205   */\n      dup2\n        /* \"#utility.yul\":10192:10198   */\n      dup8\n        /* \"#utility.yul\":10128:10206   */\n      tag_381\n      jump\t// in\n    tag_455:\n        /* \"#utility.yul\":10120:10206   */\n      swap1\n      pop\n        /* \"#utility.yul\":10216:10288   */\n      tag_456\n        /* \"#utility.yul\":10284:10286   */\n      0x20\n        /* \"#utility.yul\":10273:10282   */\n      dup4\n        /* \"#utility.yul\":10269:10287   */\n      add\n        /* \"#utility.yul\":10260:10266   */\n      dup7\n        /* \"#utility.yul\":10216:10288   */\n      tag_442\n      jump\t// in\n    tag_456:\n        /* \"#utility.yul\":10335:10344   */\n      dup2\n        /* \"#utility.yul\":10329:10333   */\n      dup2\n        /* \"#utility.yul\":10325:10345   */\n      sub\n        /* \"#utility.yul\":10320:10322   */\n      0x40\n        /* \"#utility.yul\":10309:10318   */\n      dup4\n        /* \"#utility.yul\":10305:10323   */\n      add\n        /* \"#utility.yul\":10298:10346   */\n      mstore\n        /* \"#utility.yul\":10363:10436   */\n      tag_457\n        /* \"#utility.yul\":10431:10435   */\n      dup2\n        /* \"#utility.yul\":10422:10428   */\n      dup6\n        /* \"#utility.yul\":10363:10436   */\n      tag_368\n      jump\t// in\n    tag_457:\n        /* \"#utility.yul\":10355:10436   */\n      swap1\n      pop\n        /* \"#utility.yul\":10446:10518   */\n      tag_458\n        /* \"#utility.yul\":10514:10516   */\n      0x60\n        /* \"#utility.yul\":10503:10512   */\n      dup4\n        /* \"#utility.yul\":10499:10517   */\n      add\n        /* \"#utility.yul\":10490:10496   */\n      dup5\n        /* \"#utility.yul\":10446:10518   */\n      tag_347\n      jump\t// in\n    tag_458:\n        /* \"#utility.yul\":9800:10525   */\n      swap6\n      swap5\n      pop\n      pop\n      pop\n      pop\n      pop\n      jump\t// out\n        /* \"#utility.yul\":10531:10950   */\n    tag_71:\n        /* \"#utility.yul\":10697:10701   */\n      0x00\n        /* \"#utility.yul\":10735:10737   */\n      0x20\n        /* \"#utility.yul\":10724:10733   */\n      dup3\n        /* \"#utility.yul\":10720:10738   */\n      add\n        /* \"#utility.yul\":10712:10738   */\n      swap1\n      pop\n        /* \"#utility.yul\":10784:10793   */\n      dup2\n        /* \"#utility.yul\":10778:10782   */\n      dup2\n        /* \"#utility.yul\":10774:10794   */\n      sub\n        /* \"#utility.yul\":10770:10771   */\n      0x00\n        /* \"#utility.yul\":10759:10768   */\n      dup4\n        /* \"#utility.yul\":10755:10772   */\n      add\n        /* \"#utility.yul\":10748:10795   */\n      mstore\n        /* \"#utility.yul\":10812:10943   */\n      tag_460\n        /* \"#utility.yul\":10938:10942   */\n      dup2\n        /* \"#utility.yul\":10812:10943   */\n      tag_397\n      jump\t// in\n    tag_460:\n        /* \"#utility.yul\":10804:10943   */\n      swap1\n      pop\n        /* \"#utility.yul\":10531:10950   */\n      swap2\n      swap1\n      pop\n      jump\t// out\n        /* \"#utility.yul\":10956:11375   */\n    tag_136:\n        /* \"#utility.yul\":11122:11126   */\n      0x00\n        /* \"#utility.yul\":11160:11162   */\n      0x20\n        /* \"#utility.yul\":11149:11158   */\n      dup3\n        /* \"#utility.yul\":11145:11163   */\n      add\n        /* \"#utility.yul\":11137:11163   */\n      swap1\n      pop\n        /* \"#utility.yul\":11209:11218   */\n      dup2\n        /* \"#utility.yul\":11203:11207   */\n      dup2\n        /* \"#utility.yul\":11199:11219   */\n      sub\n        /* \"#utility.yul\":11195:11196   */\n      0x00\n        /* \"#utility.yul\":11184:11193   */\n      dup4\n        /* \"#utility.yul\":11180:11197   */\n      add\n        /* \"#utility.yul\":11173:11220   */\n      mstore\n        /* \"#utility.yul\":11237:11368   */\n      tag_462\n        /* \"#utility.yul\":11363:11367   */\n      dup2\n        /* \"#utility.yul\":11237:11368   */\n      tag_402\n      jump\t// in\n    tag_462:\n        /* \"#utility.yul\":11229:11368   */\n      swap1\n      pop\n        /* \"#utility.yul\":10956:11375   */\n      swap2\n      swap1\n      pop\n      jump\t// out\n        /* \"#utility.yul\":11381:11800   */\n    tag_148:\n        /* \"#utility.yul\":11547:11551   */\n      0x00\n        /* \"#utility.yul\":11585:11587   */\n      0x20\n        /* \"#utility.yul\":11574:11583   */\n      dup3\n        /* \"#utility.yul\":11570:11588   */\n      add\n        /* \"#utility.yul\":11562:11588   */\n      swap1\n      pop\n        /* \"#utility.yul\":11634:11643   */\n      dup2\n        /* \"#utility.yul\":11628:11632   */\n      dup2\n        /* \"#utility.yul\":11624:11644   */\n      sub\n        /* \"#utility.yul\":11620:11621   */\n      0x00\n        /* \"#utility.yul\":11609:11618   */\n      dup4\n        /* \"#utility.yul\":11605:11622   */\n      add\n        /* \"#utility.yul\":11598:11645   */\n      mstore\n        /* \"#utility.yul\":11662:11793   */\n      tag_464\n        /* \"#utility.yul\":11788:11792   */\n      dup2\n        /* \"#utility.yul\":11662:11793   */\n      tag_407\n      jump\t// in\n    tag_464:\n        /* \"#utility.yul\":11654:11793   */\n      swap1\n      pop\n        /* \"#utility.yul\":11381:11800   */\n      swap2\n      swap1\n      pop\n      jump\t// out\n        /* \"#utility.yul\":11806:12225   */\n    tag_112:\n        /* \"#utility.yul\":11972:11976   */\n      0x00\n        /* \"#utility.yul\":12010:12012   */\n      0x20\n        /* \"#utility.yul\":11999:12008   */\n      dup3\n        /* \"#utility.yul\":11995:12013   */\n      add\n        /* \"#utility.yul\":11987:12013   */\n      swap1\n      pop\n        /* \"#utility.yul\":12059:12068   */\n      dup2\n        /* \"#utility.yul\":12053:12057   */\n      dup2\n        /* \"#utility.yul\":12049:12069   */\n      sub\n        /* \"#utility.yul\":12045:12046   */\n      0x00\n        /* \"#utility.yul\":12034:12043   */\n      dup4\n        /* \"#utility.yul\":12030:12047   */\n      add\n        /* \"#utility.yul\":12023:12070   */\n      mstore\n        /* \"#utility.yul\":12087:12218   */\n      tag_466\n        /* \"#utility.yul\":12213:12217   */\n      dup2\n        /* \"#utility.yul\":12087:12218   */\n      tag_412\n      jump\t// in\n    tag_466:\n        /* \"#utility.yul\":12079:12218   */\n      swap1\n      pop\n        /* \"#utility.yul\":11806:12225   */\n      swap2\n      swap1\n      pop\n      jump\t// out\n        /* \"#utility.yul\":12231:12650   */\n    tag_144:\n        /* \"#utility.yul\":12397:12401   */\n      0x00\n        /* \"#utility.yul\":12435:12437   */\n      0x20\n        /* \"#utility.yul\":12424:12433   */\n      dup3\n        /* \"#utility.yul\":12420:12438   */\n      add\n        /* \"#utility.yul\":12412:12438   */\n      swap1\n      pop\n        /* \"#utility.yul\":12484:12493   */\n      dup2\n        /* \"#utility.yul\":12478:12482   */\n      dup2\n        /* \"#utility.yul\":12474:12494   */\n      sub\n        /* \"#utility.yul\":12470:12471   */\n      0x00\n        /* \"#utility.yul\":12459:12468   */\n      dup4\n        /* \"#utility.yul\":12455:12472   */\n      add\n        /* \"#utility.yul\":12448:12495   */\n      mstore\n        /* \"#utility.yul\":12512:12643   */\n      tag_468\n        /* \"#utility.yul\":12638:12642   */\n      dup2\n        /* \"#utility.yul\":12512:12643   */\n      tag_417\n      jump\t// in\n    tag_468:\n        /* \"#utility.yul\":12504:12643   */\n      swap1\n      pop\n        /* \"#utility.yul\":12231:12650   */\n      swap2\n      swap1\n      pop\n      jump\t// out\n        /* \"#utility.yul\":12656:13075   */\n    tag_226:\n        /* \"#utility.yul\":12822:12826   */\n      0x00\n        /* \"#utility.yul\":12860:12862   */\n      0x20\n        /* \"#utility.yul\":12849:12858   */\n      dup3\n        /* \"#utility.yul\":12845:12863   */\n      add\n        /* \"#utility.yul\":12837:12863   */\n      swap1\n      pop\n        /* \"#utility.yul\":12909:12918   */\n      dup2\n        /* \"#utility.yul\":12903:12907   */\n      dup2\n        /* \"#utility.yul\":12899:12919   */\n      sub\n        /* \"#utility.yul\":12895:12896   */\n      0x00\n        /* \"#utility.yul\":12884:12893   */\n      dup4\n        /* \"#utility.yul\":12880:12897   */\n      add\n        /* \"#utility.yul\":12873:12920   */\n      mstore\n        /* \"#utility.yul\":12937:13068   */\n      tag_470\n        /* \"#utility.yul\":13063:13067   */\n      dup2\n        /* \"#utility.yul\":12937:13068   */\n      tag_422\n      jump\t// in\n    tag_470:\n        /* \"#utility.yul\":12929:13068   */\n      swap1\n      pop\n        /* \"#utility.yul\":12656:13075   */\n      swap2\n      swap1\n      pop\n      jump\t// out\n        /* \"#utility.yul\":13081:13500   */\n    tag_93:\n        /* \"#utility.yul\":13247:13251   */\n      0x00\n        /* \"#utility.yul\":13285:13287   */\n      0x20\n        /* \"#utility.yul\":13274:13283   */\n      dup3\n        /* \"#utility.yul\":13270:13288   */\n      add\n        /* \"#utility.yul\":13262:13288   */\n      swap1\n      pop\n        /* \"#utility.yul\":13334:13343   */\n      dup2\n        /* \"#utility.yul\":13328:13332   */\n      dup2\n        /* \"#utility.yul\":13324:13344   */\n      sub\n        /* \"#utility.yul\":13320:13321   */\n      0x00\n        /* \"#utility.yul\":13309:13318   */\n      dup4\n        /* \"#utility.yul\":13305:13322   */\n      add\n        /* \"#utility.yul\":13298:13345   */\n      mstore\n        /* \"#utility.yul\":13362:13493   */\n      tag_472\n        /* \"#utility.yul\":13488:13492   */\n      dup2\n        /* \"#utility.yul\":13362:13493   */\n      tag_427\n      jump\t// in\n    tag_472:\n        /* \"#utility.yul\":13354:13493   */\n      swap1\n      pop\n        /* \"#utility.yul\":13081:13500   */\n      swap2\n      swap1\n      pop\n      jump\t// out\n        /* \"#utility.yul\":13506:13925   */\n    tag_116:\n        /* \"#utility.yul\":13672:13676   */\n      0x00\n        /* \"#utility.yul\":13710:13712   */\n      0x20\n        /* \"#utility.yul\":13699:13708   */\n      dup3\n        /* \"#utility.yul\":13695:13713   */\n      add\n        /* \"#utility.yul\":13687:13713   */\n      swap1\n      pop\n        /* \"#utility.yul\":13759:13768   */\n      dup2\n        /* \"#utility.yul\":13753:13757   */\n      dup2\n        /* \"#utility.yul\":13749:13769   */\n      sub\n        /* \"#utility.yul\":13745:13746   */\n      0x00\n        /* \"#utility.yul\":13734:13743   */\n      dup4\n        /* \"#utility.yul\":13730:13747   */\n      add\n        /* \"#utility.yul\":13723:13770   */\n      mstore\n        /* \"#utility.yul\":13787:13918   */\n      tag_474\n        /* \"#utility.yul\":13913:13917   */\n      dup2\n        /* \"#utility.yul\":13787:13918   */\n      tag_437\n      jump\t// in\n    tag_474:\n        /* \"#utility.yul\":13779:13918   */\n      swap1\n      pop\n        /* \"#utility.yul\":13506:13925   */\n      swap2\n      swap1\n      pop\n      jump\t// out\n        /* \"#utility.yul\":13931:14153   */\n    tag_21:\n        /* \"#utility.yul\":14024:14028   */\n      0x00\n        /* \"#utility.yul\":14062:14064   */\n      0x20\n        /* \"#utility.yul\":14051:14060   */\n      dup3\n        /* \"#utility.yul\":14047:14065   */\n      add\n        /* \"#utility.yul\":14039:14065   */\n      swap1\n      pop\n        /* \"#utility.yul\":14075:14146   */\n      tag_476\n        /* \"#utility.yul\":14143:14144   */\n      0x00\n        /* \"#utility.yul\":14132:14141   */\n      dup4\n        /* \"#utility.yul\":14128:14145   */\n      add\n        /* \"#utility.yul\":14119:14125   */\n      dup5\n        /* \"#utility.yul\":14075:14146   */\n      tag_442\n      jump\t// in\n    tag_476:\n        /* \"#utility.yul\":13931:14153   */\n      swap3\n      swap2\n      pop\n      pop\n      jump\t// out\n        /* \"#utility.yul\":14159:14288   */\n    tag_312:\n        /* \"#utility.yul\":14193:14199   */\n      0x00\n        /* \"#utility.yul\":14220:14240   */\n      tag_478\n      tag_479\n      jump\t// in\n    tag_478:\n        /* \"#utility.yul\":14210:14240   */\n      swap1\n      pop\n        /* \"#utility.yul\":14249:14282   */\n      tag_480\n        /* \"#utility.yul\":14277:14281   */\n      dup3\n        /* \"#utility.yul\":14269:14275   */\n      dup3\n        /* \"#utility.yul\":14249:14282   */\n      tag_481\n      jump\t// in\n    tag_480:\n        /* \"#utility.yul\":14159:14288   */\n      swap2\n      swap1\n      pop\n      jump\t// out\n        /* \"#utility.yul\":14294:14369   */\n    tag_479:\n        /* \"#utility.yul\":14327:14333   */\n      0x00\n        /* \"#utility.yul\":14360:14362   */\n      0x40\n        /* \"#utility.yul\":14354:14363   */\n      mload\n        /* \"#utility.yul\":14344:14363   */\n      swap1\n      pop\n        /* \"#utility.yul\":14294:14369   */\n      swap1\n      jump\t// out\n        /* \"#utility.yul\":14375:14683   */\n    tag_311:\n        /* \"#utility.yul\":14437:14441   */\n      0x00\n        /* \"#utility.yul\":14527:14545   */\n      0xffffffffffffffff\n        /* \"#utility.yul\":14519:14525   */\n      dup3\n        /* \"#utility.yul\":14516:14546   */\n      gt\n        /* \"#utility.yul\":14513:14569   */\n      iszero\n      tag_484\n      jumpi\n        /* \"#utility.yul\":14549:14567   */\n      tag_485\n      tag_486\n      jump\t// in\n    tag_485:\n        /* \"#utility.yul\":14513:14569   */\n    tag_484:\n        /* \"#utility.yul\":14587:14616   */\n      tag_487\n        /* \"#utility.yul\":14609:14615   */\n      dup3\n        /* \"#utility.yul\":14587:14616   */\n      tag_390\n      jump\t// in\n    tag_487:\n        /* \"#utility.yul\":14579:14616   */\n      swap1\n      pop\n        /* \"#utility.yul\":14671:14675   */\n      0x20\n        /* \"#utility.yul\":14665:14669   */\n      dup2\n        /* \"#utility.yul\":14661:14676   */\n      add\n        /* \"#utility.yul\":14653:14676   */\n      swap1\n      pop\n        /* \"#utility.yul\":14375:14683   */\n      swap2\n      swap1\n      pop\n      jump\t// out\n        /* \"#utility.yul\":14689:14829   */\n    tag_377:\n        /* \"#utility.yul\":14737:14741   */\n      0x00\n        /* \"#utility.yul\":14760:14763   */\n      dup2\n        /* \"#utility.yul\":14752:14763   */\n      swap1\n      pop\n        /* \"#utility.yul\":14783:14786   */\n      dup2\n        /* \"#utility.yul\":14780:14781   */\n      0x00\n        /* \"#utility.yul\":14773:14787   */\n      mstore\n        /* \"#utility.yul\":14817:14821   */\n      0x20\n        /* \"#utility.yul\":14814:14815   */\n      0x00\n        /* \"#utility.yul\":14804:14822   */\n      keccak256\n        /* \"#utility.yul\":14796:14822   */\n      swap1\n      pop\n        /* \"#utility.yul\":14689:14829   */\n      swap2\n      swap1\n      pop\n      jump\t// out\n        /* \"#utility.yul\":14835:14979   */\n    tag_364:\n        /* \"#utility.yul\":14887:14891   */\n      0x00\n        /* \"#utility.yul\":14910:14913   */\n      dup2\n        /* \"#utility.yul\":14902:14913   */\n      swap1\n      pop\n        /* \"#utility.yul\":14933:14936   */\n      dup2\n        /* \"#utility.yul\":14930:14931   */\n      0x00\n        /* \"#utility.yul\":14923:14937   */\n      mstore\n        /* \"#utility.yul\":14967:14971   */\n      0x20\n        /* \"#utility.yul\":14964:14965   */\n      0x00\n        /* \"#utility.yul\":14954:14972   */\n      keccak256\n        /* \"#utility.yul\":14946:14972   */\n      swap1\n      pop\n        /* \"#utility.yul\":14835:14979   */\n      swap2\n      swap1\n      pop\n      jump\t// out\n        /* \"#utility.yul\":14985:15084   */\n    tag_384:\n        /* \"#utility.yul\":15037:15043   */\n      0x00\n        /* \"#utility.yul\":15071:15076   */\n      dup2\n        /* \"#utility.yul\":15065:15077   */\n      mload\n        /* \"#utility.yul\":15055:15077   */\n      swap1\n      pop\n        /* \"#utility.yul\":14985:15084   */\n      swap2\n      swap1\n      pop\n      jump\t// out\n        /* \"#utility.yul\":15090:15258   */\n    tag_372:\n        /* \"#utility.yul\":15173:15184   */\n      0x00\n        /* \"#utility.yul\":15207:15213   */\n      dup3\n        /* \"#utility.yul\":15202:15205   */\n      dup3\n        /* \"#utility.yul\":15195:15214   */\n      mstore\n        /* \"#utility.yul\":15247:15251   */\n      0x20\n        /* \"#utility.yul\":15242:15245   */\n      dup3\n        /* \"#utility.yul\":15238:15252   */\n      add\n        /* \"#utility.yul\":15223:15252   */\n      swap1\n      pop\n        /* \"#utility.yul\":15090:15258   */\n      swap3\n      swap2\n      pop\n      pop\n      jump\t// out\n        /* \"#utility.yul\":15264:15411   */\n    tag_359:\n        /* \"#utility.yul\":15365:15376   */\n      0x00\n        /* \"#utility.yul\":15402:15405   */\n      dup2\n        /* \"#utility.yul\":15387:15405   */\n      swap1\n      pop\n        /* \"#utility.yul\":15264:15411   */\n      swap3\n      swap2\n      pop\n      pop\n      jump\t// out\n        /* \"#utility.yul\":15417:15586   */\n    tag_386:\n        /* \"#utility.yul\":15501:15512   */\n      0x00\n        /* \"#utility.yul\":15535:15541   */\n      dup3\n        /* \"#utility.yul\":15530:15533   */\n      dup3\n        /* \"#utility.yul\":15523:15542   */\n      mstore\n        /* \"#utility.yul\":15575:15579   */\n      0x20\n        /* \"#utility.yul\":15570:15573   */\n      dup3\n        /* \"#utility.yul\":15566:15580   */\n      add\n        /* \"#utility.yul\":15551:15580   */\n      swap1\n      pop\n        /* \"#utility.yul\":15417:15586   */\n      swap3\n      swap2\n      pop\n      pop\n      jump\t// out\n        /* \"#utility.yul\":15592:15740   */\n    tag_395:\n        /* \"#utility.yul\":15694:15705   */\n      0x00\n        /* \"#utility.yul\":15731:15734   */\n      dup2\n        /* \"#utility.yul\":15716:15734   */\n      swap1\n      pop\n        /* \"#utility.yul\":15592:15740   */\n      swap3\n      swap2\n      pop\n      pop\n      jump\t// out\n        /* \"#utility.yul\":15746:16051   */\n    tag_75:\n        /* \"#utility.yul\":15786:15789   */\n      0x00\n        /* \"#utility.yul\":15805:15825   */\n      tag_496\n        /* \"#utility.yul\":15823:15824   */\n      dup3\n        /* \"#utility.yul\":15805:15825   */\n      tag_445\n      jump\t// in\n    tag_496:\n        /* \"#utility.yul\":15800:15825   */\n      swap2\n      pop\n        /* \"#utility.yul\":15839:15859   */\n      tag_497\n        /* \"#utility.yul\":15857:15858   */\n      dup4\n        /* \"#utility.yul\":15839:15859   */\n      tag_445\n      jump\t// in\n    tag_497:\n        /* \"#utility.yul\":15834:15859   */\n      swap3\n      pop\n        /* \"#utility.yul\":15993:15994   */\n      dup3\n        /* \"#utility.yul\":15925:15991   */\n      0xffffffffffffffffffffffffffffffffffffffffffffffffffffffffffffffff\n        /* \"#utility.yul\":15921:15995   */\n      sub\n        /* \"#utility.yul\":15918:15919   */\n      dup3\n        /* \"#utility.yul\":15915:15996   */\n      gt\n        /* \"#utility.yul\":15912:16019   */\n      iszero\n      tag_498\n      jumpi\n        /* \"#utility.yul\":15999:16017   */\n      tag_499\n      tag_500\n      jump\t// in\n    tag_499:\n        /* \"#utility.yul\":15912:16019   */\n    tag_498:\n        /* \"#utility.yul\":16043:16044   */\n      dup3\n        /* \"#utility.yul\":16040:16041   */\n      dup3\n        /* \"#utility.yul\":16036:16045   */\n      add\n        /* \"#utility.yul\":16029:16045   */\n      swap1\n      pop\n        /* \"#utility.yul\":15746:16051   */\n      swap3\n      swap2\n      pop\n      pop\n      jump\t// out\n        /* \"#utility.yul\":16057:16242   */\n    tag_86:\n        /* \"#utility.yul\":16097:16098   */\n      0x00\n        /* \"#utility.yul\":16114:16134   */\n      tag_502\n        /* \"#utility.yul\":16132:16133   */\n      dup3\n        /* \"#utility.yul\":16114:16134   */\n      tag_445\n      jump\t// in\n    tag_502:\n        /* \"#utility.yul\":16109:16134   */\n      swap2\n      pop\n        /* \"#utility.yul\":16148:16168   */\n      tag_503\n        /* \"#utility.yul\":16166:16167   */\n      dup4\n        /* \"#utility.yul\":16148:16168   */\n      tag_445\n      jump\t// in\n    tag_503:\n        /* \"#utility.yul\":16143:16168   */\n      swap3\n      pop\n        /* \"#utility.yul\":16187:16188   */\n      dup3\n        /* \"#utility.yul\":16177:16212   */\n      tag_504\n      jumpi\n        /* \"#utility.yul\":16192:16210   */\n      tag_505\n      tag_506\n      jump\t// in\n    tag_505:\n        /* \"#utility.yul\":16177:16212   */\n    tag_504:\n        /* \"#utility.yul\":16234:16235   */\n      dup3\n        /* \"#utility.yul\":16231:16232   */\n      dup3\n        /* \"#utility.yul\":16227:16236   */\n      div\n        /* \"#utility.yul\":16222:16236   */\n      swap1\n      pop\n        /* \"#utility.yul\":16057:16242   */\n      swap3\n      swap2\n      pop\n      pop\n      jump\t// out\n        /* \"#utility.yul\":16248:16439   */\n    tag_129:\n        /* \"#utility.yul\":16288:16292   */\n      0x00\n        /* \"#utility.yul\":16308:16328   */\n      tag_508\n        /* \"#utility.yul\":16326:16327   */\n      dup3\n        /* \"#utility.yul\":16308:16328   */\n      tag_445\n      jump\t// in\n    tag_508:\n        /* \"#utility.yul\":16303:16328   */\n      swap2\n      pop\n        /* \"#utility.yul\":16342:16362   */\n      tag_509\n        /* \"#utility.yul\":16360:16361   */\n      dup4\n        /* \"#utility.yul\":16342:16362   */\n      tag_445\n      jump\t// in\n    tag_509:\n        /* \"#utility.yul\":16337:16362   */\n      swap3\n      pop\n        /* \"#utility.yul\":16381:16382   */\n      dup3\n        /* \"#utility.yul\":16378:16379   */\n      dup3\n        /* \"#utility.yul\":16375:16383   */\n      lt\n        /* \"#utility.yul\":16372:16406   */\n      iszero\n      tag_510\n      jumpi\n        /* \"#utility.yul\":16386:16404   */\n      tag_511\n      tag_500\n      jump\t// in\n    tag_511:\n        /* \"#utility.yul\":16372:16406   */\n    tag_510:\n        /* \"#utility.yul\":16431:16432   */\n      dup3\n        /* \"#utility.yul\":16428:16429   */\n      dup3\n        /* \"#utility.yul\":16424:16433   */\n      sub\n        /* \"#utility.yul\":16416:16433   */\n      swap1\n      pop\n        /* \"#utility.yul\":16248:16439   */\n      swap3\n      swap2\n      pop\n      pop\n      jump\t// out\n        /* \"#utility.yul\":16445:16541   */\n    tag_350:\n        /* \"#utility.yul\":16482:16489   */\n      0x00\n        /* \"#utility.yul\":16511:16535   */\n      tag_513\n        /* \"#utility.yul\":16529:16534   */\n      dup3\n        /* \"#utility.yul\":16511:16535   */\n      tag_514\n      jump\t// in\n    tag_513:\n        /* \"#utility.yul\":16500:16535   */\n      swap1\n      pop\n        /* \"#utility.yul\":16445:16541   */\n      swap2\n      swap1\n      pop\n      jump\t// out\n        /* \"#utility.yul\":16547:16637   */\n    tag_354:\n        /* \"#utility.yul\":16581:16588   */\n      0x00\n        /* \"#utility.yul\":16624:16629   */\n      dup2\n        /* \"#utility.yul\":16617:16630   */\n      iszero\n        /* \"#utility.yul\":16610:16631   */\n      iszero\n        /* \"#utility.yul\":16599:16631   */\n      swap1\n      pop\n        /* \"#utility.yul\":16547:16637   */\n      swap2\n      swap1\n      pop\n      jump\t// out\n        /* \"#utility.yul\":16643:16769   */\n    tag_514:\n        /* \"#utility.yul\":16680:16687   */\n      0x00\n        /* \"#utility.yul\":16720:16762   */\n      0xffffffffffffffffffffffffffffffffffffffff\n        /* \"#utility.yul\":16713:16718   */\n      dup3\n        /* \"#utility.yul\":16709:16763   */\n      and\n        /* \"#utility.yul\":16698:16763   */\n      swap1\n      pop\n        /* \"#utility.yul\":16643:16769   */\n      swap2\n      swap1\n      pop\n      jump\t// out\n        /* \"#utility.yul\":16775:16852   */\n    tag_445:\n        /* \"#utility.yul\":16812:16819   */\n      0x00\n        /* \"#utility.yul\":16841:16846   */\n      dup2\n        /* \"#utility.yul\":16830:16846   */\n      swap1\n      pop\n        /* \"#utility.yul\":16775:16852   */\n      swap2\n      swap1\n      pop\n      jump\t// out\n        /* \"#utility.yul\":16858:17012   */\n    tag_317:\n        /* \"#utility.yul\":16942:16948   */\n      dup3\n        /* \"#utility.yul\":16937:16940   */\n      dup2\n        /* \"#utility.yul\":16932:16935   */\n      dup4\n        /* \"#utility.yul\":16919:16949   */\n      calldatacopy\n        /* \"#utility.yul\":17004:17005   */\n      0x00\n        /* \"#utility.yul\":16995:17001   */\n      dup4\n        /* \"#utility.yul\":16990:16993   */\n      dup4\n        /* \"#utility.yul\":16986:17002   */\n      add\n        /* \"#utility.yul\":16979:17006   */\n      mstore\n        /* \"#utility.yul\":16858:17012   */\n      pop\n      pop\n      pop\n      jump\t// out\n        /* \"#utility.yul\":17018:17325   */\n    tag_388:\n        /* \"#utility.yul\":17086:17087   */\n      0x00\n        /* \"#utility.yul\":17096:17209   */\n    tag_520:\n        /* \"#utility.yul\":17110:17116   */\n      dup4\n        /* \"#utility.yul\":17107:17108   */\n      dup2\n        /* \"#utility.yul\":17104:17117   */\n      lt\n        /* \"#utility.yul\":17096:17209   */\n      iszero\n      tag_522\n      jumpi\n        /* \"#utility.yul\":17195:17196   */\n      dup1\n        /* \"#utility.yul\":17190:17193   */\n      dup3\n        /* \"#utility.yul\":17186:17197   */\n      add\n        /* \"#utility.yul\":17180:17198   */\n      mload\n        /* \"#utility.yul\":17176:17177   */\n      dup2\n        /* \"#utility.yul\":17171:17174   */\n      dup5\n        /* \"#utility.yul\":17167:17178   */\n      add\n        /* \"#utility.yul\":17160:17199   */\n      mstore\n        /* \"#utility.yul\":17132:17134   */\n      0x20\n        /* \"#utility.yul\":17129:17130   */\n      dup2\n        /* \"#utility.yul\":17125:17135   */\n      add\n        /* \"#utility.yul\":17120:17135   */\n      swap1\n      pop\n        /* \"#utility.yul\":17096:17209   */\n      jump(tag_520)\n    tag_522:\n        /* \"#utility.yul\":17227:17233   */\n      dup4\n        /* \"#utility.yul\":17224:17225   */\n      dup2\n        /* \"#utility.yul\":17221:17234   */\n      gt\n        /* \"#utility.yul\":17218:17319   */\n      iszero\n      tag_523\n      jumpi\n        /* \"#utility.yul\":17307:17308   */\n      0x00\n        /* \"#utility.yul\":17298:17304   */\n      dup5\n        /* \"#utility.yul\":17293:17296   */\n      dup5\n        /* \"#utility.yul\":17289:17305   */\n      add\n        /* \"#utility.yul\":17282:17309   */\n      mstore\n        /* \"#utility.yul\":17218:17319   */\n    tag_523:\n        /* \"#utility.yul\":17067:17325   */\n      pop\n        /* \"#utility.yul\":17018:17325   */\n      pop\n      pop\n      pop\n      jump\t// out\n        /* \"#utility.yul\":17331:17651   */\n    tag_161:\n        /* \"#utility.yul\":17375:17381   */\n      0x00\n        /* \"#utility.yul\":17412:17413   */\n      0x02\n        /* \"#utility.yul\":17406:17410   */\n      dup3\n        /* \"#utility.yul\":17402:17414   */\n      div\n        /* \"#utility.yul\":17392:17414   */\n      swap1\n      pop\n        /* \"#utility.yul\":17459:17460   */\n      0x01\n        /* \"#utility.yul\":17453:17457   */\n      dup3\n        /* \"#utility.yul\":17449:17461   */\n      and\n        /* \"#utility.yul\":17480:17498   */\n      dup1\n        /* \"#utility.yul\":17470:17551   */\n      tag_525\n      jumpi\n        /* \"#utility.yul\":17536:17540   */\n      0x7f\n        /* \"#utility.yul\":17528:17534   */\n      dup3\n        /* \"#utility.yul\":17524:17541   */\n      and\n        /* \"#utility.yul\":17514:17541   */\n      swap2\n      pop\n        /* \"#utility.yul\":17470:17551   */\n    tag_525:\n        /* \"#utility.yul\":17598:17600   */\n      0x20\n        /* \"#utility.yul\":17590:17596   */\n      dup3\n        /* \"#utility.yul\":17587:17601   */\n      lt\n        /* \"#utility.yul\":17567:17585   */\n      dup2\n        /* \"#utility.yul\":17564:17602   */\n      eq\n        /* \"#utility.yul\":17561:17645   */\n      iszero\n      tag_526\n      jumpi\n        /* \"#utility.yul\":17617:17635   */\n      tag_527\n      tag_528\n      jump\t// in\n    tag_527:\n        /* \"#utility.yul\":17561:17645   */\n    tag_526:\n        /* \"#utility.yul\":17382:17651   */\n      pop\n        /* \"#utility.yul\":17331:17651   */\n      swap2\n      swap1\n      pop\n      jump\t// out\n        /* \"#utility.yul\":17657:17938   */\n    tag_481:\n        /* \"#utility.yul\":17740:17767   */\n      tag_530\n        /* \"#utility.yul\":17762:17766   */\n      dup3\n        /* \"#utility.yul\":17740:17767   */\n      tag_390\n      jump\t// in\n    tag_530:\n        /* \"#utility.yul\":17732:17738   */\n      dup2\n        /* \"#utility.yul\":17728:17768   */\n      add\n        /* \"#utility.yul\":17870:17876   */\n      dup2\n        /* \"#utility.yul\":17858:17868   */\n      dup2\n        /* \"#utility.yul\":17855:17877   */\n      lt\n        /* \"#utility.yul\":17834:17852   */\n      0xffffffffffffffff\n        /* \"#utility.yul\":17822:17832   */\n      dup3\n        /* \"#utility.yul\":17819:17853   */\n      gt\n        /* \"#utility.yul\":17816:17878   */\n      or\n        /* \"#utility.yul\":17813:17901   */\n      iszero\n      tag_531\n      jumpi\n        /* \"#utility.yul\":17881:17899   */\n      tag_532\n      tag_486\n      jump\t// in\n    tag_532:\n        /* \"#utility.yul\":17813:17901   */\n    tag_531:\n        /* \"#utility.yul\":17921:17931   */\n      dup1\n        /* \"#utility.yul\":17917:17919   */\n      0x40\n        /* \"#utility.yul\":17910:17932   */\n      mstore\n        /* \"#utility.yul\":17700:17938   */\n      pop\n        /* \"#utility.yul\":17657:17938   */\n      pop\n      pop\n      jump\t// out\n        /* \"#utility.yul\":17944:18177   */\n    tag_205:\n        /* \"#utility.yul\":17983:17986   */\n      0x00\n        /* \"#utility.yul\":18006:18030   */\n      tag_534\n        /* \"#utility.yul\":18024:18029   */\n      dup3\n        /* \"#utility.yul\":18006:18030   */\n      tag_445\n      jump\t// in\n    tag_534:\n        /* \"#utility.yul\":17997:18030   */\n      swap2\n      pop\n        /* \"#utility.yul\":18052:18118   */\n      0xffffffffffffffffffffffffffffffffffffffffffffffffffffffffffffffff\n        /* \"#utility.yul\":18045:18050   */\n      dup3\n        /* \"#utility.yul\":18042:18119   */\n      eq\n        /* \"#utility.yul\":18039:18142   */\n      iszero\n      tag_535\n      jumpi\n        /* \"#utility.yul\":18122:18140   */\n      tag_536\n      tag_500\n      jump\t// in\n    tag_536:\n        /* \"#utility.yul\":18039:18142   */\n    tag_535:\n        /* \"#utility.yul\":18169:18170   */\n      0x01\n        /* \"#utility.yul\":18162:18167   */\n      dup3\n        /* \"#utility.yul\":18158:18171   */\n      add\n        /* \"#utility.yul\":18151:18171   */\n      swap1\n      pop\n        /* \"#utility.yul\":17944:18177   */\n      swap2\n      swap1\n      pop\n      jump\t// out\n        /* \"#utility.yul\":18183:18363   */\n    tag_500:\n        /* \"#utility.yul\":18231:18308   */\n      0x4e487b7100000000000000000000000000000000000000000000000000000000\n        /* \"#utility.yul\":18228:18229   */\n      0x00\n        /* \"#utility.yul\":18221:18309   */\n      mstore\n        /* \"#utility.yul\":18328:18332   */\n      0x11\n        /* \"#utility.yul\":18325:18326   */\n      0x04\n        /* \"#utility.yul\":18318:18333   */\n      mstore\n        /* \"#utility.yul\":18352:18356   */\n      0x24\n        /* \"#utility.yul\":18349:18350   */\n      0x00\n        /* \"#utility.yul\":18342:18357   */\n      revert\n        /* \"#utility.yul\":18369:18549   */\n    tag_506:\n        /* \"#utility.yul\":18417:18494   */\n      0x4e487b7100000000000000000000000000000000000000000000000000000000\n        /* \"#utility.yul\":18414:18415   */\n      0x00\n        /* \"#utility.yul\":18407:18495   */\n      mstore\n        /* \"#utility.yul\":18514:18518   */\n      0x12\n        /* \"#utility.yul\":18511:18512   */\n      0x04\n        /* \"#utility.yul\":18504:18519   */\n      mstore\n        /* \"#utility.yul\":18538:18542   */\n      0x24\n        /* \"#utility.yul\":18535:18536   */\n      0x00\n        /* \"#utility.yul\":18528:18543   */\n      revert\n        /* \"#utility.yul\":18555:18735   */\n    tag_528:\n        /* \"#utility.yul\":18603:18680   */\n      0x4e487b7100000000000000000000000000000000000000000000000000000000\n        /* \"#utility.yul\":18600:18601   */\n      0x00\n        /* \"#utility.yul\":18593:18681   */\n      mstore\n        /* \"#utility.yul\":18700:18704   */\n      0x22\n        /* \"#utility.yul\":18697:18698   */\n      0x04\n        /* \"#utility.yul\":18690:18705   */\n      mstore\n        /* \"#utility.yul\":18724:18728   */\n      0x24\n        /* \"#utility.yul\":18721:18722   */\n      0x00\n        /* \"#utility.yul\":18714:18729   */\n      revert\n        /* \"#utility.yul\":18741:18921   */\n    tag_166:\n        /* \"#utility.yul\":18789:18866   */\n      0x4e487b7100000000000000000000000000000000000000000000000000000000\n        /* \"#utility.yul\":18786:18787   */\n      0x00\n        /* \"#utility.yul\":18779:18867   */\n      mstore\n        /* \"#utility.yul\":18886:18890   */\n      0x31\n        /* \"#utility.yul\":18883:18884   */\n      0x04\n        /* \"#utility.yul\":18876:18891   */\n      mstore\n        /* \"#utility.yul\":18910:18914   */\n      0x24\n        /* \"#utility.yul\":18907:18908   */\n      0x00\n        /* \"#utility.yul\":18900:18915   */\n      revert\n        /* \"#utility.yul\":18927:19107   */\n    tag_154:\n        /* \"#utility.yul\":18975:19052   */\n      0x4e487b7100000000000000000000000000000000000000000000000000000000\n        /* \"#utility.yul\":18972:18973   */\n      0x00\n        /* \"#utility.yul\":18965:19053   */\n      mstore\n        /* \"#utility.yul\":19072:19076   */\n      0x32\n        /* \"#utility.yul\":19069:19070   */\n      0x04\n        /* \"#utility.yul\":19062:19077   */\n      mstore\n        /* \"#utility.yul\":19096:19100   */\n      0x24\n        /* \"#utility.yul\":19093:19094   */\n      0x00\n        /* \"#utility.yul\":19086:19101   */\n      revert\n        /* \"#utility.yul\":19113:19293   */\n    tag_486:\n        /* \"#utility.yul\":19161:19238   */\n      0x4e487b7100000000000000000000000000000000000000000000000000000000\n        /* \"#utility.yul\":19158:19159   */\n      0x00\n        /* \"#utility.yul\":19151:19239   */\n      mstore\n        /* \"#utility.yul\":19258:19262   */\n      0x41\n        /* \"#utility.yul\":19255:19256   */\n      0x04\n        /* \"#utility.yul\":19248:19263   */\n      mstore\n        /* \"#utility.yul\":19282:19286   */\n      0x24\n        /* \"#utility.yul\":19279:19280   */\n      0x00\n        /* \"#utility.yul\":19272:19287   */\n      revert\n        /* \"#utility.yul\":19299:19416   */\n    tag_322:\n        /* \"#utility.yul\":19408:19409   */\n      0x00\n        /* \"#utility.yul\":19405:19406   */\n      dup1\n        /* \"#utility.yul\":19398:19410   */\n      revert\n        /* \"#utility.yul\":19422:19539   */\n    tag_315:\n        /* \"#utility.yul\":19531:19532   */\n      0x00\n        /* \"#utility.yul\":19528:19529   */\n      dup1\n        /* \"#utility.yul\":19521:19533   */\n      revert\n        /* \"#utility.yul\":19545:19662   */\n    tag_334:\n        /* \"#utility.yul\":19654:19655   */\n      0x00\n        /* \"#utility.yul\":19651:19652   */\n      dup1\n        /* \"#utility.yul\":19644:19656   */\n      revert\n        /* \"#utility.yul\":19668:19785   */\n    tag_331:\n        /* \"#utility.yul\":19777:19778   */\n      0x00\n        /* \"#utility.yul\":19774:19775   */\n      dup1\n        /* \"#utility.yul\":19767:19779   */\n      revert\n        /* \"#utility.yul\":19791:19893   */\n    tag_390:\n        /* \"#utility.yul\":19832:19838   */\n      0x00\n        /* \"#utility.yul\":19883:19885   */\n      0x1f\n        /* \"#utility.yul\":19879:19886   */\n      not\n        /* \"#utility.yul\":19874:19876   */\n      0x1f\n        /* \"#utility.yul\":19867:19872   */\n      dup4\n        /* \"#utility.yul\":19863:19877   */\n      add\n        /* \"#utility.yul\":19859:19887   */\n      and\n        /* \"#utility.yul\":19849:19887   */\n      swap1\n      pop\n        /* \"#utility.yul\":19791:19893   */\n      swap2\n      swap1\n      pop\n      jump\t// out\n        /* \"#utility.yul\":19899:20127   */\n    tag_401:\n        /* \"#utility.yul\":20039:20073   */\n      0x54686973206163636f756e74206861736e277420707572636861736564207468\n        /* \"#utility.yul\":20035:20036   */\n      0x00\n        /* \"#utility.yul\":20027:20033   */\n      dup3\n        /* \"#utility.yul\":20023:20037   */\n      add\n        /* \"#utility.yul\":20016:20074   */\n      mstore\n        /* \"#utility.yul\":20108:20119   */\n      0x652070726f647563740000000000000000000000000000000000000000000000\n        /* \"#utility.yul\":20103:20105   */\n      0x20\n        /* \"#utility.yul\":20095:20101   */\n      dup3\n        /* \"#utility.yul\":20091:20106   */\n      add\n        /* \"#utility.yul\":20084:20120   */\n      mstore\n        /* \"#utility.yul\":19899:20127   */\n      pop\n      jump\t// out\n        /* \"#utility.yul\":20133:20306   */\n    tag_406:\n        /* \"#utility.yul\":20273:20298   */\n      0x4661696c656420746f2072657475726e206368616e6765000000000000000000\n        /* \"#utility.yul\":20269:20270   */\n      0x00\n        /* \"#utility.yul\":20261:20267   */\n      dup3\n        /* \"#utility.yul\":20257:20271   */\n      add\n        /* \"#utility.yul\":20250:20299   */\n      mstore\n        /* \"#utility.yul\":20133:20306   */\n      pop\n      jump\t// out\n        /* \"#utility.yul\":20312:20477   */\n    tag_411:\n        /* \"#utility.yul\":20452:20469   */\n      0x436865636b207468652070726963650000000000000000000000000000000000\n        /* \"#utility.yul\":20448:20449   */\n      0x00\n        /* \"#utility.yul\":20440:20446   */\n      dup3\n        /* \"#utility.yul\":20436:20450   */\n      add\n        /* \"#utility.yul\":20429:20470   */\n      mstore\n        /* \"#utility.yul\":20312:20477   */\n      pop\n      jump\t// out\n        /* \"#utility.yul\":20483:20655   */\n    tag_416:\n        /* \"#utility.yul\":20623:20647   */\n      0x546865206e616d65206973206475706c69636174656400000000000000000000\n        /* \"#utility.yul\":20619:20620   */\n      0x00\n        /* \"#utility.yul\":20611:20617   */\n      dup3\n        /* \"#utility.yul\":20607:20621   */\n      add\n        /* \"#utility.yul\":20600:20648   */\n      mstore\n        /* \"#utility.yul\":20483:20655   */\n      pop\n      jump\t// out\n        /* \"#utility.yul\":20661:20825   */\n    tag_421:\n        /* \"#utility.yul\":20801:20817   */\n      0x436865636b20746865206e616d65000000000000000000000000000000000000\n        /* \"#utility.yul\":20797:20798   */\n      0x00\n        /* \"#utility.yul\":20789:20795   */\n      dup3\n        /* \"#utility.yul\":20785:20799   */\n      add\n        /* \"#utility.yul\":20778:20818   */\n      mstore\n        /* \"#utility.yul\":20661:20825   */\n      pop\n      jump\t// out\n        /* \"#utility.yul\":20831:21001   */\n    tag_426:\n        /* \"#utility.yul\":20971:20993   */\n      0x4661696c656420746f20726566756e6420666565000000000000000000000000\n        /* \"#utility.yul\":20967:20968   */\n      0x00\n        /* \"#utility.yul\":20959:20965   */\n      dup3\n        /* \"#utility.yul\":20955:20969   */\n      add\n        /* \"#utility.yul\":20948:20994   */\n      mstore\n        /* \"#utility.yul\":20831:21001   */\n      pop\n      jump\t// out\n        /* \"#utility.yul\":21007:21170   */\n    tag_431:\n        /* \"#utility.yul\":21147:21162   */\n      0x4661696c656420746f2070617900000000000000000000000000000000000000\n        /* \"#utility.yul\":21143:21144   */\n      0x00\n        /* \"#utility.yul\":21135:21141   */\n      dup3\n        /* \"#utility.yul\":21131:21145   */\n      add\n        /* \"#utility.yul\":21124:21163   */\n      mstore\n        /* \"#utility.yul\":21007:21170   */\n      pop\n      jump\t// out\n        /* \"#utility.yul\":21176:21290   */\n    tag_436:\n      pop\n      jump\t// out\n        /* \"#utility.yul\":21296:21459   */\n    tag_441:\n        /* \"#utility.yul\":21436:21451   */\n      0x436865636b207468652066656500000000000000000000000000000000000000\n        /* \"#utility.yul\":21432:21433   */\n      0x00\n        /* \"#utility.yul\":21424:21430   */\n      dup3\n        /* \"#utility.yul\":21420:21434   */\n      add\n        /* \"#utility.yul\":21413:21452   */\n      mstore\n        /* \"#utility.yul\":21296:21459   */\n      pop\n      jump\t// out\n        /* \"#utility.yul\":21465:21587   */\n    tag_327:\n        /* \"#utility.yul\":21538:21562   */\n      tag_558\n        /* \"#utility.yul\":21556:21561   */\n      dup2\n        /* \"#utility.yul\":21538:21562   */\n      tag_445\n      jump\t// in\n    tag_558:\n        /* \"#utility.yul\":21531:21536   */\n      dup2\n        /* \"#utility.yul\":21528:21563   */\n      eq\n        /* \"#utility.yul\":21518:21581   */\n      tag_559\n      jumpi\n        /* \"#utility.yul\":21577:21578   */\n      0x00\n        /* \"#utility.yul\":21574:21575   */\n      dup1\n        /* \"#utility.yul\":21567:21579   */\n      revert\n        /* \"#utility.yul\":21518:21581   */\n    tag_559:\n        /* \"#utility.yul\":21465:21587   */\n      pop\n      jump\t// out\n\n    auxdata: 0xa26469706673582212203e92bace34eed343683a73550105dd6e72dfa0c931a5596b36cbec08d2af213864736f6c63430008070033\n}\n",
				"bytecode": {
					"linkReferences": {},
					"object": "608060405234801561001057600080fd5b50336000806101000a81548173ffffffffffffffffffffffffffffffffffffffff021916908373ffffffffffffffffffffffffffffffffffffffff16021790555061232a806100606000396000f3fe6080604052600436106100a05760003560e01c8063a1e9ec1d11610064578063a1e9ec1d14610168578063aecd833a1461017f578063b7731f19146101bc578063d7403aab146101e5578063fe4f95df14610222578063fe5f2e8814610239576100a7565b806381b2d07b146100ac57806382ea1db8146100d75780638ef39bb6146100f35780638fc713811461010f5780639ade37a01461012b576100a7565b366100a757005b600080fd5b3480156100b857600080fd5b506100c1610255565b6040516100ce9190611d5e565b60405180910390f35b6100f160048036038101906100ec919061180a565b6102b6565b005b61010d60048036038101906101089190611853565b610717565b005b6101296004803603810190610124919061180a565b610a3b565b005b34801561013757600080fd5b50610152600480360381019061014d919061180a565b610e4e565b60405161015f9190611d5e565b60405180910390f35b34801561017457600080fd5b5061017d610ecc565b005b34801561018b57600080fd5b506101a660048036038101906101a191906118af565b610f3d565b6040516101b39190611bf0565b60405180910390f35b3480156101c857600080fd5b506101e360048036038101906101de919061180a565b610f59565b005b3480156101f157600080fd5b5061020c6004803603810190610207919061180a565b611216565b6040516102199190611d5e565b60405180910390f35b34801561022e57600080fd5b50610237611241565b005b610253600480360381019061024e919061180a565b6113d2565b005b60008060009054906101000a900473ffffffffffffffffffffffffffffffffffffffff1673ffffffffffffffffffffffffffffffffffffffff163373ffffffffffffffffffffffffffffffffffffffff16146102b057600080fd5b47905090565b3373ffffffffffffffffffffffffffffffffffffffff166004826040516102dd9190611bc4565b908152602001604051809103902060009054906101000a900473ffffffffffffffffffffffffffffffffffffffff1673ffffffffffffffffffffffffffffffffffffffff1614610362576040517f08c379a000000000000000000000000000000000000000000000000000000000815260040161035990611c5e565b60405180910390fd5b610395603c6003836040516103779190611bc4565b9081526020016040518091039020546103909190611e3c565b610f3d565b61066b5760006002826040516103ab9190611bc4565b908152602001604051809103902060020160009054906101000a900473ffffffffffffffffffffffffffffffffffffffff1673ffffffffffffffffffffffffffffffffffffffff166002836040516104039190611bc4565b90815260200160405180910390206000015460405161042190611bdb565b60006040518083038185875af1925050503d806000811461045e576040519150601f19603f3d011682016040523d82523d6000602084013e610463565b606091505b5050905060008060009054906101000a900473ffffffffffffffffffffffffffffffffffffffff1673ffffffffffffffffffffffffffffffffffffffff1660646002856040516104b39190611bc4565b9081526020016040518091039020600001546104cf9190611e92565b6040516104db90611bdb565b60006040518083038185875af1925050503d8060008114610518576040519150601f19603f3d011682016040523d82523d6000602084013e61051d565b606091505b5050905081610561576040517f08c379a000000000000000000000000000000000000000000000000000000000815260040161055890611d1e565b60405180910390fd5b806105a1576040517f08c379a000000000000000000000000000000000000000000000000000000000815260040161059890611d1e565b60405180910390fd5b6002836040516105b19190611bc4565b90815260200160405180910390206000808201600090556001820160006105d8919061154f565b6002820160006101000a81549073ffffffffffffffffffffffffffffffffffffffff021916905550506004836040516106119190611bc4565b908152602001604051809103902060006101000a81549073ffffffffffffffffffffffffffffffffffffffff02191690556003836040516106529190611bc4565b9081526020016040518091039020600090555050610714565b610674816113d2565b6001819080600181540180825580915050600190039060005260206000200160009091909190915090805190602001906106af92919061158f565b506004816040516106c09190611bc4565b908152602001604051809103902060006101000a81549073ffffffffffffffffffffffffffffffffffffffff02191690556003816040516107019190611bc4565b9081526020016040518091039020600090555b50565b60606103e761072584610e4e565b14610765576040517f08c379a000000000000000000000000000000000000000000000000000000000815260040161075c90611cbe565b60405180910390fd5b346064836107739190611e92565b11156107b4576040517f08c379a00000000000000000000000000000000000000000000000000000000081526004016107ab90611d3e565b60405180910390fd5b6001839080600181540180825580915050600190039060005260206000200160009091909190915090805190602001906107ef92919061158f565b5060003073ffffffffffffffffffffffffffffffffffffffff163460405161081690611bdb565b60006040518083038185875af1925050503d8060008114610853576040519150601f19603f3d011682016040523d82523d6000602084013e610858565b606091505b505090508061089c576040517f08c379a000000000000000000000000000000000000000000000000000000000815260040161089390611d1e565b60405180910390fd5b346064846108aa9190611e92565b10156109755760003373ffffffffffffffffffffffffffffffffffffffff166064856108d69190611e92565b346108e19190611ec3565b6040516108ed90611bdb565b60006040518083038185875af1925050503d806000811461092a576040519150601f19603f3d011682016040523d82523d6000602084013e61092f565b606091505b5050905080610973576040517f08c379a000000000000000000000000000000000000000000000000000000000815260040161096a90611c7e565b60405180910390fd5b505b60405180606001604052808481526020018381526020013373ffffffffffffffffffffffffffffffffffffffff168152506002856040516109b69190611bc4565b90815260200160405180910390206000820151816000015560208201518160010190805190602001906109ea929190611615565b5060408201518160020160006101000a81548173ffffffffffffffffffffffffffffffffffffffff021916908373ffffffffffffffffffffffffffffffffffffffff16021790555090505050505050565b6103e7610a4782610e4e565b10610a87576040517f08c379a0000000000000000000000000000000000000000000000000000000008152600401610a7e90611cde565b60405180910390fd5b34610a9182611216565b1115610ad2576040517f08c379a0000000000000000000000000000000000000000000000000000000008152600401610ac990611c9e565b60405180910390fd5b600042905033600483604051610ae89190611bc4565b908152602001604051809103902060006101000a81548173ffffffffffffffffffffffffffffffffffffffff021916908373ffffffffffffffffffffffffffffffffffffffff16021790555080600383604051610b459190611bc4565b9081526020016040518091039020819055506001808080549050610b699190611ec3565b81548110610b7a57610b796120e9565b5b906000526020600020016001610b8f84610e4e565b81548110610ba057610b9f6120e9565b5b90600052602060002001908054610bb690611f81565b610bc192919061169b565b506001805480610bd457610bd36120ba565b5b600190038181906000526020600020016000610bf09190611728565b905560003073ffffffffffffffffffffffffffffffffffffffff1634604051610c1890611bdb565b60006040518083038185875af1925050503d8060008114610c55576040519150601f19603f3d011682016040523d82523d6000602084013e610c5a565b606091505b5050905060003073ffffffffffffffffffffffffffffffffffffffff166064600286604051610c899190611bc4565b908152602001604051809103902060000154610ca59190611e92565b604051610cb190611bdb565b60006040518083038185875af1925050503d8060008114610cee576040519150601f19603f3d011682016040523d82523d6000602084013e610cf3565b606091505b5050905081610d37576040517f08c379a0000000000000000000000000000000000000000000000000000000008152600401610d2e90611d1e565b60405180910390fd5b80610d77576040517f08c379a0000000000000000000000000000000000000000000000000000000008152600401610d6e90611d1e565b60405180910390fd5b34610d8185611216565b1015610e485760003373ffffffffffffffffffffffffffffffffffffffff16610da986611216565b34610db49190611ec3565b604051610dc090611bdb565b60006040518083038185875af1925050503d8060008114610dfd576040519150601f19603f3d011682016040523d82523d6000602084013e610e02565b606091505b5050905080610e46576040517f08c379a0000000000000000000000000000000000000000000000000000000008152600401610e3d90611c7e565b60405180910390fd5b505b50505050565b600080600090505b600180549050811015610ec057828051906020012060018281548110610e7f57610e7e6120e9565b5b90600052602060002001604051610e969190611bad565b60405180910390201415610ead5780915050610ec7565b8080610eb890611fe4565b915050610e56565b506103e790505b919050565b60008054906101000a900473ffffffffffffffffffffffffffffffffffffffff1673ffffffffffffffffffffffffffffffffffffffff163373ffffffffffffffffffffffffffffffffffffffff1614610f2457600080fd5b3073ffffffffffffffffffffffffffffffffffffffff16ff5b6000814210610f4f5760019050610f54565b600090505b919050565b60008054906101000a900473ffffffffffffffffffffffffffffffffffffffff1673ffffffffffffffffffffffffffffffffffffffff163373ffffffffffffffffffffffffffffffffffffffff1614610fb157600080fd5b6103e7610fbd82610e4e565b10610ffd576040517f08c379a0000000000000000000000000000000000000000000000000000000008152600401610ff490611cde565b60405180910390fd5b600060028260405161100f9190611bc4565b908152602001604051809103902060020160009054906101000a900473ffffffffffffffffffffffffffffffffffffffff1673ffffffffffffffffffffffffffffffffffffffff1660646002846040516110699190611bc4565b9081526020016040518091039020600001546110859190611e92565b60405161109190611bdb565b60006040518083038185875af1925050503d80600081146110ce576040519150601f19603f3d011682016040523d82523d6000602084013e6110d3565b606091505b5050905080611117576040517f08c379a000000000000000000000000000000000000000000000000000000000815260040161110e90611cfe565b60405180910390fd5b60018080805490506111299190611ec3565b8154811061113a576111396120e9565b5b90600052602060002001600161114f84610e4e565b815481106111605761115f6120e9565b5b9060005260206000200190805461117690611f81565b61118192919061169b565b506001805480611194576111936120ba565b5b6001900381819060005260206000200160006111b09190611728565b90556002826040516111c29190611bc4565b90815260200160405180910390206000808201600090556001820160006111e9919061154f565b6002820160006101000a81549073ffffffffffffffffffffffffffffffffffffffff021916905550505050565b60006002826040516112289190611bc4565b9081526020016040518091039020600001549050919050565b60005b6001805490508110156113cf57600060018281548110611267576112666120e9565b5b90600052602060002001805461127c90611f81565b80601f01602080910402602001604051908101604052809291908181526020018280546112a890611f81565b80156112f55780601f106112ca576101008083540402835291602001916112f5565b820191906000526020600020905b8154815290600101906020018083116112d857829003601f168201915b505050505090507f8421fc2459e9d0f7a0d6d573fb7ab7b48c410d971688b840efb276ca33a55a618160028360405161132e9190611bc4565b9081526020016040518091039020600001546002846040516113509190611bc4565b90815260200160405180910390206001016002856040516113719190611bc4565b908152602001604051809103902060020160009054906101000a900473ffffffffffffffffffffffffffffffffffffffff166040516113b39493929190611c0b565b60405180910390a15080806113c790611fe4565b915050611244565b50565b3373ffffffffffffffffffffffffffffffffffffffff166004826040516113f99190611bc4565b908152602001604051809103902060009054906101000a900473ffffffffffffffffffffffffffffffffffffffff1673ffffffffffffffffffffffffffffffffffffffff161461147e576040517f08c379a000000000000000000000000000000000000000000000000000000000815260040161147590611c5e565b60405180910390fd5b60003373ffffffffffffffffffffffffffffffffffffffff166002836040516114a79190611bc4565b9081526020016040518091039020600001546040516114c590611bdb565b60006040518083038185875af1925050503d8060008114611502576040519150601f19603f3d011682016040523d82523d6000602084013e611507565b606091505b505090508061154b576040517f08c379a000000000000000000000000000000000000000000000000000000000815260040161154290611d1e565b60405180910390fd5b5050565b50805461155b90611f81565b6000825580601f1061156d575061158c565b601f01602090049060005260206000209081019061158b9190611768565b5b50565b82805461159b90611f81565b90600052602060002090601f0160209004810192826115bd5760008555611604565b82601f106115d657805160ff1916838001178555611604565b82800160010185558215611604579182015b828111156116035782518255916020019190600101906115e8565b5b5090506116119190611768565b5090565b82805461162190611f81565b90600052602060002090601f016020900481019282611643576000855561168a565b82601f1061165c57805160ff191683800117855561168a565b8280016001018555821561168a579182015b8281111561168957825182559160200191906001019061166e565b5b5090506116979190611768565b5090565b8280546116a790611f81565b90600052602060002090601f0160209004810192826116c95760008555611717565b82601f106116da5780548555611717565b8280016001018555821561171757600052602060002091601f016020900482015b828111156117165782548255916001019190600101906116fb565b5b5090506117249190611768565b5090565b50805461173490611f81565b6000825580601f106117465750611765565b601f0160209004906000526020600020908101906117649190611768565b5b50565b5b80821115611781576000816000905550600101611769565b5090565b600061179861179384611d9e565b611d79565b9050828152602081018484840111156117b4576117b361214c565b5b6117bf848285611f3f565b509392505050565b600082601f8301126117dc576117db612147565b5b81356117ec848260208601611785565b91505092915050565b600081359050611804816122dd565b92915050565b6000602082840312156118205761181f612156565b5b600082013567ffffffffffffffff81111561183e5761183d612151565b5b61184a848285016117c7565b91505092915050565b6000806040838503121561186a57611869612156565b5b600083013567ffffffffffffffff81111561188857611887612151565b5b611894858286016117c7565b92505060206118a5858286016117f5565b9150509250929050565b6000602082840312156118c5576118c4612156565b5b60006118d3848285016117f5565b91505092915050565b6118e581611ef7565b82525050565b6118f481611f09565b82525050565b6000815461190781611f81565b6119118186611e15565b9450600182166000811461192c576001811461193d57611970565b60ff19831686528186019350611970565b61194685611de4565b60005b8381101561196857815481890152600182019150602081019050611949565b838801955050505b50505092915050565b6000815461198681611f81565b6119908186611e04565b945060018216600081146119ab57600181146119bd576119f0565b60ff19831686526020860193506119f0565b6119c685611dcf565b60005b838110156119e8578154818901526001820191506020810190506119c9565b808801955050505b50505092915050565b6000611a0482611df9565b611a0e8185611e20565b9350611a1e818560208601611f4e565b611a278161215b565b840191505092915050565b6000611a3d82611df9565b611a478185611e31565b9350611a57818560208601611f4e565b80840191505092915050565b6000611a70602983611e20565b9150611a7b8261216c565b604082019050919050565b6000611a93601783611e20565b9150611a9e826121bb565b602082019050919050565b6000611ab6600f83611e20565b9150611ac1826121e4565b602082019050919050565b6000611ad9601683611e20565b9150611ae48261220d565b602082019050919050565b6000611afc600e83611e20565b9150611b0782612236565b602082019050919050565b6000611b1f601483611e20565b9150611b2a8261225f565b602082019050919050565b6000611b42600d83611e20565b9150611b4d82612288565b602082019050919050565b6000611b65600083611e15565b9150611b70826122b1565b600082019050919050565b6000611b88600d83611e20565b9150611b93826122b4565b602082019050919050565b611ba781611f35565b82525050565b6000611bb982846118fa565b915081905092915050565b6000611bd08284611a32565b915081905092915050565b6000611be682611b58565b9150819050919050565b6000602082019050611c0560008301846118eb565b92915050565b60006080820190508181036000830152611c2581876119f9565b9050611c346020830186611b9e565b8181036040830152611c468185611979565b9050611c5560608301846118dc565b95945050505050565b60006020820190508181036000830152611c7781611a63565b9050919050565b60006020820190508181036000830152611c9781611a86565b9050919050565b60006020820190508181036000830152611cb781611aa9565b9050919050565b60006020820190508181036000830152611cd781611acc565b9050919050565b60006020820190508181036000830152611cf781611aef565b9050919050565b60006020820190508181036000830152611d1781611b12565b9050919050565b60006020820190508181036000830152611d3781611b35565b9050919050565b60006020820190508181036000830152611d5781611b7b565b9050919050565b6000602082019050611d736000830184611b9e565b92915050565b6000611d83611d94565b9050611d8f8282611fb3565b919050565b6000604051905090565b600067ffffffffffffffff821115611db957611db8612118565b5b611dc28261215b565b9050602081019050919050565b60008190508160005260206000209050919050565b60008190508160005260206000209050919050565b600081519050919050565b600082825260208201905092915050565b600081905092915050565b600082825260208201905092915050565b600081905092915050565b6000611e4782611f35565b9150611e5283611f35565b9250827fffffffffffffffffffffffffffffffffffffffffffffffffffffffffffffffff03821115611e8757611e8661202d565b5b828201905092915050565b6000611e9d82611f35565b9150611ea883611f35565b925082611eb857611eb761205c565b5b828204905092915050565b6000611ece82611f35565b9150611ed983611f35565b925082821015611eec57611eeb61202d565b5b828203905092915050565b6000611f0282611f15565b9050919050565b60008115159050919050565b600073ffffffffffffffffffffffffffffffffffffffff82169050919050565b6000819050919050565b82818337600083830152505050565b60005b83811015611f6c578082015181840152602081019050611f51565b83811115611f7b576000848401525b50505050565b60006002820490506001821680611f9957607f821691505b60208210811415611fad57611fac61208b565b5b50919050565b611fbc8261215b565b810181811067ffffffffffffffff82111715611fdb57611fda612118565b5b80604052505050565b6000611fef82611f35565b91507fffffffffffffffffffffffffffffffffffffffffffffffffffffffffffffffff8214156120225761202161202d565b5b600182019050919050565b7f4e487b7100000000000000000000000000000000000000000000000000000000600052601160045260246000fd5b7f4e487b7100000000000000000000000000000000000000000000000000000000600052601260045260246000fd5b7f4e487b7100000000000000000000000000000000000000000000000000000000600052602260045260246000fd5b7f4e487b7100000000000000000000000000000000000000000000000000000000600052603160045260246000fd5b7f4e487b7100000000000000000000000000000000000000000000000000000000600052603260045260246000fd5b7f4e487b7100000000000000000000000000000000000000000000000000000000600052604160045260246000fd5b600080fd5b600080fd5b600080fd5b600080fd5b6000601f19601f8301169050919050565b7f54686973206163636f756e74206861736e27742070757263686173656420746860008201527f652070726f647563740000000000000000000000000000000000000000000000602082015250565b7f4661696c656420746f2072657475726e206368616e6765000000000000000000600082015250565b7f436865636b207468652070726963650000000000000000000000000000000000600082015250565b7f546865206e616d65206973206475706c69636174656400000000000000000000600082015250565b7f436865636b20746865206e616d65000000000000000000000000000000000000600082015250565b7f4661696c656420746f20726566756e6420666565000000000000000000000000600082015250565b7f4661696c656420746f2070617900000000000000000000000000000000000000600082015250565b50565b7f436865636b207468652066656500000000000000000000000000000000000000600082015250565b6122e681611f35565b81146122f157600080fd5b5056fea26469706673582212203e92bace34eed343683a73550105dd6e72dfa0c931a5596b36cbec08d2af213864736f6c63430008070033",
					"opcodes": "PUSH1 0x80 PUSH1 0x40 MSTORE CALLVALUE DUP1 ISZERO PUSH2 0x10 JUMPI PUSH1 0x0 DUP1 REVERT JUMPDEST POP CALLER PUSH1 0x0 DUP1 PUSH2 0x100 EXP DUP2 SLOAD DUP2 PUSH20 0xFFFFFFFFFFFFFFFFFFFFFFFFFFFFFFFFFFFFFFFF MUL NOT AND SWAP1 DUP4 PUSH20 0xFFFFFFFFFFFFFFFFFFFFFFFFFFFFFFFFFFFFFFFF AND MUL OR SWAP1 SSTORE POP PUSH2 0x232A DUP1 PUSH2 0x60 PUSH1 0x0 CODECOPY PUSH1 0x0 RETURN INVALID PUSH1 0x80 PUSH1 0x40 MSTORE PUSH1 0x4 CALLDATASIZE LT PUSH2 0xA0 JUMPI PUSH1 0x0 CALLDATALOAD PUSH1 0xE0 SHR DUP1 PUSH4 0xA1E9EC1D GT PUSH2 0x64 JUMPI DUP1 PUSH4 0xA1E9EC1D EQ PUSH2 0x168 JUMPI DUP1 PUSH4 0xAECD833A EQ PUSH2 0x17F JUMPI DUP1 PUSH4 0xB7731F19 EQ PUSH2 0x1BC JUMPI DUP1 PUSH4 0xD7403AAB EQ PUSH2 0x1E5 JUMPI DUP1 PUSH4 0xFE4F95DF EQ PUSH2 0x222 JUMPI DUP1 PUSH4 0xFE5F2E88 EQ PUSH2 0x239 JUMPI PUSH2 0xA7 JUMP JUMPDEST DUP1 PUSH4 0x81B2D07B EQ PUSH2 0xAC JUMPI DUP1 PUSH4 0x82EA1DB8 EQ PUSH2 0xD7 JUMPI DUP1 PUSH4 0x8EF39BB6 EQ PUSH2 0xF3 JUMPI DUP1 PUSH4 0x8FC71381 EQ PUSH2 0x10F JUMPI DUP1 PUSH4 0x9ADE37A0 EQ PUSH2 0x12B JUMPI PUSH2 0xA7 JUMP JUMPDEST CALLDATASIZE PUSH2 0xA7 JUMPI STOP JUMPDEST PUSH1 0x0 DUP1 REVERT JUMPDEST CALLVALUE DUP1 ISZERO PUSH2 0xB8 JUMPI PUSH1 0x0 DUP1 REVERT JUMPDEST POP PUSH2 0xC1 PUSH2 0x255 JUMP JUMPDEST PUSH1 0x40 MLOAD PUSH2 0xCE SWAP2 SWAP1 PUSH2 0x1D5E JUMP JUMPDEST PUSH1 0x40 MLOAD DUP1 SWAP2 SUB SWAP1 RETURN JUMPDEST PUSH2 0xF1 PUSH1 0x4 DUP1 CALLDATASIZE SUB DUP2 ADD SWAP1 PUSH2 0xEC SWAP2 SWAP1 PUSH2 0x180A JUMP JUMPDEST PUSH2 0x2B6 JUMP JUMPDEST STOP JUMPDEST PUSH2 0x10D PUSH1 0x4 DUP1 CALLDATASIZE SUB DUP2 ADD SWAP1 PUSH2 0x108 SWAP2 SWAP1 PUSH2 0x1853 JUMP JUMPDEST PUSH2 0x717 JUMP JUMPDEST STOP JUMPDEST PUSH2 0x129 PUSH1 0x4 DUP1 CALLDATASIZE SUB DUP2 ADD SWAP1 PUSH2 0x124 SWAP2 SWAP1 PUSH2 0x180A JUMP JUMPDEST PUSH2 0xA3B JUMP JUMPDEST STOP JUMPDEST CALLVALUE DUP1 ISZERO PUSH2 0x137 JUMPI PUSH1 0x0 DUP1 REVERT JUMPDEST POP PUSH2 0x152 PUSH1 0x4 DUP1 CALLDATASIZE SUB DUP2 ADD SWAP1 PUSH2 0x14D SWAP2 SWAP1 PUSH2 0x180A JUMP JUMPDEST PUSH2 0xE4E JUMP JUMPDEST PUSH1 0x40 MLOAD PUSH2 0x15F SWAP2 SWAP1 PUSH2 0x1D5E JUMP JUMPDEST PUSH1 0x40 MLOAD DUP1 SWAP2 SUB SWAP1 RETURN JUMPDEST CALLVALUE DUP1 ISZERO PUSH2 0x174 JUMPI PUSH1 0x0 DUP1 REVERT JUMPDEST POP PUSH2 0x17D PUSH2 0xECC JUMP JUMPDEST STOP JUMPDEST CALLVALUE DUP1 ISZERO PUSH2 0x18B JUMPI PUSH1 0x0 DUP1 REVERT JUMPDEST POP PUSH2 0x1A6 PUSH1 0x4 DUP1 CALLDATASIZE SUB DUP2 ADD SWAP1 PUSH2 0x1A1 SWAP2 SWAP1 PUSH2 0x18AF JUMP JUMPDEST PUSH2 0xF3D JUMP JUMPDEST PUSH1 0x40 MLOAD PUSH2 0x1B3 SWAP2 SWAP1 PUSH2 0x1BF0 JUMP JUMPDEST PUSH1 0x40 MLOAD DUP1 SWAP2 SUB SWAP1 RETURN JUMPDEST CALLVALUE DUP1 ISZERO PUSH2 0x1C8 JUMPI PUSH1 0x0 DUP1 REVERT JUMPDEST POP PUSH2 0x1E3 PUSH1 0x4 DUP1 CALLDATASIZE SUB DUP2 ADD SWAP1 PUSH2 0x1DE SWAP2 SWAP1 PUSH2 0x180A JUMP JUMPDEST PUSH2 0xF59 JUMP JUMPDEST STOP JUMPDEST CALLVALUE DUP1 ISZERO PUSH2 0x1F1 JUMPI PUSH1 0x0 DUP1 REVERT JUMPDEST POP PUSH2 0x20C PUSH1 0x4 DUP1 CALLDATASIZE SUB DUP2 ADD SWAP1 PUSH2 0x207 SWAP2 SWAP1 PUSH2 0x180A JUMP JUMPDEST PUSH2 0x1216 JUMP JUMPDEST PUSH1 0x40 MLOAD PUSH2 0x219 SWAP2 SWAP1 PUSH2 0x1D5E JUMP JUMPDEST PUSH1 0x40 MLOAD DUP1 SWAP2 SUB SWAP1 RETURN JUMPDEST CALLVALUE DUP1 ISZERO PUSH2 0x22E JUMPI PUSH1 0x0 DUP1 REVERT JUMPDEST POP PUSH2 0x237 PUSH2 0x1241 JUMP JUMPDEST STOP JUMPDEST PUSH2 0x253 PUSH1 0x4 DUP1 CALLDATASIZE SUB DUP2 ADD SWAP1 PUSH2 0x24E SWAP2 SWAP1 PUSH2 0x180A JUMP JUMPDEST PUSH2 0x13D2 JUMP JUMPDEST STOP JUMPDEST PUSH1 0x0 DUP1 PUSH1 0x0 SWAP1 SLOAD SWAP1 PUSH2 0x100 EXP SWAP1 DIV PUSH20 0xFFFFFFFFFFFFFFFFFFFFFFFFFFFFFFFFFFFFFFFF AND PUSH20 0xFFFFFFFFFFFFFFFFFFFFFFFFFFFFFFFFFFFFFFFF AND CALLER PUSH20 0xFFFFFFFFFFFFFFFFFFFFFFFFFFFFFFFFFFFFFFFF AND EQ PUSH2 0x2B0 JUMPI PUSH1 0x0 DUP1 REVERT JUMPDEST SELFBALANCE SWAP1 POP SWAP1 JUMP JUMPDEST CALLER PUSH20 0xFFFFFFFFFFFFFFFFFFFFFFFFFFFFFFFFFFFFFFFF AND PUSH1 0x4 DUP3 PUSH1 0x40 MLOAD PUSH2 0x2DD SWAP2 SWAP1 PUSH2 0x1BC4 JUMP JUMPDEST SWAP1 DUP2 MSTORE PUSH1 0x20 ADD PUSH1 0x40 MLOAD DUP1 SWAP2 SUB SWAP1 KECCAK256 PUSH1 0x0 SWAP1 SLOAD SWAP1 PUSH2 0x100 EXP SWAP1 DIV PUSH20 0xFFFFFFFFFFFFFFFFFFFFFFFFFFFFFFFFFFFFFFFF AND PUSH20 0xFFFFFFFFFFFFFFFFFFFFFFFFFFFFFFFFFFFFFFFF AND EQ PUSH2 0x362 JUMPI PUSH1 0x40 MLOAD PUSH32 0x8C379A000000000000000000000000000000000000000000000000000000000 DUP2 MSTORE PUSH1 0x4 ADD PUSH2 0x359 SWAP1 PUSH2 0x1C5E JUMP JUMPDEST PUSH1 0x40 MLOAD DUP1 SWAP2 SUB SWAP1 REVERT JUMPDEST PUSH2 0x395 PUSH1 0x3C PUSH1 0x3 DUP4 PUSH1 0x40 MLOAD PUSH2 0x377 SWAP2 SWAP1 PUSH2 0x1BC4 JUMP JUMPDEST SWAP1 DUP2 MSTORE PUSH1 0x20 ADD PUSH1 0x40 MLOAD DUP1 SWAP2 SUB SWAP1 KECCAK256 SLOAD PUSH2 0x390 SWAP2 SWAP1 PUSH2 0x1E3C JUMP JUMPDEST PUSH2 0xF3D JUMP JUMPDEST PUSH2 0x66B JUMPI PUSH1 0x0 PUSH1 0x2 DUP3 PUSH1 0x40 MLOAD PUSH2 0x3AB SWAP2 SWAP1 PUSH2 0x1BC4 JUMP JUMPDEST SWAP1 DUP2 MSTORE PUSH1 0x20 ADD PUSH1 0x40 MLOAD DUP1 SWAP2 SUB SWAP1 KECCAK256 PUSH1 0x2 ADD PUSH1 0x0 SWAP1 SLOAD SWAP1 PUSH2 0x100 EXP SWAP1 DIV PUSH20 0xFFFFFFFFFFFFFFFFFFFFFFFFFFFFFFFFFFFFFFFF AND PUSH20 0xFFFFFFFFFFFFFFFFFFFFFFFFFFFFFFFFFFFFFFFF AND PUSH1 0x2 DUP4 PUSH1 0x40 MLOAD PUSH2 0x403 SWAP2 SWAP1 PUSH2 0x1BC4 JUMP JUMPDEST SWAP1 DUP2 MSTORE PUSH1 0x20 ADD PUSH1 0x40 MLOAD DUP1 SWAP2 SUB SWAP1 KECCAK256 PUSH1 0x0 ADD SLOAD PUSH1 0x40 MLOAD PUSH2 0x421 SWAP1 PUSH2 0x1BDB JUMP JUMPDEST PUSH1 0x0 PUSH1 0x40 MLOAD DUP1 DUP4 SUB DUP2 DUP6 DUP8 GAS CALL SWAP3 POP POP POP RETURNDATASIZE DUP1 PUSH1 0x0 DUP2 EQ PUSH2 0x45E JUMPI PUSH1 0x40 MLOAD SWAP2 POP PUSH1 0x1F NOT PUSH1 0x3F RETURNDATASIZE ADD AND DUP3 ADD PUSH1 0x40 MSTORE RETURNDATASIZE DUP3 MSTORE RETURNDATASIZE PUSH1 0x0 PUSH1 0x20 DUP5 ADD RETURNDATACOPY PUSH2 0x463 JUMP JUMPDEST PUSH1 0x60 SWAP2 POP JUMPDEST POP POP SWAP1 POP PUSH1 0x0 DUP1 PUSH1 0x0 SWAP1 SLOAD SWAP1 PUSH2 0x100 EXP SWAP1 DIV PUSH20 0xFFFFFFFFFFFFFFFFFFFFFFFFFFFFFFFFFFFFFFFF AND PUSH20 0xFFFFFFFFFFFFFFFFFFFFFFFFFFFFFFFFFFFFFFFF AND PUSH1 0x64 PUSH1 0x2 DUP6 PUSH1 0x40 MLOAD PUSH2 0x4B3 SWAP2 SWAP1 PUSH2 0x1BC4 JUMP JUMPDEST SWAP1 DUP2 MSTORE PUSH1 0x20 ADD PUSH1 0x40 MLOAD DUP1 SWAP2 SUB SWAP1 KECCAK256 PUSH1 0x0 ADD SLOAD PUSH2 0x4CF SWAP2 SWAP1 PUSH2 0x1E92 JUMP JUMPDEST PUSH1 0x40 MLOAD PUSH2 0x4DB SWAP1 PUSH2 0x1BDB JUMP JUMPDEST PUSH1 0x0 PUSH1 0x40 MLOAD DUP1 DUP4 SUB DUP2 DUP6 DUP8 GAS CALL SWAP3 POP POP POP RETURNDATASIZE DUP1 PUSH1 0x0 DUP2 EQ PUSH2 0x518 JUMPI PUSH1 0x40 MLOAD SWAP2 POP PUSH1 0x1F NOT PUSH1 0x3F RETURNDATASIZE ADD AND DUP3 ADD PUSH1 0x40 MSTORE RETURNDATASIZE DUP3 MSTORE RETURNDATASIZE PUSH1 0x0 PUSH1 0x20 DUP5 ADD RETURNDATACOPY PUSH2 0x51D JUMP JUMPDEST PUSH1 0x60 SWAP2 POP JUMPDEST POP POP SWAP1 POP DUP2 PUSH2 0x561 JUMPI PUSH1 0x40 MLOAD PUSH32 0x8C379A000000000000000000000000000000000000000000000000000000000 DUP2 MSTORE PUSH1 0x4 ADD PUSH2 0x558 SWAP1 PUSH2 0x1D1E JUMP JUMPDEST PUSH1 0x40 MLOAD DUP1 SWAP2 SUB SWAP1 REVERT JUMPDEST DUP1 PUSH2 0x5A1 JUMPI PUSH1 0x40 MLOAD PUSH32 0x8C379A000000000000000000000000000000000000000000000000000000000 DUP2 MSTORE PUSH1 0x4 ADD PUSH2 0x598 SWAP1 PUSH2 0x1D1E JUMP JUMPDEST PUSH1 0x40 MLOAD DUP1 SWAP2 SUB SWAP1 REVERT JUMPDEST PUSH1 0x2 DUP4 PUSH1 0x40 MLOAD PUSH2 0x5B1 SWAP2 SWAP1 PUSH2 0x1BC4 JUMP JUMPDEST SWAP1 DUP2 MSTORE PUSH1 0x20 ADD PUSH1 0x40 MLOAD DUP1 SWAP2 SUB SWAP1 KECCAK256 PUSH1 0x0 DUP1 DUP3 ADD PUSH1 0x0 SWAP1 SSTORE PUSH1 0x1 DUP3 ADD PUSH1 0x0 PUSH2 0x5D8 SWAP2 SWAP1 PUSH2 0x154F JUMP JUMPDEST PUSH1 0x2 DUP3 ADD PUSH1 0x0 PUSH2 0x100 EXP DUP2 SLOAD SWAP1 PUSH20 0xFFFFFFFFFFFFFFFFFFFFFFFFFFFFFFFFFFFFFFFF MUL NOT AND SWAP1 SSTORE POP POP PUSH1 0x4 DUP4 PUSH1 0x40 MLOAD PUSH2 0x611 SWAP2 SWAP1 PUSH2 0x1BC4 JUMP JUMPDEST SWAP1 DUP2 MSTORE PUSH1 0x20 ADD PUSH1 0x40 MLOAD DUP1 SWAP2 SUB SWAP1 KECCAK256 PUSH1 0x0 PUSH2 0x100 EXP DUP2 SLOAD SWAP1 PUSH20 0xFFFFFFFFFFFFFFFFFFFFFFFFFFFFFFFFFFFFFFFF MUL NOT AND SWAP1 SSTORE PUSH1 0x3 DUP4 PUSH1 0x40 MLOAD PUSH2 0x652 SWAP2 SWAP1 PUSH2 0x1BC4 JUMP JUMPDEST SWAP1 DUP2 MSTORE PUSH1 0x20 ADD PUSH1 0x40 MLOAD DUP1 SWAP2 SUB SWAP1 KECCAK256 PUSH1 0x0 SWAP1 SSTORE POP POP PUSH2 0x714 JUMP JUMPDEST PUSH2 0x674 DUP2 PUSH2 0x13D2 JUMP JUMPDEST PUSH1 0x1 DUP2 SWAP1 DUP1 PUSH1 0x1 DUP2 SLOAD ADD DUP1 DUP3 SSTORE DUP1 SWAP2 POP POP PUSH1 0x1 SWAP1 SUB SWAP1 PUSH1 0x0 MSTORE PUSH1 0x20 PUSH1 0x0 KECCAK256 ADD PUSH1 0x0 SWAP1 SWAP2 SWAP1 SWAP2 SWAP1 SWAP2 POP SWAP1 DUP1 MLOAD SWAP1 PUSH1 0x20 ADD SWAP1 PUSH2 0x6AF SWAP3 SWAP2 SWAP1 PUSH2 0x158F JUMP JUMPDEST POP PUSH1 0x4 DUP2 PUSH1 0x40 MLOAD PUSH2 0x6C0 SWAP2 SWAP1 PUSH2 0x1BC4 JUMP JUMPDEST SWAP1 DUP2 MSTORE PUSH1 0x20 ADD PUSH1 0x40 MLOAD DUP1 SWAP2 SUB SWAP1 KECCAK256 PUSH1 0x0 PUSH2 0x100 EXP DUP2 SLOAD SWAP1 PUSH20 0xFFFFFFFFFFFFFFFFFFFFFFFFFFFFFFFFFFFFFFFF MUL NOT AND SWAP1 SSTORE PUSH1 0x3 DUP2 PUSH1 0x40 MLOAD PUSH2 0x701 SWAP2 SWAP1 PUSH2 0x1BC4 JUMP JUMPDEST SWAP1 DUP2 MSTORE PUSH1 0x20 ADD PUSH1 0x40 MLOAD DUP1 SWAP2 SUB SWAP1 KECCAK256 PUSH1 0x0 SWAP1 SSTORE JUMPDEST POP JUMP JUMPDEST PUSH1 0x60 PUSH2 0x3E7 PUSH2 0x725 DUP5 PUSH2 0xE4E JUMP JUMPDEST EQ PUSH2 0x765 JUMPI PUSH1 0x40 MLOAD PUSH32 0x8C379A000000000000000000000000000000000000000000000000000000000 DUP2 MSTORE PUSH1 0x4 ADD PUSH2 0x75C SWAP1 PUSH2 0x1CBE JUMP JUMPDEST PUSH1 0x40 MLOAD DUP1 SWAP2 SUB SWAP1 REVERT JUMPDEST CALLVALUE PUSH1 0x64 DUP4 PUSH2 0x773 SWAP2 SWAP1 PUSH2 0x1E92 JUMP JUMPDEST GT ISZERO PUSH2 0x7B4 JUMPI PUSH1 0x40 MLOAD PUSH32 0x8C379A000000000000000000000000000000000000000000000000000000000 DUP2 MSTORE PUSH1 0x4 ADD PUSH2 0x7AB SWAP1 PUSH2 0x1D3E JUMP JUMPDEST PUSH1 0x40 MLOAD DUP1 SWAP2 SUB SWAP1 REVERT JUMPDEST PUSH1 0x1 DUP4 SWAP1 DUP1 PUSH1 0x1 DUP2 SLOAD ADD DUP1 DUP3 SSTORE DUP1 SWAP2 POP POP PUSH1 0x1 SWAP1 SUB SWAP1 PUSH1 0x0 MSTORE PUSH1 0x20 PUSH1 0x0 KECCAK256 ADD PUSH1 0x0 SWAP1 SWAP2 SWAP1 SWAP2 SWAP1 SWAP2 POP SWAP1 DUP1 MLOAD SWAP1 PUSH1 0x20 ADD SWAP1 PUSH2 0x7EF SWAP3 SWAP2 SWAP1 PUSH2 0x158F JUMP JUMPDEST POP PUSH1 0x0 ADDRESS PUSH20 0xFFFFFFFFFFFFFFFFFFFFFFFFFFFFFFFFFFFFFFFF AND CALLVALUE PUSH1 0x40 MLOAD PUSH2 0x816 SWAP1 PUSH2 0x1BDB JUMP JUMPDEST PUSH1 0x0 PUSH1 0x40 MLOAD DUP1 DUP4 SUB DUP2 DUP6 DUP8 GAS CALL SWAP3 POP POP POP RETURNDATASIZE DUP1 PUSH1 0x0 DUP2 EQ PUSH2 0x853 JUMPI PUSH1 0x40 MLOAD SWAP2 POP PUSH1 0x1F NOT PUSH1 0x3F RETURNDATASIZE ADD AND DUP3 ADD PUSH1 0x40 MSTORE RETURNDATASIZE DUP3 MSTORE RETURNDATASIZE PUSH1 0x0 PUSH1 0x20 DUP5 ADD RETURNDATACOPY PUSH2 0x858 JUMP JUMPDEST PUSH1 0x60 SWAP2 POP JUMPDEST POP POP SWAP1 POP DUP1 PUSH2 0x89C JUMPI PUSH1 0x40 MLOAD PUSH32 0x8C379A000000000000000000000000000000000000000000000000000000000 DUP2 MSTORE PUSH1 0x4 ADD PUSH2 0x893 SWAP1 PUSH2 0x1D1E JUMP JUMPDEST PUSH1 0x40 MLOAD DUP1 SWAP2 SUB SWAP1 REVERT JUMPDEST CALLVALUE PUSH1 0x64 DUP5 PUSH2 0x8AA SWAP2 SWAP1 PUSH2 0x1E92 JUMP JUMPDEST LT ISZERO PUSH2 0x975 JUMPI PUSH1 0x0 CALLER PUSH20 0xFFFFFFFFFFFFFFFFFFFFFFFFFFFFFFFFFFFFFFFF AND PUSH1 0x64 DUP6 PUSH2 0x8D6 SWAP2 SWAP1 PUSH2 0x1E92 JUMP JUMPDEST CALLVALUE PUSH2 0x8E1 SWAP2 SWAP1 PUSH2 0x1EC3 JUMP JUMPDEST PUSH1 0x40 MLOAD PUSH2 0x8ED SWAP1 PUSH2 0x1BDB JUMP JUMPDEST PUSH1 0x0 PUSH1 0x40 MLOAD DUP1 DUP4 SUB DUP2 DUP6 DUP8 GAS CALL SWAP3 POP POP POP RETURNDATASIZE DUP1 PUSH1 0x0 DUP2 EQ PUSH2 0x92A JUMPI PUSH1 0x40 MLOAD SWAP2 POP PUSH1 0x1F NOT PUSH1 0x3F RETURNDATASIZE ADD AND DUP3 ADD PUSH1 0x40 MSTORE RETURNDATASIZE DUP3 MSTORE RETURNDATASIZE PUSH1 0x0 PUSH1 0x20 DUP5 ADD RETURNDATACOPY PUSH2 0x92F JUMP JUMPDEST PUSH1 0x60 SWAP2 POP JUMPDEST POP POP SWAP1 POP DUP1 PUSH2 0x973 JUMPI PUSH1 0x40 MLOAD PUSH32 0x8C379A000000000000000000000000000000000000000000000000000000000 DUP2 MSTORE PUSH1 0x4 ADD PUSH2 0x96A SWAP1 PUSH2 0x1C7E JUMP JUMPDEST PUSH1 0x40 MLOAD DUP1 SWAP2 SUB SWAP1 REVERT JUMPDEST POP JUMPDEST PUSH1 0x40 MLOAD DUP1 PUSH1 0x60 ADD PUSH1 0x40 MSTORE DUP1 DUP5 DUP2 MSTORE PUSH1 0x20 ADD DUP4 DUP2 MSTORE PUSH1 0x20 ADD CALLER PUSH20 0xFFFFFFFFFFFFFFFFFFFFFFFFFFFFFFFFFFFFFFFF AND DUP2 MSTORE POP PUSH1 0x2 DUP6 PUSH1 0x40 MLOAD PUSH2 0x9B6 SWAP2 SWAP1 PUSH2 0x1BC4 JUMP JUMPDEST SWAP1 DUP2 MSTORE PUSH1 0x20 ADD PUSH1 0x40 MLOAD DUP1 SWAP2 SUB SWAP1 KECCAK256 PUSH1 0x0 DUP3 ADD MLOAD DUP2 PUSH1 0x0 ADD SSTORE PUSH1 0x20 DUP3 ADD MLOAD DUP2 PUSH1 0x1 ADD SWAP1 DUP1 MLOAD SWAP1 PUSH1 0x20 ADD SWAP1 PUSH2 0x9EA SWAP3 SWAP2 SWAP1 PUSH2 0x1615 JUMP JUMPDEST POP PUSH1 0x40 DUP3 ADD MLOAD DUP2 PUSH1 0x2 ADD PUSH1 0x0 PUSH2 0x100 EXP DUP2 SLOAD DUP2 PUSH20 0xFFFFFFFFFFFFFFFFFFFFFFFFFFFFFFFFFFFFFFFF MUL NOT AND SWAP1 DUP4 PUSH20 0xFFFFFFFFFFFFFFFFFFFFFFFFFFFFFFFFFFFFFFFF AND MUL OR SWAP1 SSTORE POP SWAP1 POP POP POP POP POP POP JUMP JUMPDEST PUSH2 0x3E7 PUSH2 0xA47 DUP3 PUSH2 0xE4E JUMP JUMPDEST LT PUSH2 0xA87 JUMPI PUSH1 0x40 MLOAD PUSH32 0x8C379A000000000000000000000000000000000000000000000000000000000 DUP2 MSTORE PUSH1 0x4 ADD PUSH2 0xA7E SWAP1 PUSH2 0x1CDE JUMP JUMPDEST PUSH1 0x40 MLOAD DUP1 SWAP2 SUB SWAP1 REVERT JUMPDEST CALLVALUE PUSH2 0xA91 DUP3 PUSH2 0x1216 JUMP JUMPDEST GT ISZERO PUSH2 0xAD2 JUMPI PUSH1 0x40 MLOAD PUSH32 0x8C379A000000000000000000000000000000000000000000000000000000000 DUP2 MSTORE PUSH1 0x4 ADD PUSH2 0xAC9 SWAP1 PUSH2 0x1C9E JUMP JUMPDEST PUSH1 0x40 MLOAD DUP1 SWAP2 SUB SWAP1 REVERT JUMPDEST PUSH1 0x0 TIMESTAMP SWAP1 POP CALLER PUSH1 0x4 DUP4 PUSH1 0x40 MLOAD PUSH2 0xAE8 SWAP2 SWAP1 PUSH2 0x1BC4 JUMP JUMPDEST SWAP1 DUP2 MSTORE PUSH1 0x20 ADD PUSH1 0x40 MLOAD DUP1 SWAP2 SUB SWAP1 KECCAK256 PUSH1 0x0 PUSH2 0x100 EXP DUP2 SLOAD DUP2 PUSH20 0xFFFFFFFFFFFFFFFFFFFFFFFFFFFFFFFFFFFFFFFF MUL NOT AND SWAP1 DUP4 PUSH20 0xFFFFFFFFFFFFFFFFFFFFFFFFFFFFFFFFFFFFFFFF AND MUL OR SWAP1 SSTORE POP DUP1 PUSH1 0x3 DUP4 PUSH1 0x40 MLOAD PUSH2 0xB45 SWAP2 SWAP1 PUSH2 0x1BC4 JUMP JUMPDEST SWAP1 DUP2 MSTORE PUSH1 0x20 ADD PUSH1 0x40 MLOAD DUP1 SWAP2 SUB SWAP1 KECCAK256 DUP2 SWAP1 SSTORE POP PUSH1 0x1 DUP1 DUP1 DUP1 SLOAD SWAP1 POP PUSH2 0xB69 SWAP2 SWAP1 PUSH2 0x1EC3 JUMP JUMPDEST DUP2 SLOAD DUP2 LT PUSH2 0xB7A JUMPI PUSH2 0xB79 PUSH2 0x20E9 JUMP JUMPDEST JUMPDEST SWAP1 PUSH1 0x0 MSTORE PUSH1 0x20 PUSH1 0x0 KECCAK256 ADD PUSH1 0x1 PUSH2 0xB8F DUP5 PUSH2 0xE4E JUMP JUMPDEST DUP2 SLOAD DUP2 LT PUSH2 0xBA0 JUMPI PUSH2 0xB9F PUSH2 0x20E9 JUMP JUMPDEST JUMPDEST SWAP1 PUSH1 0x0 MSTORE PUSH1 0x20 PUSH1 0x0 KECCAK256 ADD SWAP1 DUP1 SLOAD PUSH2 0xBB6 SWAP1 PUSH2 0x1F81 JUMP JUMPDEST PUSH2 0xBC1 SWAP3 SWAP2 SWAP1 PUSH2 0x169B JUMP JUMPDEST POP PUSH1 0x1 DUP1 SLOAD DUP1 PUSH2 0xBD4 JUMPI PUSH2 0xBD3 PUSH2 0x20BA JUMP JUMPDEST JUMPDEST PUSH1 0x1 SWAP1 SUB DUP2 DUP2 SWAP1 PUSH1 0x0 MSTORE PUSH1 0x20 PUSH1 0x0 KECCAK256 ADD PUSH1 0x0 PUSH2 0xBF0 SWAP2 SWAP1 PUSH2 0x1728 JUMP JUMPDEST SWAP1 SSTORE PUSH1 0x0 ADDRESS PUSH20 0xFFFFFFFFFFFFFFFFFFFFFFFFFFFFFFFFFFFFFFFF AND CALLVALUE PUSH1 0x40 MLOAD PUSH2 0xC18 SWAP1 PUSH2 0x1BDB JUMP JUMPDEST PUSH1 0x0 PUSH1 0x40 MLOAD DUP1 DUP4 SUB DUP2 DUP6 DUP8 GAS CALL SWAP3 POP POP POP RETURNDATASIZE DUP1 PUSH1 0x0 DUP2 EQ PUSH2 0xC55 JUMPI PUSH1 0x40 MLOAD SWAP2 POP PUSH1 0x1F NOT PUSH1 0x3F RETURNDATASIZE ADD AND DUP3 ADD PUSH1 0x40 MSTORE RETURNDATASIZE DUP3 MSTORE RETURNDATASIZE PUSH1 0x0 PUSH1 0x20 DUP5 ADD RETURNDATACOPY PUSH2 0xC5A JUMP JUMPDEST PUSH1 0x60 SWAP2 POP JUMPDEST POP POP SWAP1 POP PUSH1 0x0 ADDRESS PUSH20 0xFFFFFFFFFFFFFFFFFFFFFFFFFFFFFFFFFFFFFFFF AND PUSH1 0x64 PUSH1 0x2 DUP7 PUSH1 0x40 MLOAD PUSH2 0xC89 SWAP2 SWAP1 PUSH2 0x1BC4 JUMP JUMPDEST SWAP1 DUP2 MSTORE PUSH1 0x20 ADD PUSH1 0x40 MLOAD DUP1 SWAP2 SUB SWAP1 KECCAK256 PUSH1 0x0 ADD SLOAD PUSH2 0xCA5 SWAP2 SWAP1 PUSH2 0x1E92 JUMP JUMPDEST PUSH1 0x40 MLOAD PUSH2 0xCB1 SWAP1 PUSH2 0x1BDB JUMP JUMPDEST PUSH1 0x0 PUSH1 0x40 MLOAD DUP1 DUP4 SUB DUP2 DUP6 DUP8 GAS CALL SWAP3 POP POP POP RETURNDATASIZE DUP1 PUSH1 0x0 DUP2 EQ PUSH2 0xCEE JUMPI PUSH1 0x40 MLOAD SWAP2 POP PUSH1 0x1F NOT PUSH1 0x3F RETURNDATASIZE ADD AND DUP3 ADD PUSH1 0x40 MSTORE RETURNDATASIZE DUP3 MSTORE RETURNDATASIZE PUSH1 0x0 PUSH1 0x20 DUP5 ADD RETURNDATACOPY PUSH2 0xCF3 JUMP JUMPDEST PUSH1 0x60 SWAP2 POP JUMPDEST POP POP SWAP1 POP DUP2 PUSH2 0xD37 JUMPI PUSH1 0x40 MLOAD PUSH32 0x8C379A000000000000000000000000000000000000000000000000000000000 DUP2 MSTORE PUSH1 0x4 ADD PUSH2 0xD2E SWAP1 PUSH2 0x1D1E JUMP JUMPDEST PUSH1 0x40 MLOAD DUP1 SWAP2 SUB SWAP1 REVERT JUMPDEST DUP1 PUSH2 0xD77 JUMPI PUSH1 0x40 MLOAD PUSH32 0x8C379A000000000000000000000000000000000000000000000000000000000 DUP2 MSTORE PUSH1 0x4 ADD PUSH2 0xD6E SWAP1 PUSH2 0x1D1E JUMP JUMPDEST PUSH1 0x40 MLOAD DUP1 SWAP2 SUB SWAP1 REVERT JUMPDEST CALLVALUE PUSH2 0xD81 DUP6 PUSH2 0x1216 JUMP JUMPDEST LT ISZERO PUSH2 0xE48 JUMPI PUSH1 0x0 CALLER PUSH20 0xFFFFFFFFFFFFFFFFFFFFFFFFFFFFFFFFFFFFFFFF AND PUSH2 0xDA9 DUP7 PUSH2 0x1216 JUMP JUMPDEST CALLVALUE PUSH2 0xDB4 SWAP2 SWAP1 PUSH2 0x1EC3 JUMP JUMPDEST PUSH1 0x40 MLOAD PUSH2 0xDC0 SWAP1 PUSH2 0x1BDB JUMP JUMPDEST PUSH1 0x0 PUSH1 0x40 MLOAD DUP1 DUP4 SUB DUP2 DUP6 DUP8 GAS CALL SWAP3 POP POP POP RETURNDATASIZE DUP1 PUSH1 0x0 DUP2 EQ PUSH2 0xDFD JUMPI PUSH1 0x40 MLOAD SWAP2 POP PUSH1 0x1F NOT PUSH1 0x3F RETURNDATASIZE ADD AND DUP3 ADD PUSH1 0x40 MSTORE RETURNDATASIZE DUP3 MSTORE RETURNDATASIZE PUSH1 0x0 PUSH1 0x20 DUP5 ADD RETURNDATACOPY PUSH2 0xE02 JUMP JUMPDEST PUSH1 0x60 SWAP2 POP JUMPDEST POP POP SWAP1 POP DUP1 PUSH2 0xE46 JUMPI PUSH1 0x40 MLOAD PUSH32 0x8C379A000000000000000000000000000000000000000000000000000000000 DUP2 MSTORE PUSH1 0x4 ADD PUSH2 0xE3D SWAP1 PUSH2 0x1C7E JUMP JUMPDEST PUSH1 0x40 MLOAD DUP1 SWAP2 SUB SWAP1 REVERT JUMPDEST POP JUMPDEST POP POP POP POP JUMP JUMPDEST PUSH1 0x0 DUP1 PUSH1 0x0 SWAP1 POP JUMPDEST PUSH1 0x1 DUP1 SLOAD SWAP1 POP DUP2 LT ISZERO PUSH2 0xEC0 JUMPI DUP3 DUP1 MLOAD SWAP1 PUSH1 0x20 ADD KECCAK256 PUSH1 0x1 DUP3 DUP2 SLOAD DUP2 LT PUSH2 0xE7F JUMPI PUSH2 0xE7E PUSH2 0x20E9 JUMP JUMPDEST JUMPDEST SWAP1 PUSH1 0x0 MSTORE PUSH1 0x20 PUSH1 0x0 KECCAK256 ADD PUSH1 0x40 MLOAD PUSH2 0xE96 SWAP2 SWAP1 PUSH2 0x1BAD JUMP JUMPDEST PUSH1 0x40 MLOAD DUP1 SWAP2 SUB SWAP1 KECCAK256 EQ ISZERO PUSH2 0xEAD JUMPI DUP1 SWAP2 POP POP PUSH2 0xEC7 JUMP JUMPDEST DUP1 DUP1 PUSH2 0xEB8 SWAP1 PUSH2 0x1FE4 JUMP JUMPDEST SWAP2 POP POP PUSH2 0xE56 JUMP JUMPDEST POP PUSH2 0x3E7 SWAP1 POP JUMPDEST SWAP2 SWAP1 POP JUMP JUMPDEST PUSH1 0x0 DUP1 SLOAD SWAP1 PUSH2 0x100 EXP SWAP1 DIV PUSH20 0xFFFFFFFFFFFFFFFFFFFFFFFFFFFFFFFFFFFFFFFF AND PUSH20 0xFFFFFFFFFFFFFFFFFFFFFFFFFFFFFFFFFFFFFFFF AND CALLER PUSH20 0xFFFFFFFFFFFFFFFFFFFFFFFFFFFFFFFFFFFFFFFF AND EQ PUSH2 0xF24 JUMPI PUSH1 0x0 DUP1 REVERT JUMPDEST ADDRESS PUSH20 0xFFFFFFFFFFFFFFFFFFFFFFFFFFFFFFFFFFFFFFFF AND SELFDESTRUCT JUMPDEST PUSH1 0x0 DUP2 TIMESTAMP LT PUSH2 0xF4F JUMPI PUSH1 0x1 SWAP1 POP PUSH2 0xF54 JUMP JUMPDEST PUSH1 0x0 SWAP1 POP JUMPDEST SWAP2 SWAP1 POP JUMP JUMPDEST PUSH1 0x0 DUP1 SLOAD SWAP1 PUSH2 0x100 EXP SWAP1 DIV PUSH20 0xFFFFFFFFFFFFFFFFFFFFFFFFFFFFFFFFFFFFFFFF AND PUSH20 0xFFFFFFFFFFFFFFFFFFFFFFFFFFFFFFFFFFFFFFFF AND CALLER PUSH20 0xFFFFFFFFFFFFFFFFFFFFFFFFFFFFFFFFFFFFFFFF AND EQ PUSH2 0xFB1 JUMPI PUSH1 0x0 DUP1 REVERT JUMPDEST PUSH2 0x3E7 PUSH2 0xFBD DUP3 PUSH2 0xE4E JUMP JUMPDEST LT PUSH2 0xFFD JUMPI PUSH1 0x40 MLOAD PUSH32 0x8C379A000000000000000000000000000000000000000000000000000000000 DUP2 MSTORE PUSH1 0x4 ADD PUSH2 0xFF4 SWAP1 PUSH2 0x1CDE JUMP JUMPDEST PUSH1 0x40 MLOAD DUP1 SWAP2 SUB SWAP1 REVERT JUMPDEST PUSH1 0x0 PUSH1 0x2 DUP3 PUSH1 0x40 MLOAD PUSH2 0x100F SWAP2 SWAP1 PUSH2 0x1BC4 JUMP JUMPDEST SWAP1 DUP2 MSTORE PUSH1 0x20 ADD PUSH1 0x40 MLOAD DUP1 SWAP2 SUB SWAP1 KECCAK256 PUSH1 0x2 ADD PUSH1 0x0 SWAP1 SLOAD SWAP1 PUSH2 0x100 EXP SWAP1 DIV PUSH20 0xFFFFFFFFFFFFFFFFFFFFFFFFFFFFFFFFFFFFFFFF AND PUSH20 0xFFFFFFFFFFFFFFFFFFFFFFFFFFFFFFFFFFFFFFFF AND PUSH1 0x64 PUSH1 0x2 DUP5 PUSH1 0x40 MLOAD PUSH2 0x1069 SWAP2 SWAP1 PUSH2 0x1BC4 JUMP JUMPDEST SWAP1 DUP2 MSTORE PUSH1 0x20 ADD PUSH1 0x40 MLOAD DUP1 SWAP2 SUB SWAP1 KECCAK256 PUSH1 0x0 ADD SLOAD PUSH2 0x1085 SWAP2 SWAP1 PUSH2 0x1E92 JUMP JUMPDEST PUSH1 0x40 MLOAD PUSH2 0x1091 SWAP1 PUSH2 0x1BDB JUMP JUMPDEST PUSH1 0x0 PUSH1 0x40 MLOAD DUP1 DUP4 SUB DUP2 DUP6 DUP8 GAS CALL SWAP3 POP POP POP RETURNDATASIZE DUP1 PUSH1 0x0 DUP2 EQ PUSH2 0x10CE JUMPI PUSH1 0x40 MLOAD SWAP2 POP PUSH1 0x1F NOT PUSH1 0x3F RETURNDATASIZE ADD AND DUP3 ADD PUSH1 0x40 MSTORE RETURNDATASIZE DUP3 MSTORE RETURNDATASIZE PUSH1 0x0 PUSH1 0x20 DUP5 ADD RETURNDATACOPY PUSH2 0x10D3 JUMP JUMPDEST PUSH1 0x60 SWAP2 POP JUMPDEST POP POP SWAP1 POP DUP1 PUSH2 0x1117 JUMPI PUSH1 0x40 MLOAD PUSH32 0x8C379A000000000000000000000000000000000000000000000000000000000 DUP2 MSTORE PUSH1 0x4 ADD PUSH2 0x110E SWAP1 PUSH2 0x1CFE JUMP JUMPDEST PUSH1 0x40 MLOAD DUP1 SWAP2 SUB SWAP1 REVERT JUMPDEST PUSH1 0x1 DUP1 DUP1 DUP1 SLOAD SWAP1 POP PUSH2 0x1129 SWAP2 SWAP1 PUSH2 0x1EC3 JUMP JUMPDEST DUP2 SLOAD DUP2 LT PUSH2 0x113A JUMPI PUSH2 0x1139 PUSH2 0x20E9 JUMP JUMPDEST JUMPDEST SWAP1 PUSH1 0x0 MSTORE PUSH1 0x20 PUSH1 0x0 KECCAK256 ADD PUSH1 0x1 PUSH2 0x114F DUP5 PUSH2 0xE4E JUMP JUMPDEST DUP2 SLOAD DUP2 LT PUSH2 0x1160 JUMPI PUSH2 0x115F PUSH2 0x20E9 JUMP JUMPDEST JUMPDEST SWAP1 PUSH1 0x0 MSTORE PUSH1 0x20 PUSH1 0x0 KECCAK256 ADD SWAP1 DUP1 SLOAD PUSH2 0x1176 SWAP1 PUSH2 0x1F81 JUMP JUMPDEST PUSH2 0x1181 SWAP3 SWAP2 SWAP1 PUSH2 0x169B JUMP JUMPDEST POP PUSH1 0x1 DUP1 SLOAD DUP1 PUSH2 0x1194 JUMPI PUSH2 0x1193 PUSH2 0x20BA JUMP JUMPDEST JUMPDEST PUSH1 0x1 SWAP1 SUB DUP2 DUP2 SWAP1 PUSH1 0x0 MSTORE PUSH1 0x20 PUSH1 0x0 KECCAK256 ADD PUSH1 0x0 PUSH2 0x11B0 SWAP2 SWAP1 PUSH2 0x1728 JUMP JUMPDEST SWAP1 SSTORE PUSH1 0x2 DUP3 PUSH1 0x40 MLOAD PUSH2 0x11C2 SWAP2 SWAP1 PUSH2 0x1BC4 JUMP JUMPDEST SWAP1 DUP2 MSTORE PUSH1 0x20 ADD PUSH1 0x40 MLOAD DUP1 SWAP2 SUB SWAP1 KECCAK256 PUSH1 0x0 DUP1 DUP3 ADD PUSH1 0x0 SWAP1 SSTORE PUSH1 0x1 DUP3 ADD PUSH1 0x0 PUSH2 0x11E9 SWAP2 SWAP1 PUSH2 0x154F JUMP JUMPDEST PUSH1 0x2 DUP3 ADD PUSH1 0x0 PUSH2 0x100 EXP DUP2 SLOAD SWAP1 PUSH20 0xFFFFFFFFFFFFFFFFFFFFFFFFFFFFFFFFFFFFFFFF MUL NOT AND SWAP1 SSTORE POP POP POP POP JUMP JUMPDEST PUSH1 0x0 PUSH1 0x2 DUP3 PUSH1 0x40 MLOAD PUSH2 0x1228 SWAP2 SWAP1 PUSH2 0x1BC4 JUMP JUMPDEST SWAP1 DUP2 MSTORE PUSH1 0x20 ADD PUSH1 0x40 MLOAD DUP1 SWAP2 SUB SWAP1 KECCAK256 PUSH1 0x0 ADD SLOAD SWAP1 POP SWAP2 SWAP1 POP JUMP JUMPDEST PUSH1 0x0 JUMPDEST PUSH1 0x1 DUP1 SLOAD SWAP1 POP DUP2 LT ISZERO PUSH2 0x13CF JUMPI PUSH1 0x0 PUSH1 0x1 DUP3 DUP2 SLOAD DUP2 LT PUSH2 0x1267 JUMPI PUSH2 0x1266 PUSH2 0x20E9 JUMP JUMPDEST JUMPDEST SWAP1 PUSH1 0x0 MSTORE PUSH1 0x20 PUSH1 0x0 KECCAK256 ADD DUP1 SLOAD PUSH2 0x127C SWAP1 PUSH2 0x1F81 JUMP JUMPDEST DUP1 PUSH1 0x1F ADD PUSH1 0x20 DUP1 SWAP2 DIV MUL PUSH1 0x20 ADD PUSH1 0x40 MLOAD SWAP1 DUP2 ADD PUSH1 0x40 MSTORE DUP1 SWAP3 SWAP2 SWAP1 DUP2 DUP2 MSTORE PUSH1 0x20 ADD DUP3 DUP1 SLOAD PUSH2 0x12A8 SWAP1 PUSH2 0x1F81 JUMP JUMPDEST DUP1 ISZERO PUSH2 0x12F5 JUMPI DUP1 PUSH1 0x1F LT PUSH2 0x12CA JUMPI PUSH2 0x100 DUP1 DUP4 SLOAD DIV MUL DUP4 MSTORE SWAP2 PUSH1 0x20 ADD SWAP2 PUSH2 0x12F5 JUMP JUMPDEST DUP3 ADD SWAP2 SWAP1 PUSH1 0x0 MSTORE PUSH1 0x20 PUSH1 0x0 KECCAK256 SWAP1 JUMPDEST DUP2 SLOAD DUP2 MSTORE SWAP1 PUSH1 0x1 ADD SWAP1 PUSH1 0x20 ADD DUP1 DUP4 GT PUSH2 0x12D8 JUMPI DUP3 SWAP1 SUB PUSH1 0x1F AND DUP3 ADD SWAP2 JUMPDEST POP POP POP POP POP SWAP1 POP PUSH32 0x8421FC2459E9D0F7A0D6D573FB7AB7B48C410D971688B840EFB276CA33A55A61 DUP2 PUSH1 0x2 DUP4 PUSH1 0x40 MLOAD PUSH2 0x132E SWAP2 SWAP1 PUSH2 0x1BC4 JUMP JUMPDEST SWAP1 DUP2 MSTORE PUSH1 0x20 ADD PUSH1 0x40 MLOAD DUP1 SWAP2 SUB SWAP1 KECCAK256 PUSH1 0x0 ADD SLOAD PUSH1 0x2 DUP5 PUSH1 0x40 MLOAD PUSH2 0x1350 SWAP2 SWAP1 PUSH2 0x1BC4 JUMP JUMPDEST SWAP1 DUP2 MSTORE PUSH1 0x20 ADD PUSH1 0x40 MLOAD DUP1 SWAP2 SUB SWAP1 KECCAK256 PUSH1 0x1 ADD PUSH1 0x2 DUP6 PUSH1 0x40 MLOAD PUSH2 0x1371 SWAP2 SWAP1 PUSH2 0x1BC4 JUMP JUMPDEST SWAP1 DUP2 MSTORE PUSH1 0x20 ADD PUSH1 0x40 MLOAD DUP1 SWAP2 SUB SWAP1 KECCAK256 PUSH1 0x2 ADD PUSH1 0x0 SWAP1 SLOAD SWAP1 PUSH2 0x100 EXP SWAP1 DIV PUSH20 0xFFFFFFFFFFFFFFFFFFFFFFFFFFFFFFFFFFFFFFFF AND PUSH1 0x40 MLOAD PUSH2 0x13B3 SWAP5 SWAP4 SWAP3 SWAP2 SWAP1 PUSH2 0x1C0B JUMP JUMPDEST PUSH1 0x40 MLOAD DUP1 SWAP2 SUB SWAP1 LOG1 POP DUP1 DUP1 PUSH2 0x13C7 SWAP1 PUSH2 0x1FE4 JUMP JUMPDEST SWAP2 POP POP PUSH2 0x1244 JUMP JUMPDEST POP JUMP JUMPDEST CALLER PUSH20 0xFFFFFFFFFFFFFFFFFFFFFFFFFFFFFFFFFFFFFFFF AND PUSH1 0x4 DUP3 PUSH1 0x40 MLOAD PUSH2 0x13F9 SWAP2 SWAP1 PUSH2 0x1BC4 JUMP JUMPDEST SWAP1 DUP2 MSTORE PUSH1 0x20 ADD PUSH1 0x40 MLOAD DUP1 SWAP2 SUB SWAP1 KECCAK256 PUSH1 0x0 SWAP1 SLOAD SWAP1 PUSH2 0x100 EXP SWAP1 DIV PUSH20 0xFFFFFFFFFFFFFFFFFFFFFFFFFFFFFFFFFFFFFFFF AND PUSH20 0xFFFFFFFFFFFFFFFFFFFFFFFFFFFFFFFFFFFFFFFF AND EQ PUSH2 0x147E JUMPI PUSH1 0x40 MLOAD PUSH32 0x8C379A000000000000000000000000000000000000000000000000000000000 DUP2 MSTORE PUSH1 0x4 ADD PUSH2 0x1475 SWAP1 PUSH2 0x1C5E JUMP JUMPDEST PUSH1 0x40 MLOAD DUP1 SWAP2 SUB SWAP1 REVERT JUMPDEST PUSH1 0x0 CALLER PUSH20 0xFFFFFFFFFFFFFFFFFFFFFFFFFFFFFFFFFFFFFFFF AND PUSH1 0x2 DUP4 PUSH1 0x40 MLOAD PUSH2 0x14A7 SWAP2 SWAP1 PUSH2 0x1BC4 JUMP JUMPDEST SWAP1 DUP2 MSTORE PUSH1 0x20 ADD PUSH1 0x40 MLOAD DUP1 SWAP2 SUB SWAP1 KECCAK256 PUSH1 0x0 ADD SLOAD PUSH1 0x40 MLOAD PUSH2 0x14C5 SWAP1 PUSH2 0x1BDB JUMP JUMPDEST PUSH1 0x0 PUSH1 0x40 MLOAD DUP1 DUP4 SUB DUP2 DUP6 DUP8 GAS CALL SWAP3 POP POP POP RETURNDATASIZE DUP1 PUSH1 0x0 DUP2 EQ PUSH2 0x1502 JUMPI PUSH1 0x40 MLOAD SWAP2 POP PUSH1 0x1F NOT PUSH1 0x3F RETURNDATASIZE ADD AND DUP3 ADD PUSH1 0x40 MSTORE RETURNDATASIZE DUP3 MSTORE RETURNDATASIZE PUSH1 0x0 PUSH1 0x20 DUP5 ADD RETURNDATACOPY PUSH2 0x1507 JUMP JUMPDEST PUSH1 0x60 SWAP2 POP JUMPDEST POP POP SWAP1 POP DUP1 PUSH2 0x154B JUMPI PUSH1 0x40 MLOAD PUSH32 0x8C379A000000000000000000000000000000000000000000000000000000000 DUP2 MSTORE PUSH1 0x4 ADD PUSH2 0x1542 SWAP1 PUSH2 0x1D1E JUMP JUMPDEST PUSH1 0x40 MLOAD DUP1 SWAP2 SUB SWAP1 REVERT JUMPDEST POP POP JUMP JUMPDEST POP DUP1 SLOAD PUSH2 0x155B SWAP1 PUSH2 0x1F81 JUMP JUMPDEST PUSH1 0x0 DUP3 SSTORE DUP1 PUSH1 0x1F LT PUSH2 0x156D JUMPI POP PUSH2 0x158C JUMP JUMPDEST PUSH1 0x1F ADD PUSH1 0x20 SWAP1 DIV SWAP1 PUSH1 0x0 MSTORE PUSH1 0x20 PUSH1 0x0 KECCAK256 SWAP1 DUP2 ADD SWAP1 PUSH2 0x158B SWAP2 SWAP1 PUSH2 0x1768 JUMP JUMPDEST JUMPDEST POP JUMP JUMPDEST DUP3 DUP1 SLOAD PUSH2 0x159B SWAP1 PUSH2 0x1F81 JUMP JUMPDEST SWAP1 PUSH1 0x0 MSTORE PUSH1 0x20 PUSH1 0x0 KECCAK256 SWAP1 PUSH1 0x1F ADD PUSH1 0x20 SWAP1 DIV DUP2 ADD SWAP3 DUP3 PUSH2 0x15BD JUMPI PUSH1 0x0 DUP6 SSTORE PUSH2 0x1604 JUMP JUMPDEST DUP3 PUSH1 0x1F LT PUSH2 0x15D6 JUMPI DUP1 MLOAD PUSH1 0xFF NOT AND DUP4 DUP1 ADD OR DUP6 SSTORE PUSH2 0x1604 JUMP JUMPDEST DUP3 DUP1 ADD PUSH1 0x1 ADD DUP6 SSTORE DUP3 ISZERO PUSH2 0x1604 JUMPI SWAP2 DUP3 ADD JUMPDEST DUP3 DUP2 GT ISZERO PUSH2 0x1603 JUMPI DUP3 MLOAD DUP3 SSTORE SWAP2 PUSH1 0x20 ADD SWAP2 SWAP1 PUSH1 0x1 ADD SWAP1 PUSH2 0x15E8 JUMP JUMPDEST JUMPDEST POP SWAP1 POP PUSH2 0x1611 SWAP2 SWAP1 PUSH2 0x1768 JUMP JUMPDEST POP SWAP1 JUMP JUMPDEST DUP3 DUP1 SLOAD PUSH2 0x1621 SWAP1 PUSH2 0x1F81 JUMP JUMPDEST SWAP1 PUSH1 0x0 MSTORE PUSH1 0x20 PUSH1 0x0 KECCAK256 SWAP1 PUSH1 0x1F ADD PUSH1 0x20 SWAP1 DIV DUP2 ADD SWAP3 DUP3 PUSH2 0x1643 JUMPI PUSH1 0x0 DUP6 SSTORE PUSH2 0x168A JUMP JUMPDEST DUP3 PUSH1 0x1F LT PUSH2 0x165C JUMPI DUP1 MLOAD PUSH1 0xFF NOT AND DUP4 DUP1 ADD OR DUP6 SSTORE PUSH2 0x168A JUMP JUMPDEST DUP3 DUP1 ADD PUSH1 0x1 ADD DUP6 SSTORE DUP3 ISZERO PUSH2 0x168A JUMPI SWAP2 DUP3 ADD JUMPDEST DUP3 DUP2 GT ISZERO PUSH2 0x1689 JUMPI DUP3 MLOAD DUP3 SSTORE SWAP2 PUSH1 0x20 ADD SWAP2 SWAP1 PUSH1 0x1 ADD SWAP1 PUSH2 0x166E JUMP JUMPDEST JUMPDEST POP SWAP1 POP PUSH2 0x1697 SWAP2 SWAP1 PUSH2 0x1768 JUMP JUMPDEST POP SWAP1 JUMP JUMPDEST DUP3 DUP1 SLOAD PUSH2 0x16A7 SWAP1 PUSH2 0x1F81 JUMP JUMPDEST SWAP1 PUSH1 0x0 MSTORE PUSH1 0x20 PUSH1 0x0 KECCAK256 SWAP1 PUSH1 0x1F ADD PUSH1 0x20 SWAP1 DIV DUP2 ADD SWAP3 DUP3 PUSH2 0x16C9 JUMPI PUSH1 0x0 DUP6 SSTORE PUSH2 0x1717 JUMP JUMPDEST DUP3 PUSH1 0x1F LT PUSH2 0x16DA JUMPI DUP1 SLOAD DUP6 SSTORE PUSH2 0x1717 JUMP JUMPDEST DUP3 DUP1 ADD PUSH1 0x1 ADD DUP6 SSTORE DUP3 ISZERO PUSH2 0x1717 JUMPI PUSH1 0x0 MSTORE PUSH1 0x20 PUSH1 0x0 KECCAK256 SWAP2 PUSH1 0x1F ADD PUSH1 0x20 SWAP1 DIV DUP3 ADD JUMPDEST DUP3 DUP2 GT ISZERO PUSH2 0x1716 JUMPI DUP3 SLOAD DUP3 SSTORE SWAP2 PUSH1 0x1 ADD SWAP2 SWAP1 PUSH1 0x1 ADD SWAP1 PUSH2 0x16FB JUMP JUMPDEST JUMPDEST POP SWAP1 POP PUSH2 0x1724 SWAP2 SWAP1 PUSH2 0x1768 JUMP JUMPDEST POP SWAP1 JUMP JUMPDEST POP DUP1 SLOAD PUSH2 0x1734 SWAP1 PUSH2 0x1F81 JUMP JUMPDEST PUSH1 0x0 DUP3 SSTORE DUP1 PUSH1 0x1F LT PUSH2 0x1746 JUMPI POP PUSH2 0x1765 JUMP JUMPDEST PUSH1 0x1F ADD PUSH1 0x20 SWAP1 DIV SWAP1 PUSH1 0x0 MSTORE PUSH1 0x20 PUSH1 0x0 KECCAK256 SWAP1 DUP2 ADD SWAP1 PUSH2 0x1764 SWAP2 SWAP1 PUSH2 0x1768 JUMP JUMPDEST JUMPDEST POP JUMP JUMPDEST JUMPDEST DUP1 DUP3 GT ISZERO PUSH2 0x1781 JUMPI PUSH1 0x0 DUP2 PUSH1 0x0 SWAP1 SSTORE POP PUSH1 0x1 ADD PUSH2 0x1769 JUMP JUMPDEST POP SWAP1 JUMP JUMPDEST PUSH1 0x0 PUSH2 0x1798 PUSH2 0x1793 DUP5 PUSH2 0x1D9E JUMP JUMPDEST PUSH2 0x1D79 JUMP JUMPDEST SWAP1 POP DUP3 DUP2 MSTORE PUSH1 0x20 DUP2 ADD DUP5 DUP5 DUP5 ADD GT ISZERO PUSH2 0x17B4 JUMPI PUSH2 0x17B3 PUSH2 0x214C JUMP JUMPDEST JUMPDEST PUSH2 0x17BF DUP5 DUP3 DUP6 PUSH2 0x1F3F JUMP JUMPDEST POP SWAP4 SWAP3 POP POP POP JUMP JUMPDEST PUSH1 0x0 DUP3 PUSH1 0x1F DUP4 ADD SLT PUSH2 0x17DC JUMPI PUSH2 0x17DB PUSH2 0x2147 JUMP JUMPDEST JUMPDEST DUP2 CALLDATALOAD PUSH2 0x17EC DUP5 DUP3 PUSH1 0x20 DUP7 ADD PUSH2 0x1785 JUMP JUMPDEST SWAP2 POP POP SWAP3 SWAP2 POP POP JUMP JUMPDEST PUSH1 0x0 DUP2 CALLDATALOAD SWAP1 POP PUSH2 0x1804 DUP2 PUSH2 0x22DD JUMP JUMPDEST SWAP3 SWAP2 POP POP JUMP JUMPDEST PUSH1 0x0 PUSH1 0x20 DUP3 DUP5 SUB SLT ISZERO PUSH2 0x1820 JUMPI PUSH2 0x181F PUSH2 0x2156 JUMP JUMPDEST JUMPDEST PUSH1 0x0 DUP3 ADD CALLDATALOAD PUSH8 0xFFFFFFFFFFFFFFFF DUP2 GT ISZERO PUSH2 0x183E JUMPI PUSH2 0x183D PUSH2 0x2151 JUMP JUMPDEST JUMPDEST PUSH2 0x184A DUP5 DUP3 DUP6 ADD PUSH2 0x17C7 JUMP JUMPDEST SWAP2 POP POP SWAP3 SWAP2 POP POP JUMP JUMPDEST PUSH1 0x0 DUP1 PUSH1 0x40 DUP4 DUP6 SUB SLT ISZERO PUSH2 0x186A JUMPI PUSH2 0x1869 PUSH2 0x2156 JUMP JUMPDEST JUMPDEST PUSH1 0x0 DUP4 ADD CALLDATALOAD PUSH8 0xFFFFFFFFFFFFFFFF DUP2 GT ISZERO PUSH2 0x1888 JUMPI PUSH2 0x1887 PUSH2 0x2151 JUMP JUMPDEST JUMPDEST PUSH2 0x1894 DUP6 DUP3 DUP7 ADD PUSH2 0x17C7 JUMP JUMPDEST SWAP3 POP POP PUSH1 0x20 PUSH2 0x18A5 DUP6 DUP3 DUP7 ADD PUSH2 0x17F5 JUMP JUMPDEST SWAP2 POP POP SWAP3 POP SWAP3 SWAP1 POP JUMP JUMPDEST PUSH1 0x0 PUSH1 0x20 DUP3 DUP5 SUB SLT ISZERO PUSH2 0x18C5 JUMPI PUSH2 0x18C4 PUSH2 0x2156 JUMP JUMPDEST JUMPDEST PUSH1 0x0 PUSH2 0x18D3 DUP5 DUP3 DUP6 ADD PUSH2 0x17F5 JUMP JUMPDEST SWAP2 POP POP SWAP3 SWAP2 POP POP JUMP JUMPDEST PUSH2 0x18E5 DUP2 PUSH2 0x1EF7 JUMP JUMPDEST DUP3 MSTORE POP POP JUMP JUMPDEST PUSH2 0x18F4 DUP2 PUSH2 0x1F09 JUMP JUMPDEST DUP3 MSTORE POP POP JUMP JUMPDEST PUSH1 0x0 DUP2 SLOAD PUSH2 0x1907 DUP2 PUSH2 0x1F81 JUMP JUMPDEST PUSH2 0x1911 DUP2 DUP7 PUSH2 0x1E15 JUMP JUMPDEST SWAP5 POP PUSH1 0x1 DUP3 AND PUSH1 0x0 DUP2 EQ PUSH2 0x192C JUMPI PUSH1 0x1 DUP2 EQ PUSH2 0x193D JUMPI PUSH2 0x1970 JUMP JUMPDEST PUSH1 0xFF NOT DUP4 AND DUP7 MSTORE DUP2 DUP7 ADD SWAP4 POP PUSH2 0x1970 JUMP JUMPDEST PUSH2 0x1946 DUP6 PUSH2 0x1DE4 JUMP JUMPDEST PUSH1 0x0 JUMPDEST DUP4 DUP2 LT ISZERO PUSH2 0x1968 JUMPI DUP2 SLOAD DUP2 DUP10 ADD MSTORE PUSH1 0x1 DUP3 ADD SWAP2 POP PUSH1 0x20 DUP2 ADD SWAP1 POP PUSH2 0x1949 JUMP JUMPDEST DUP4 DUP9 ADD SWAP6 POP POP POP JUMPDEST POP POP POP SWAP3 SWAP2 POP POP JUMP JUMPDEST PUSH1 0x0 DUP2 SLOAD PUSH2 0x1986 DUP2 PUSH2 0x1F81 JUMP JUMPDEST PUSH2 0x1990 DUP2 DUP7 PUSH2 0x1E04 JUMP JUMPDEST SWAP5 POP PUSH1 0x1 DUP3 AND PUSH1 0x0 DUP2 EQ PUSH2 0x19AB JUMPI PUSH1 0x1 DUP2 EQ PUSH2 0x19BD JUMPI PUSH2 0x19F0 JUMP JUMPDEST PUSH1 0xFF NOT DUP4 AND DUP7 MSTORE PUSH1 0x20 DUP7 ADD SWAP4 POP PUSH2 0x19F0 JUMP JUMPDEST PUSH2 0x19C6 DUP6 PUSH2 0x1DCF JUMP JUMPDEST PUSH1 0x0 JUMPDEST DUP4 DUP2 LT ISZERO PUSH2 0x19E8 JUMPI DUP2 SLOAD DUP2 DUP10 ADD MSTORE PUSH1 0x1 DUP3 ADD SWAP2 POP PUSH1 0x20 DUP2 ADD SWAP1 POP PUSH2 0x19C9 JUMP JUMPDEST DUP1 DUP9 ADD SWAP6 POP POP POP JUMPDEST POP POP POP SWAP3 SWAP2 POP POP JUMP JUMPDEST PUSH1 0x0 PUSH2 0x1A04 DUP3 PUSH2 0x1DF9 JUMP JUMPDEST PUSH2 0x1A0E DUP2 DUP6 PUSH2 0x1E20 JUMP JUMPDEST SWAP4 POP PUSH2 0x1A1E DUP2 DUP6 PUSH1 0x20 DUP7 ADD PUSH2 0x1F4E JUMP JUMPDEST PUSH2 0x1A27 DUP2 PUSH2 0x215B JUMP JUMPDEST DUP5 ADD SWAP2 POP POP SWAP3 SWAP2 POP POP JUMP JUMPDEST PUSH1 0x0 PUSH2 0x1A3D DUP3 PUSH2 0x1DF9 JUMP JUMPDEST PUSH2 0x1A47 DUP2 DUP6 PUSH2 0x1E31 JUMP JUMPDEST SWAP4 POP PUSH2 0x1A57 DUP2 DUP6 PUSH1 0x20 DUP7 ADD PUSH2 0x1F4E JUMP JUMPDEST DUP1 DUP5 ADD SWAP2 POP POP SWAP3 SWAP2 POP POP JUMP JUMPDEST PUSH1 0x0 PUSH2 0x1A70 PUSH1 0x29 DUP4 PUSH2 0x1E20 JUMP JUMPDEST SWAP2 POP PUSH2 0x1A7B DUP3 PUSH2 0x216C JUMP JUMPDEST PUSH1 0x40 DUP3 ADD SWAP1 POP SWAP2 SWAP1 POP JUMP JUMPDEST PUSH1 0x0 PUSH2 0x1A93 PUSH1 0x17 DUP4 PUSH2 0x1E20 JUMP JUMPDEST SWAP2 POP PUSH2 0x1A9E DUP3 PUSH2 0x21BB JUMP JUMPDEST PUSH1 0x20 DUP3 ADD SWAP1 POP SWAP2 SWAP1 POP JUMP JUMPDEST PUSH1 0x0 PUSH2 0x1AB6 PUSH1 0xF DUP4 PUSH2 0x1E20 JUMP JUMPDEST SWAP2 POP PUSH2 0x1AC1 DUP3 PUSH2 0x21E4 JUMP JUMPDEST PUSH1 0x20 DUP3 ADD SWAP1 POP SWAP2 SWAP1 POP JUMP JUMPDEST PUSH1 0x0 PUSH2 0x1AD9 PUSH1 0x16 DUP4 PUSH2 0x1E20 JUMP JUMPDEST SWAP2 POP PUSH2 0x1AE4 DUP3 PUSH2 0x220D JUMP JUMPDEST PUSH1 0x20 DUP3 ADD SWAP1 POP SWAP2 SWAP1 POP JUMP JUMPDEST PUSH1 0x0 PUSH2 0x1AFC PUSH1 0xE DUP4 PUSH2 0x1E20 JUMP JUMPDEST SWAP2 POP PUSH2 0x1B07 DUP3 PUSH2 0x2236 JUMP JUMPDEST PUSH1 0x20 DUP3 ADD SWAP1 POP SWAP2 SWAP1 POP JUMP JUMPDEST PUSH1 0x0 PUSH2 0x1B1F PUSH1 0x14 DUP4 PUSH2 0x1E20 JUMP JUMPDEST SWAP2 POP PUSH2 0x1B2A DUP3 PUSH2 0x225F JUMP JUMPDEST PUSH1 0x20 DUP3 ADD SWAP1 POP SWAP2 SWAP1 POP JUMP JUMPDEST PUSH1 0x0 PUSH2 0x1B42 PUSH1 0xD DUP4 PUSH2 0x1E20 JUMP JUMPDEST SWAP2 POP PUSH2 0x1B4D DUP3 PUSH2 0x2288 JUMP JUMPDEST PUSH1 0x20 DUP3 ADD SWAP1 POP SWAP2 SWAP1 POP JUMP JUMPDEST PUSH1 0x0 PUSH2 0x1B65 PUSH1 0x0 DUP4 PUSH2 0x1E15 JUMP JUMPDEST SWAP2 POP PUSH2 0x1B70 DUP3 PUSH2 0x22B1 JUMP JUMPDEST PUSH1 0x0 DUP3 ADD SWAP1 POP SWAP2 SWAP1 POP JUMP JUMPDEST PUSH1 0x0 PUSH2 0x1B88 PUSH1 0xD DUP4 PUSH2 0x1E20 JUMP JUMPDEST SWAP2 POP PUSH2 0x1B93 DUP3 PUSH2 0x22B4 JUMP JUMPDEST PUSH1 0x20 DUP3 ADD SWAP1 POP SWAP2 SWAP1 POP JUMP JUMPDEST PUSH2 0x1BA7 DUP2 PUSH2 0x1F35 JUMP JUMPDEST DUP3 MSTORE POP POP JUMP JUMPDEST PUSH1 0x0 PUSH2 0x1BB9 DUP3 DUP5 PUSH2 0x18FA JUMP JUMPDEST SWAP2 POP DUP2 SWAP1 POP SWAP3 SWAP2 POP POP JUMP JUMPDEST PUSH1 0x0 PUSH2 0x1BD0 DUP3 DUP5 PUSH2 0x1A32 JUMP JUMPDEST SWAP2 POP DUP2 SWAP1 POP SWAP3 SWAP2 POP POP JUMP JUMPDEST PUSH1 0x0 PUSH2 0x1BE6 DUP3 PUSH2 0x1B58 JUMP JUMPDEST SWAP2 POP DUP2 SWAP1 POP SWAP2 SWAP1 POP JUMP JUMPDEST PUSH1 0x0 PUSH1 0x20 DUP3 ADD SWAP1 POP PUSH2 0x1C05 PUSH1 0x0 DUP4 ADD DUP5 PUSH2 0x18EB JUMP JUMPDEST SWAP3 SWAP2 POP POP JUMP JUMPDEST PUSH1 0x0 PUSH1 0x80 DUP3 ADD SWAP1 POP DUP2 DUP2 SUB PUSH1 0x0 DUP4 ADD MSTORE PUSH2 0x1C25 DUP2 DUP8 PUSH2 0x19F9 JUMP JUMPDEST SWAP1 POP PUSH2 0x1C34 PUSH1 0x20 DUP4 ADD DUP7 PUSH2 0x1B9E JUMP JUMPDEST DUP2 DUP2 SUB PUSH1 0x40 DUP4 ADD MSTORE PUSH2 0x1C46 DUP2 DUP6 PUSH2 0x1979 JUMP JUMPDEST SWAP1 POP PUSH2 0x1C55 PUSH1 0x60 DUP4 ADD DUP5 PUSH2 0x18DC JUMP JUMPDEST SWAP6 SWAP5 POP POP POP POP POP JUMP JUMPDEST PUSH1 0x0 PUSH1 0x20 DUP3 ADD SWAP1 POP DUP2 DUP2 SUB PUSH1 0x0 DUP4 ADD MSTORE PUSH2 0x1C77 DUP2 PUSH2 0x1A63 JUMP JUMPDEST SWAP1 POP SWAP2 SWAP1 POP JUMP JUMPDEST PUSH1 0x0 PUSH1 0x20 DUP3 ADD SWAP1 POP DUP2 DUP2 SUB PUSH1 0x0 DUP4 ADD MSTORE PUSH2 0x1C97 DUP2 PUSH2 0x1A86 JUMP JUMPDEST SWAP1 POP SWAP2 SWAP1 POP JUMP JUMPDEST PUSH1 0x0 PUSH1 0x20 DUP3 ADD SWAP1 POP DUP2 DUP2 SUB PUSH1 0x0 DUP4 ADD MSTORE PUSH2 0x1CB7 DUP2 PUSH2 0x1AA9 JUMP JUMPDEST SWAP1 POP SWAP2 SWAP1 POP JUMP JUMPDEST PUSH1 0x0 PUSH1 0x20 DUP3 ADD SWAP1 POP DUP2 DUP2 SUB PUSH1 0x0 DUP4 ADD MSTORE PUSH2 0x1CD7 DUP2 PUSH2 0x1ACC JUMP JUMPDEST SWAP1 POP SWAP2 SWAP1 POP JUMP JUMPDEST PUSH1 0x0 PUSH1 0x20 DUP3 ADD SWAP1 POP DUP2 DUP2 SUB PUSH1 0x0 DUP4 ADD MSTORE PUSH2 0x1CF7 DUP2 PUSH2 0x1AEF JUMP JUMPDEST SWAP1 POP SWAP2 SWAP1 POP JUMP JUMPDEST PUSH1 0x0 PUSH1 0x20 DUP3 ADD SWAP1 POP DUP2 DUP2 SUB PUSH1 0x0 DUP4 ADD MSTORE PUSH2 0x1D17 DUP2 PUSH2 0x1B12 JUMP JUMPDEST SWAP1 POP SWAP2 SWAP1 POP JUMP JUMPDEST PUSH1 0x0 PUSH1 0x20 DUP3 ADD SWAP1 POP DUP2 DUP2 SUB PUSH1 0x0 DUP4 ADD MSTORE PUSH2 0x1D37 DUP2 PUSH2 0x1B35 JUMP JUMPDEST SWAP1 POP SWAP2 SWAP1 POP JUMP JUMPDEST PUSH1 0x0 PUSH1 0x20 DUP3 ADD SWAP1 POP DUP2 DUP2 SUB PUSH1 0x0 DUP4 ADD MSTORE PUSH2 0x1D57 DUP2 PUSH2 0x1B7B JUMP JUMPDEST SWAP1 POP SWAP2 SWAP1 POP JUMP JUMPDEST PUSH1 0x0 PUSH1 0x20 DUP3 ADD SWAP1 POP PUSH2 0x1D73 PUSH1 0x0 DUP4 ADD DUP5 PUSH2 0x1B9E JUMP JUMPDEST SWAP3 SWAP2 POP POP JUMP JUMPDEST PUSH1 0x0 PUSH2 0x1D83 PUSH2 0x1D94 JUMP JUMPDEST SWAP1 POP PUSH2 0x1D8F DUP3 DUP3 PUSH2 0x1FB3 JUMP JUMPDEST SWAP2 SWAP1 POP JUMP JUMPDEST PUSH1 0x0 PUSH1 0x40 MLOAD SWAP1 POP SWAP1 JUMP JUMPDEST PUSH1 0x0 PUSH8 0xFFFFFFFFFFFFFFFF DUP3 GT ISZERO PUSH2 0x1DB9 JUMPI PUSH2 0x1DB8 PUSH2 0x2118 JUMP JUMPDEST JUMPDEST PUSH2 0x1DC2 DUP3 PUSH2 0x215B JUMP JUMPDEST SWAP1 POP PUSH1 0x20 DUP2 ADD SWAP1 POP SWAP2 SWAP1 POP JUMP JUMPDEST PUSH1 0x0 DUP2 SWAP1 POP DUP2 PUSH1 0x0 MSTORE PUSH1 0x20 PUSH1 0x0 KECCAK256 SWAP1 POP SWAP2 SWAP1 POP JUMP JUMPDEST PUSH1 0x0 DUP2 SWAP1 POP DUP2 PUSH1 0x0 MSTORE PUSH1 0x20 PUSH1 0x0 KECCAK256 SWAP1 POP SWAP2 SWAP1 POP JUMP JUMPDEST PUSH1 0x0 DUP2 MLOAD SWAP1 POP SWAP2 SWAP1 POP JUMP JUMPDEST PUSH1 0x0 DUP3 DUP3 MSTORE PUSH1 0x20 DUP3 ADD SWAP1 POP SWAP3 SWAP2 POP POP JUMP JUMPDEST PUSH1 0x0 DUP2 SWAP1 POP SWAP3 SWAP2 POP POP JUMP JUMPDEST PUSH1 0x0 DUP3 DUP3 MSTORE PUSH1 0x20 DUP3 ADD SWAP1 POP SWAP3 SWAP2 POP POP JUMP JUMPDEST PUSH1 0x0 DUP2 SWAP1 POP SWAP3 SWAP2 POP POP JUMP JUMPDEST PUSH1 0x0 PUSH2 0x1E47 DUP3 PUSH2 0x1F35 JUMP JUMPDEST SWAP2 POP PUSH2 0x1E52 DUP4 PUSH2 0x1F35 JUMP JUMPDEST SWAP3 POP DUP3 PUSH32 0xFFFFFFFFFFFFFFFFFFFFFFFFFFFFFFFFFFFFFFFFFFFFFFFFFFFFFFFFFFFFFFFF SUB DUP3 GT ISZERO PUSH2 0x1E87 JUMPI PUSH2 0x1E86 PUSH2 0x202D JUMP JUMPDEST JUMPDEST DUP3 DUP3 ADD SWAP1 POP SWAP3 SWAP2 POP POP JUMP JUMPDEST PUSH1 0x0 PUSH2 0x1E9D DUP3 PUSH2 0x1F35 JUMP JUMPDEST SWAP2 POP PUSH2 0x1EA8 DUP4 PUSH2 0x1F35 JUMP JUMPDEST SWAP3 POP DUP3 PUSH2 0x1EB8 JUMPI PUSH2 0x1EB7 PUSH2 0x205C JUMP JUMPDEST JUMPDEST DUP3 DUP3 DIV SWAP1 POP SWAP3 SWAP2 POP POP JUMP JUMPDEST PUSH1 0x0 PUSH2 0x1ECE DUP3 PUSH2 0x1F35 JUMP JUMPDEST SWAP2 POP PUSH2 0x1ED9 DUP4 PUSH2 0x1F35 JUMP JUMPDEST SWAP3 POP DUP3 DUP3 LT ISZERO PUSH2 0x1EEC JUMPI PUSH2 0x1EEB PUSH2 0x202D JUMP JUMPDEST JUMPDEST DUP3 DUP3 SUB SWAP1 POP SWAP3 SWAP2 POP POP JUMP JUMPDEST PUSH1 0x0 PUSH2 0x1F02 DUP3 PUSH2 0x1F15 JUMP JUMPDEST SWAP1 POP SWAP2 SWAP1 POP JUMP JUMPDEST PUSH1 0x0 DUP2 ISZERO ISZERO SWAP1 POP SWAP2 SWAP1 POP JUMP JUMPDEST PUSH1 0x0 PUSH20 0xFFFFFFFFFFFFFFFFFFFFFFFFFFFFFFFFFFFFFFFF DUP3 AND SWAP1 POP SWAP2 SWAP1 POP JUMP JUMPDEST PUSH1 0x0 DUP2 SWAP1 POP SWAP2 SWAP1 POP JUMP JUMPDEST DUP3 DUP2 DUP4 CALLDATACOPY PUSH1 0x0 DUP4 DUP4 ADD MSTORE POP POP POP JUMP JUMPDEST PUSH1 0x0 JUMPDEST DUP4 DUP2 LT ISZERO PUSH2 0x1F6C JUMPI DUP1 DUP3 ADD MLOAD DUP2 DUP5 ADD MSTORE PUSH1 0x20 DUP2 ADD SWAP1 POP PUSH2 0x1F51 JUMP JUMPDEST DUP4 DUP2 GT ISZERO PUSH2 0x1F7B JUMPI PUSH1 0x0 DUP5 DUP5 ADD MSTORE JUMPDEST POP POP POP POP JUMP JUMPDEST PUSH1 0x0 PUSH1 0x2 DUP3 DIV SWAP1 POP PUSH1 0x1 DUP3 AND DUP1 PUSH2 0x1F99 JUMPI PUSH1 0x7F DUP3 AND SWAP2 POP JUMPDEST PUSH1 0x20 DUP3 LT DUP2 EQ ISZERO PUSH2 0x1FAD JUMPI PUSH2 0x1FAC PUSH2 0x208B JUMP JUMPDEST JUMPDEST POP SWAP2 SWAP1 POP JUMP JUMPDEST PUSH2 0x1FBC DUP3 PUSH2 0x215B JUMP JUMPDEST DUP2 ADD DUP2 DUP2 LT PUSH8 0xFFFFFFFFFFFFFFFF DUP3 GT OR ISZERO PUSH2 0x1FDB JUMPI PUSH2 0x1FDA PUSH2 0x2118 JUMP JUMPDEST JUMPDEST DUP1 PUSH1 0x40 MSTORE POP POP POP JUMP JUMPDEST PUSH1 0x0 PUSH2 0x1FEF DUP3 PUSH2 0x1F35 JUMP JUMPDEST SWAP2 POP PUSH32 0xFFFFFFFFFFFFFFFFFFFFFFFFFFFFFFFFFFFFFFFFFFFFFFFFFFFFFFFFFFFFFFFF DUP3 EQ ISZERO PUSH2 0x2022 JUMPI PUSH2 0x2021 PUSH2 0x202D JUMP JUMPDEST JUMPDEST PUSH1 0x1 DUP3 ADD SWAP1 POP SWAP2 SWAP1 POP JUMP JUMPDEST PUSH32 0x4E487B7100000000000000000000000000000000000000000000000000000000 PUSH1 0x0 MSTORE PUSH1 0x11 PUSH1 0x4 MSTORE PUSH1 0x24 PUSH1 0x0 REVERT JUMPDEST PUSH32 0x4E487B7100000000000000000000000000000000000000000000000000000000 PUSH1 0x0 MSTORE PUSH1 0x12 PUSH1 0x4 MSTORE PUSH1 0x24 PUSH1 0x0 REVERT JUMPDEST PUSH32 0x4E487B7100000000000000000000000000000000000000000000000000000000 PUSH1 0x0 MSTORE PUSH1 0x22 PUSH1 0x4 MSTORE PUSH1 0x24 PUSH1 0x0 REVERT JUMPDEST PUSH32 0x4E487B7100000000000000000000000000000000000000000000000000000000 PUSH1 0x0 MSTORE PUSH1 0x31 PUSH1 0x4 MSTORE PUSH1 0x24 PUSH1 0x0 REVERT JUMPDEST PUSH32 0x4E487B7100000000000000000000000000000000000000000000000000000000 PUSH1 0x0 MSTORE PUSH1 0x32 PUSH1 0x4 MSTORE PUSH1 0x24 PUSH1 0x0 REVERT JUMPDEST PUSH32 0x4E487B7100000000000000000000000000000000000000000000000000000000 PUSH1 0x0 MSTORE PUSH1 0x41 PUSH1 0x4 MSTORE PUSH1 0x24 PUSH1 0x0 REVERT JUMPDEST PUSH1 0x0 DUP1 REVERT JUMPDEST PUSH1 0x0 DUP1 REVERT JUMPDEST PUSH1 0x0 DUP1 REVERT JUMPDEST PUSH1 0x0 DUP1 REVERT JUMPDEST PUSH1 0x0 PUSH1 0x1F NOT PUSH1 0x1F DUP4 ADD AND SWAP1 POP SWAP2 SWAP1 POP JUMP JUMPDEST PUSH32 0x54686973206163636F756E74206861736E277420707572636861736564207468 PUSH1 0x0 DUP3 ADD MSTORE PUSH32 0x652070726F647563740000000000000000000000000000000000000000000000 PUSH1 0x20 DUP3 ADD MSTORE POP JUMP JUMPDEST PUSH32 0x4661696C656420746F2072657475726E206368616E6765000000000000000000 PUSH1 0x0 DUP3 ADD MSTORE POP JUMP JUMPDEST PUSH32 0x436865636B207468652070726963650000000000000000000000000000000000 PUSH1 0x0 DUP3 ADD MSTORE POP JUMP JUMPDEST PUSH32 0x546865206E616D65206973206475706C69636174656400000000000000000000 PUSH1 0x0 DUP3 ADD MSTORE POP JUMP JUMPDEST PUSH32 0x436865636B20746865206E616D65000000000000000000000000000000000000 PUSH1 0x0 DUP3 ADD MSTORE POP JUMP JUMPDEST PUSH32 0x4661696C656420746F20726566756E6420666565000000000000000000000000 PUSH1 0x0 DUP3 ADD MSTORE POP JUMP JUMPDEST PUSH32 0x4661696C656420746F2070617900000000000000000000000000000000000000 PUSH1 0x0 DUP3 ADD MSTORE POP JUMP JUMPDEST POP JUMP JUMPDEST PUSH32 0x436865636B207468652066656500000000000000000000000000000000000000 PUSH1 0x0 DUP3 ADD MSTORE POP JUMP JUMPDEST PUSH2 0x22E6 DUP2 PUSH2 0x1F35 JUMP JUMPDEST DUP2 EQ PUSH2 0x22F1 JUMPI PUSH1 0x0 DUP1 REVERT JUMPDEST POP JUMP INVALID LOG2 PUSH5 0x6970667358 0x22 SLT KECCAK256 RETURNDATACOPY SWAP3 0xBA 0xCE CALLVALUE 0xEE 0xD3 NUMBER PUSH9 0x3A73550105DD6E72DF LOG0 0xC9 BALANCE 0xA5 MSIZE PUSH12 0x36CBEC08D2AF213864736F6C PUSH4 0x43000807 STOP CALLER "
				},
				"gasEstimates": {
					"creation": {
						"codeDepositCost": "1800400",
						"executionCost": "26164",
						"totalCost": "1826564"
					},
					"external": {
						"addNewBike(string,uint256)": "infinite",
						"buyBike(string)": "infinite",
						"confirmOrRefundPurchase(string)": "infinite",
						"delBike(string)": "infinite",
						"getBikePrice(string)": "infinite",
						"ifTooLate(uint256)": "663",
						"refund(string)": "infinite",
						"searchBike(string)": "infinite",
						"showBalance()": "2510",
						"showBike()": "infinite",
						"zzzcontractKiller()": "29910"
					}
				},
				"methodIdentifiers": {
					"addNewBike(string,uint256)": "8ef39bb6",
					"buyBike(string)": "8fc71381",
					"confirmOrRefundPurchase(string)": "82ea1db8",
					"delBike(string)": "b7731f19",
					"getBikePrice(string)": "d7403aab",
					"ifTooLate(uint256)": "aecd833a",
					"refund(string)": "fe5f2e88",
					"searchBike(string)": "9ade37a0",
					"showBalance()": "81b2d07b",
					"showBike()": "fe4f95df",
					"zzzcontractKiller()": "a1e9ec1d"
				}
			},
			"storageLayout": {
				"storage": [
					{
						"astId": 3,
						"contract": "src/Assignment.sol:BikeData",
						"label": "owner",
						"offset": 0,
						"slot": "0",
						"type": "t_address"
					},
					{
						"astId": 29,
						"contract": "src/Assignment.sol:BikeData",
						"label": "BikeNameArray",
						"offset": 0,
						"slot": "1",
						"type": "t_array(t_string_storage)dyn_storage"
					},
					{
						"astId": 41,
						"contract": "src/Assignment.sol:BikeData",
						"label": "BikeInfo",
						"offset": 0,
						"slot": "2",
						"type": "t_mapping(t_string_memory_ptr,t_struct(BikeStruct)36_storage)"
					},
					{
						"astId": 45,
						"contract": "src/Assignment.sol:BikeData",
						"label": "purchasedTime",
						"offset": 0,
						"slot": "3",
						"type": "t_mapping(t_string_memory_ptr,t_uint256)"
					},
					{
						"astId": 49,
						"contract": "src/Assignment.sol:BikeData",
						"label": "BikeBuyer",
						"offset": 0,
						"slot": "4",
						"type": "t_mapping(t_string_memory_ptr,t_address)"
					}
				],
				"types": {
					"t_address": {
						"encoding": "inplace",
						"label": "address",
						"numberOfBytes": "20"
					},
					"t_array(t_string_storage)dyn_storage": {
						"base": "t_string_storage",
						"encoding": "dynamic_array",
						"label": "string[]",
						"numberOfBytes": "32"
					},
					"t_bytes_storage": {
						"encoding": "bytes",
						"label": "bytes",
						"numberOfBytes": "32"
					},
					"t_mapping(t_string_memory_ptr,t_address)": {
						"encoding": "mapping",
						"key": "t_string_memory_ptr",
						"label": "mapping(string => address)",
						"numberOfBytes": "32",
						"value": "t_address"
					},
					"t_mapping(t_string_memory_ptr,t_struct(BikeStruct)36_storage)": {
						"encoding": "mapping",
						"key": "t_string_memory_ptr",
						"label": "mapping(string => struct BikeData.BikeStruct)",
						"numberOfBytes": "32",
						"value": "t_struct(BikeStruct)36_storage"
					},
					"t_mapping(t_string_memory_ptr,t_uint256)": {
						"encoding": "mapping",
						"key": "t_string_memory_ptr",
						"label": "mapping(string => uint256)",
						"numberOfBytes": "32",
						"value": "t_uint256"
					},
					"t_string_memory_ptr": {
						"encoding": "bytes",
						"label": "string",
						"numberOfBytes": "32"
					},
					"t_string_storage": {
						"encoding": "bytes",
						"label": "string",
						"numberOfBytes": "32"
					},
					"t_struct(BikeStruct)36_storage": {
						"encoding": "inplace",
						"label": "struct BikeData.BikeStruct",
						"members": [
							{
								"astId": 31,
								"contract": "src/Assignment.sol:BikeData",
								"label": "BikePrice",
								"offset": 0,
								"slot": "0",
								"type": "t_uint256"
							},
							{
								"astId": 33,
								"contract": "src/Assignment.sol:BikeData",
								"label": "BikeImage",
								"offset": 0,
								"slot": "1",
								"type": "t_bytes_storage"
							},
							{
								"astId": 35,
								"contract": "src/Assignment.sol:BikeData",
								"label": "BikeSeller",
								"offset": 0,
								"slot": "2",
								"type": "t_address"
							}
						],
						"numberOfBytes": "96"
					},
					"t_uint256": {
						"encoding": "inplace",
						"label": "uint256",
						"numberOfBytes": "32"
					}
				}
			},
			"userdoc": {
				"kind": "user",
				"methods": {},
				"version": 1
			}
		}
	}
}