{
	"data": {
		"bytecode": {
			"linkReferences": {},
			"object": "608060405234801561001057600080fd5b50610d20806100206000396000f3fe608060405234801561001057600080fd5b50600436106100625760003560e01c80638ef39bb6146100675780639cc4021614610083578063b7731f19146100b3578063d7403aab146100cf578063e22fd2b9146100ff578063fe4f95df1461012f575b600080fd5b610081600480360381019061007c91906106b3565b610139565b005b61009d6004803603810190610098919061066a565b61019c565b6040516100aa91906109ca565b60405180910390f35b6100cd60048036038101906100c8919061066a565b6101ca565b005b6100e960048036038101906100e4919061066a565b6102ea565b6040516100f691906109ca565b60405180910390f35b6101196004803603810190610114919061070f565b610312565b6040516101269190610978565b60405180910390f35b6101376103be565b005b600082908060018154018082558091505060019003906000526020600020016000909190919091509080519060200190610174929190610475565b5080600183604051610186919061094a565b9081526020016040518091039020819055505050565b6001818051602081018201805184825260208301602085012081835280955050505050506000915090505481565b60005b6000805490508110156102c4578180519060200120600082815481106101f6576101f5610c50565b5b9060005260206000200160405161020d9190610933565b604051809103902014156102b1576000600160008054905061022f9190610a97565b815481106102405761023f610c50565b5b906000526020600020016000828154811061025e5761025d610c50565b5b9060005260206000200190805461027490610b17565b61027f9291906104fb565b50600080548061029257610291610c21565b5b6001900381819060005260206000200160006102ae9190610588565b90555b80806102bc90610b7a565b9150506101cd565b506001816040516102d5919061094a565b90815260200160405180910390206000905550565b60006001826040516102fc919061094a565b9081526020016040518091039020549050919050565b6000818154811061032257600080fd5b90600052602060002001600091509050805461033d90610b17565b80601f016020809104026020016040519081016040528092919081815260200182805461036990610b17565b80156103b65780601f1061038b576101008083540402835291602001916103b6565b820191906000526020600020905b81548152906001019060200180831161039957829003601f168201915b505050505081565b60005b600080549050811015610472577fab9ab62ebba54f6a606008d7504b49261cbbe3ebc9697543e904ea6aab6b49986000828154811061040357610402610c50565b5b9060005260206000200160016000848154811061042357610422610c50565b5b9060005260206000200160405161043a9190610961565b90815260200160405180910390205460405161045792919061099a565b60405180910390a1808061046a90610b7a565b9150506103c1565b50565b82805461048190610b17565b90600052602060002090601f0160209004810192826104a357600085556104ea565b82601f106104bc57805160ff19168380011785556104ea565b828001600101855582156104ea579182015b828111156104e95782518255916020019190600101906104ce565b5b5090506104f791906105c8565b5090565b82805461050790610b17565b90600052602060002090601f0160209004810192826105295760008555610577565b82601f1061053a5780548555610577565b8280016001018555821561057757600052602060002091601f016020900482015b8281111561057657825482559160010191906001019061055b565b5b50905061058491906105c8565b5090565b50805461059490610b17565b6000825580601f106105a657506105c5565b601f0160209004906000526020600020908101906105c491906105c8565b5b50565b5b808211156105e15760008160009055506001016105c9565b5090565b60006105f86105f384610a0a565b6109e5565b90508281526020810184848401111561061457610613610cb3565b5b61061f848285610ad5565b509392505050565b600082601f83011261063c5761063b610cae565b5b813561064c8482602086016105e5565b91505092915050565b60008135905061066481610cd3565b92915050565b6000602082840312156106805761067f610cbd565b5b600082013567ffffffffffffffff81111561069e5761069d610cb8565b5b6106aa84828501610627565b91505092915050565b600080604083850312156106ca576106c9610cbd565b5b600083013567ffffffffffffffff8111156106e8576106e7610cb8565b5b6106f485828601610627565b925050602061070585828601610655565b9150509250929050565b60006020828403121561072557610724610cbd565b5b600061073384828501610655565b91505092915050565b6000815461074981610b17565b6107538186610a70565b9450600182166000811461076e576001811461077f576107b2565b60ff198316865281860193506107b2565b61078885610a3b565b60005b838110156107aa5781548189015260018201915060208101905061078b565b838801955050505b50505092915050565b60006107c682610a65565b6107d08185610a7b565b93506107e0818560208601610ae4565b6107e981610cc2565b840191505092915050565b60006107ff82610a65565b6108098185610a8c565b9350610819818560208601610ae4565b80840191505092915050565b6000815461083281610b17565b61083c8186610a7b565b9450600182166000811461085757600181146108695761089c565b60ff198316865260208601935061089c565b61087285610a50565b60005b8381101561089457815481890152600182019150602081019050610875565b808801955050505b50505092915050565b600081546108b281610b17565b6108bc8186610a8c565b945060018216600081146108d757600181146108e85761091b565b60ff1983168652818601935061091b565b6108f185610a50565b60005b83811015610913578154818901526001820191506020810190506108f4565b838801955050505b50505092915050565b61092d81610acb565b82525050565b600061093f828461073c565b915081905092915050565b600061095682846107f4565b915081905092915050565b600061096d82846108a5565b915081905092915050565b6000602082019050818103600083015261099281846107bb565b905092915050565b600060408201905081810360008301526109b48185610825565b90506109c36020830184610924565b9392505050565b60006020820190506109df6000830184610924565b92915050565b60006109ef610a00565b90506109fb8282610b49565b919050565b6000604051905090565b600067ffffffffffffffff821115610a2557610a24610c7f565b5b610a2e82610cc2565b9050602081019050919050565b60008190508160005260206000209050919050565b60008190508160005260206000209050919050565b600081519050919050565b600081905092915050565b600082825260208201905092915050565b600081905092915050565b6000610aa282610acb565b9150610aad83610acb565b925082821015610ac057610abf610bc3565b5b828203905092915050565b6000819050919050565b82818337600083830152505050565b60005b83811015610b02578082015181840152602081019050610ae7565b83811115610b11576000848401525b50505050565b60006002820490506001821680610b2f57607f821691505b60208210811415610b4357610b42610bf2565b5b50919050565b610b5282610cc2565b810181811067ffffffffffffffff82111715610b7157610b70610c7f565b5b80604052505050565b6000610b8582610acb565b91507fffffffffffffffffffffffffffffffffffffffffffffffffffffffffffffffff821415610bb857610bb7610bc3565b5b600182019050919050565b7f4e487b7100000000000000000000000000000000000000000000000000000000600052601160045260246000fd5b7f4e487b7100000000000000000000000000000000000000000000000000000000600052602260045260246000fd5b7f4e487b7100000000000000000000000000000000000000000000000000000000600052603160045260246000fd5b7f4e487b7100000000000000000000000000000000000000000000000000000000600052603260045260246000fd5b7f4e487b7100000000000000000000000000000000000000000000000000000000600052604160045260246000fd5b600080fd5b600080fd5b600080fd5b600080fd5b6000601f19601f8301169050919050565b610cdc81610acb565b8114610ce757600080fd5b5056fea2646970667358221220f57fc1b7ce2210eaf88c17b02ca519d49690dc054acd111f69c51ff819214f5164736f6c63430008070033",
			"opcodes": "PUSH1 0x80 PUSH1 0x40 MSTORE CALLVALUE DUP1 ISZERO PUSH2 0x10 JUMPI PUSH1 0x0 DUP1 REVERT JUMPDEST POP PUSH2 0xD20 DUP1 PUSH2 0x20 PUSH1 0x0 CODECOPY PUSH1 0x0 RETURN INVALID PUSH1 0x80 PUSH1 0x40 MSTORE CALLVALUE DUP1 ISZERO PUSH2 0x10 JUMPI PUSH1 0x0 DUP1 REVERT JUMPDEST POP PUSH1 0x4 CALLDATASIZE LT PUSH2 0x62 JUMPI PUSH1 0x0 CALLDATALOAD PUSH1 0xE0 SHR DUP1 PUSH4 0x8EF39BB6 EQ PUSH2 0x67 JUMPI DUP1 PUSH4 0x9CC40216 EQ PUSH2 0x83 JUMPI DUP1 PUSH4 0xB7731F19 EQ PUSH2 0xB3 JUMPI DUP1 PUSH4 0xD7403AAB EQ PUSH2 0xCF JUMPI DUP1 PUSH4 0xE22FD2B9 EQ PUSH2 0xFF JUMPI DUP1 PUSH4 0xFE4F95DF EQ PUSH2 0x12F JUMPI JUMPDEST PUSH1 0x0 DUP1 REVERT JUMPDEST PUSH2 0x81 PUSH1 0x4 DUP1 CALLDATASIZE SUB DUP2 ADD SWAP1 PUSH2 0x7C SWAP2 SWAP1 PUSH2 0x6B3 JUMP JUMPDEST PUSH2 0x139 JUMP JUMPDEST STOP JUMPDEST PUSH2 0x9D PUSH1 0x4 DUP1 CALLDATASIZE SUB DUP2 ADD SWAP1 PUSH2 0x98 SWAP2 SWAP1 PUSH2 0x66A JUMP JUMPDEST PUSH2 0x19C JUMP JUMPDEST PUSH1 0x40 MLOAD PUSH2 0xAA SWAP2 SWAP1 PUSH2 0x9CA JUMP JUMPDEST PUSH1 0x40 MLOAD DUP1 SWAP2 SUB SWAP1 RETURN JUMPDEST PUSH2 0xCD PUSH1 0x4 DUP1 CALLDATASIZE SUB DUP2 ADD SWAP1 PUSH2 0xC8 SWAP2 SWAP1 PUSH2 0x66A JUMP JUMPDEST PUSH2 0x1CA JUMP JUMPDEST STOP JUMPDEST PUSH2 0xE9 PUSH1 0x4 DUP1 CALLDATASIZE SUB DUP2 ADD SWAP1 PUSH2 0xE4 SWAP2 SWAP1 PUSH2 0x66A JUMP JUMPDEST PUSH2 0x2EA JUMP JUMPDEST PUSH1 0x40 MLOAD PUSH2 0xF6 SWAP2 SWAP1 PUSH2 0x9CA JUMP JUMPDEST PUSH1 0x40 MLOAD DUP1 SWAP2 SUB SWAP1 RETURN JUMPDEST PUSH2 0x119 PUSH1 0x4 DUP1 CALLDATASIZE SUB DUP2 ADD SWAP1 PUSH2 0x114 SWAP2 SWAP1 PUSH2 0x70F JUMP JUMPDEST PUSH2 0x312 JUMP JUMPDEST PUSH1 0x40 MLOAD PUSH2 0x126 SWAP2 SWAP1 PUSH2 0x978 JUMP JUMPDEST PUSH1 0x40 MLOAD DUP1 SWAP2 SUB SWAP1 RETURN JUMPDEST PUSH2 0x137 PUSH2 0x3BE JUMP JUMPDEST STOP JUMPDEST PUSH1 0x0 DUP3 SWAP1 DUP1 PUSH1 0x1 DUP2 SLOAD ADD DUP1 DUP3 SSTORE DUP1 SWAP2 POP POP PUSH1 0x1 SWAP1 SUB SWAP1 PUSH1 0x0 MSTORE PUSH1 0x20 PUSH1 0x0 KECCAK256 ADD PUSH1 0x0 SWAP1 SWAP2 SWAP1 SWAP2 SWAP1 SWAP2 POP SWAP1 DUP1 MLOAD SWAP1 PUSH1 0x20 ADD SWAP1 PUSH2 0x174 SWAP3 SWAP2 SWAP1 PUSH2 0x475 JUMP JUMPDEST POP DUP1 PUSH1 0x1 DUP4 PUSH1 0x40 MLOAD PUSH2 0x186 SWAP2 SWAP1 PUSH2 0x94A JUMP JUMPDEST SWAP1 DUP2 MSTORE PUSH1 0x20 ADD PUSH1 0x40 MLOAD DUP1 SWAP2 SUB SWAP1 KECCAK256 DUP2 SWAP1 SSTORE POP POP POP JUMP JUMPDEST PUSH1 0x1 DUP2 DUP1 MLOAD PUSH1 0x20 DUP2 ADD DUP3 ADD DUP1 MLOAD DUP5 DUP3 MSTORE PUSH1 0x20 DUP4 ADD PUSH1 0x20 DUP6 ADD KECCAK256 DUP2 DUP4 MSTORE DUP1 SWAP6 POP POP POP POP POP POP PUSH1 0x0 SWAP2 POP SWAP1 POP SLOAD DUP2 JUMP JUMPDEST PUSH1 0x0 JUMPDEST PUSH1 0x0 DUP1 SLOAD SWAP1 POP DUP2 LT ISZERO PUSH2 0x2C4 JUMPI DUP2 DUP1 MLOAD SWAP1 PUSH1 0x20 ADD KECCAK256 PUSH1 0x0 DUP3 DUP2 SLOAD DUP2 LT PUSH2 0x1F6 JUMPI PUSH2 0x1F5 PUSH2 0xC50 JUMP JUMPDEST JUMPDEST SWAP1 PUSH1 0x0 MSTORE PUSH1 0x20 PUSH1 0x0 KECCAK256 ADD PUSH1 0x40 MLOAD PUSH2 0x20D SWAP2 SWAP1 PUSH2 0x933 JUMP JUMPDEST PUSH1 0x40 MLOAD DUP1 SWAP2 SUB SWAP1 KECCAK256 EQ ISZERO PUSH2 0x2B1 JUMPI PUSH1 0x0 PUSH1 0x1 PUSH1 0x0 DUP1 SLOAD SWAP1 POP PUSH2 0x22F SWAP2 SWAP1 PUSH2 0xA97 JUMP JUMPDEST DUP2 SLOAD DUP2 LT PUSH2 0x240 JUMPI PUSH2 0x23F PUSH2 0xC50 JUMP JUMPDEST JUMPDEST SWAP1 PUSH1 0x0 MSTORE PUSH1 0x20 PUSH1 0x0 KECCAK256 ADD PUSH1 0x0 DUP3 DUP2 SLOAD DUP2 LT PUSH2 0x25E JUMPI PUSH2 0x25D PUSH2 0xC50 JUMP JUMPDEST JUMPDEST SWAP1 PUSH1 0x0 MSTORE PUSH1 0x20 PUSH1 0x0 KECCAK256 ADD SWAP1 DUP1 SLOAD PUSH2 0x274 SWAP1 PUSH2 0xB17 JUMP JUMPDEST PUSH2 0x27F SWAP3 SWAP2 SWAP1 PUSH2 0x4FB JUMP JUMPDEST POP PUSH1 0x0 DUP1 SLOAD DUP1 PUSH2 0x292 JUMPI PUSH2 0x291 PUSH2 0xC21 JUMP JUMPDEST JUMPDEST PUSH1 0x1 SWAP1 SUB DUP2 DUP2 SWAP1 PUSH1 0x0 MSTORE PUSH1 0x20 PUSH1 0x0 KECCAK256 ADD PUSH1 0x0 PUSH2 0x2AE SWAP2 SWAP1 PUSH2 0x588 JUMP JUMPDEST SWAP1 SSTORE JUMPDEST DUP1 DUP1 PUSH2 0x2BC SWAP1 PUSH2 0xB7A JUMP JUMPDEST SWAP2 POP POP PUSH2 0x1CD JUMP JUMPDEST POP PUSH1 0x1 DUP2 PUSH1 0x40 MLOAD PUSH2 0x2D5 SWAP2 SWAP1 PUSH2 0x94A JUMP JUMPDEST SWAP1 DUP2 MSTORE PUSH1 0x20 ADD PUSH1 0x40 MLOAD DUP1 SWAP2 SUB SWAP1 KECCAK256 PUSH1 0x0 SWAP1 SSTORE POP JUMP JUMPDEST PUSH1 0x0 PUSH1 0x1 DUP3 PUSH1 0x40 MLOAD PUSH2 0x2FC SWAP2 SWAP1 PUSH2 0x94A JUMP JUMPDEST SWAP1 DUP2 MSTORE PUSH1 0x20 ADD PUSH1 0x40 MLOAD DUP1 SWAP2 SUB SWAP1 KECCAK256 SLOAD SWAP1 POP SWAP2 SWAP1 POP JUMP JUMPDEST PUSH1 0x0 DUP2 DUP2 SLOAD DUP2 LT PUSH2 0x322 JUMPI PUSH1 0x0 DUP1 REVERT JUMPDEST SWAP1 PUSH1 0x0 MSTORE PUSH1 0x20 PUSH1 0x0 KECCAK256 ADD PUSH1 0x0 SWAP2 POP SWAP1 POP DUP1 SLOAD PUSH2 0x33D SWAP1 PUSH2 0xB17 JUMP JUMPDEST DUP1 PUSH1 0x1F ADD PUSH1 0x20 DUP1 SWAP2 DIV MUL PUSH1 0x20 ADD PUSH1 0x40 MLOAD SWAP1 DUP2 ADD PUSH1 0x40 MSTORE DUP1 SWAP3 SWAP2 SWAP1 DUP2 DUP2 MSTORE PUSH1 0x20 ADD DUP3 DUP1 SLOAD PUSH2 0x369 SWAP1 PUSH2 0xB17 JUMP JUMPDEST DUP1 ISZERO PUSH2 0x3B6 JUMPI DUP1 PUSH1 0x1F LT PUSH2 0x38B JUMPI PUSH2 0x100 DUP1 DUP4 SLOAD DIV MUL DUP4 MSTORE SWAP2 PUSH1 0x20 ADD SWAP2 PUSH2 0x3B6 JUMP JUMPDEST DUP3 ADD SWAP2 SWAP1 PUSH1 0x0 MSTORE PUSH1 0x20 PUSH1 0x0 KECCAK256 SWAP1 JUMPDEST DUP2 SLOAD DUP2 MSTORE SWAP1 PUSH1 0x1 ADD SWAP1 PUSH1 0x20 ADD DUP1 DUP4 GT PUSH2 0x399 JUMPI DUP3 SWAP1 SUB PUSH1 0x1F AND DUP3 ADD SWAP2 JUMPDEST POP POP POP POP POP DUP2 JUMP JUMPDEST PUSH1 0x0 JUMPDEST PUSH1 0x0 DUP1 SLOAD SWAP1 POP DUP2 LT ISZERO PUSH2 0x472 JUMPI PUSH32 0xAB9AB62EBBA54F6A606008D7504B49261CBBE3EBC9697543E904EA6AAB6B4998 PUSH1 0x0 DUP3 DUP2 SLOAD DUP2 LT PUSH2 0x403 JUMPI PUSH2 0x402 PUSH2 0xC50 JUMP JUMPDEST JUMPDEST SWAP1 PUSH1 0x0 MSTORE PUSH1 0x20 PUSH1 0x0 KECCAK256 ADD PUSH1 0x1 PUSH1 0x0 DUP5 DUP2 SLOAD DUP2 LT PUSH2 0x423 JUMPI PUSH2 0x422 PUSH2 0xC50 JUMP JUMPDEST JUMPDEST SWAP1 PUSH1 0x0 MSTORE PUSH1 0x20 PUSH1 0x0 KECCAK256 ADD PUSH1 0x40 MLOAD PUSH2 0x43A SWAP2 SWAP1 PUSH2 0x961 JUMP JUMPDEST SWAP1 DUP2 MSTORE PUSH1 0x20 ADD PUSH1 0x40 MLOAD DUP1 SWAP2 SUB SWAP1 KECCAK256 SLOAD PUSH1 0x40 MLOAD PUSH2 0x457 SWAP3 SWAP2 SWAP1 PUSH2 0x99A JUMP JUMPDEST PUSH1 0x40 MLOAD DUP1 SWAP2 SUB SWAP1 LOG1 DUP1 DUP1 PUSH2 0x46A SWAP1 PUSH2 0xB7A JUMP JUMPDEST SWAP2 POP POP PUSH2 0x3C1 JUMP JUMPDEST POP JUMP JUMPDEST DUP3 DUP1 SLOAD PUSH2 0x481 SWAP1 PUSH2 0xB17 JUMP JUMPDEST SWAP1 PUSH1 0x0 MSTORE PUSH1 0x20 PUSH1 0x0 KECCAK256 SWAP1 PUSH1 0x1F ADD PUSH1 0x20 SWAP1 DIV DUP2 ADD SWAP3 DUP3 PUSH2 0x4A3 JUMPI PUSH1 0x0 DUP6 SSTORE PUSH2 0x4EA JUMP JUMPDEST DUP3 PUSH1 0x1F LT PUSH2 0x4BC JUMPI DUP1 MLOAD PUSH1 0xFF NOT AND DUP4 DUP1 ADD OR DUP6 SSTORE PUSH2 0x4EA JUMP JUMPDEST DUP3 DUP1 ADD PUSH1 0x1 ADD DUP6 SSTORE DUP3 ISZERO PUSH2 0x4EA JUMPI SWAP2 DUP3 ADD JUMPDEST DUP3 DUP2 GT ISZERO PUSH2 0x4E9 JUMPI DUP3 MLOAD DUP3 SSTORE SWAP2 PUSH1 0x20 ADD SWAP2 SWAP1 PUSH1 0x1 ADD SWAP1 PUSH2 0x4CE JUMP JUMPDEST JUMPDEST POP SWAP1 POP PUSH2 0x4F7 SWAP2 SWAP1 PUSH2 0x5C8 JUMP JUMPDEST POP SWAP1 JUMP JUMPDEST DUP3 DUP1 SLOAD PUSH2 0x507 SWAP1 PUSH2 0xB17 JUMP JUMPDEST SWAP1 PUSH1 0x0 MSTORE PUSH1 0x20 PUSH1 0x0 KECCAK256 SWAP1 PUSH1 0x1F ADD PUSH1 0x20 SWAP1 DIV DUP2 ADD SWAP3 DUP3 PUSH2 0x529 JUMPI PUSH1 0x0 DUP6 SSTORE PUSH2 0x577 JUMP JUMPDEST DUP3 PUSH1 0x1F LT PUSH2 0x53A JUMPI DUP1 SLOAD DUP6 SSTORE PUSH2 0x577 JUMP JUMPDEST DUP3 DUP1 ADD PUSH1 0x1 ADD DUP6 SSTORE DUP3 ISZERO PUSH2 0x577 JUMPI PUSH1 0x0 MSTORE PUSH1 0x20 PUSH1 0x0 KECCAK256 SWAP2 PUSH1 0x1F ADD PUSH1 0x20 SWAP1 DIV DUP3 ADD JUMPDEST DUP3 DUP2 GT ISZERO PUSH2 0x576 JUMPI DUP3 SLOAD DUP3 SSTORE SWAP2 PUSH1 0x1 ADD SWAP2 SWAP1 PUSH1 0x1 ADD SWAP1 PUSH2 0x55B JUMP JUMPDEST JUMPDEST POP SWAP1 POP PUSH2 0x584 SWAP2 SWAP1 PUSH2 0x5C8 JUMP JUMPDEST POP SWAP1 JUMP JUMPDEST POP DUP1 SLOAD PUSH2 0x594 SWAP1 PUSH2 0xB17 JUMP JUMPDEST PUSH1 0x0 DUP3 SSTORE DUP1 PUSH1 0x1F LT PUSH2 0x5A6 JUMPI POP PUSH2 0x5C5 JUMP JUMPDEST PUSH1 0x1F ADD PUSH1 0x20 SWAP1 DIV SWAP1 PUSH1 0x0 MSTORE PUSH1 0x20 PUSH1 0x0 KECCAK256 SWAP1 DUP2 ADD SWAP1 PUSH2 0x5C4 SWAP2 SWAP1 PUSH2 0x5C8 JUMP JUMPDEST JUMPDEST POP JUMP JUMPDEST JUMPDEST DUP1 DUP3 GT ISZERO PUSH2 0x5E1 JUMPI PUSH1 0x0 DUP2 PUSH1 0x0 SWAP1 SSTORE POP PUSH1 0x1 ADD PUSH2 0x5C9 JUMP JUMPDEST POP SWAP1 JUMP JUMPDEST PUSH1 0x0 PUSH2 0x5F8 PUSH2 0x5F3 DUP5 PUSH2 0xA0A JUMP JUMPDEST PUSH2 0x9E5 JUMP JUMPDEST SWAP1 POP DUP3 DUP2 MSTORE PUSH1 0x20 DUP2 ADD DUP5 DUP5 DUP5 ADD GT ISZERO PUSH2 0x614 JUMPI PUSH2 0x613 PUSH2 0xCB3 JUMP JUMPDEST JUMPDEST PUSH2 0x61F DUP5 DUP3 DUP6 PUSH2 0xAD5 JUMP JUMPDEST POP SWAP4 SWAP3 POP POP POP JUMP JUMPDEST PUSH1 0x0 DUP3 PUSH1 0x1F DUP4 ADD SLT PUSH2 0x63C JUMPI PUSH2 0x63B PUSH2 0xCAE JUMP JUMPDEST JUMPDEST DUP2 CALLDATALOAD PUSH2 0x64C DUP5 DUP3 PUSH1 0x20 DUP7 ADD PUSH2 0x5E5 JUMP JUMPDEST SWAP2 POP POP SWAP3 SWAP2 POP POP JUMP JUMPDEST PUSH1 0x0 DUP2 CALLDATALOAD SWAP1 POP PUSH2 0x664 DUP2 PUSH2 0xCD3 JUMP JUMPDEST SWAP3 SWAP2 POP POP JUMP JUMPDEST PUSH1 0x0 PUSH1 0x20 DUP3 DUP5 SUB SLT ISZERO PUSH2 0x680 JUMPI PUSH2 0x67F PUSH2 0xCBD JUMP JUMPDEST JUMPDEST PUSH1 0x0 DUP3 ADD CALLDATALOAD PUSH8 0xFFFFFFFFFFFFFFFF DUP2 GT ISZERO PUSH2 0x69E JUMPI PUSH2 0x69D PUSH2 0xCB8 JUMP JUMPDEST JUMPDEST PUSH2 0x6AA DUP5 DUP3 DUP6 ADD PUSH2 0x627 JUMP JUMPDEST SWAP2 POP POP SWAP3 SWAP2 POP POP JUMP JUMPDEST PUSH1 0x0 DUP1 PUSH1 0x40 DUP4 DUP6 SUB SLT ISZERO PUSH2 0x6CA JUMPI PUSH2 0x6C9 PUSH2 0xCBD JUMP JUMPDEST JUMPDEST PUSH1 0x0 DUP4 ADD CALLDATALOAD PUSH8 0xFFFFFFFFFFFFFFFF DUP2 GT ISZERO PUSH2 0x6E8 JUMPI PUSH2 0x6E7 PUSH2 0xCB8 JUMP JUMPDEST JUMPDEST PUSH2 0x6F4 DUP6 DUP3 DUP7 ADD PUSH2 0x627 JUMP JUMPDEST SWAP3 POP POP PUSH1 0x20 PUSH2 0x705 DUP6 DUP3 DUP7 ADD PUSH2 0x655 JUMP JUMPDEST SWAP2 POP POP SWAP3 POP SWAP3 SWAP1 POP JUMP JUMPDEST PUSH1 0x0 PUSH1 0x20 DUP3 DUP5 SUB SLT ISZERO PUSH2 0x725 JUMPI PUSH2 0x724 PUSH2 0xCBD JUMP JUMPDEST JUMPDEST PUSH1 0x0 PUSH2 0x733 DUP5 DUP3 DUP6 ADD PUSH2 0x655 JUMP JUMPDEST SWAP2 POP POP SWAP3 SWAP2 POP POP JUMP JUMPDEST PUSH1 0x0 DUP2 SLOAD PUSH2 0x749 DUP2 PUSH2 0xB17 JUMP JUMPDEST PUSH2 0x753 DUP2 DUP7 PUSH2 0xA70 JUMP JUMPDEST SWAP5 POP PUSH1 0x1 DUP3 AND PUSH1 0x0 DUP2 EQ PUSH2 0x76E JUMPI PUSH1 0x1 DUP2 EQ PUSH2 0x77F JUMPI PUSH2 0x7B2 JUMP JUMPDEST PUSH1 0xFF NOT DUP4 AND DUP7 MSTORE DUP2 DUP7 ADD SWAP4 POP PUSH2 0x7B2 JUMP JUMPDEST PUSH2 0x788 DUP6 PUSH2 0xA3B JUMP JUMPDEST PUSH1 0x0 JUMPDEST DUP4 DUP2 LT ISZERO PUSH2 0x7AA JUMPI DUP2 SLOAD DUP2 DUP10 ADD MSTORE PUSH1 0x1 DUP3 ADD SWAP2 POP PUSH1 0x20 DUP2 ADD SWAP1 POP PUSH2 0x78B JUMP JUMPDEST DUP4 DUP9 ADD SWAP6 POP POP POP JUMPDEST POP POP POP SWAP3 SWAP2 POP POP JUMP JUMPDEST PUSH1 0x0 PUSH2 0x7C6 DUP3 PUSH2 0xA65 JUMP JUMPDEST PUSH2 0x7D0 DUP2 DUP6 PUSH2 0xA7B JUMP JUMPDEST SWAP4 POP PUSH2 0x7E0 DUP2 DUP6 PUSH1 0x20 DUP7 ADD PUSH2 0xAE4 JUMP JUMPDEST PUSH2 0x7E9 DUP2 PUSH2 0xCC2 JUMP JUMPDEST DUP5 ADD SWAP2 POP POP SWAP3 SWAP2 POP POP JUMP JUMPDEST PUSH1 0x0 PUSH2 0x7FF DUP3 PUSH2 0xA65 JUMP JUMPDEST PUSH2 0x809 DUP2 DUP6 PUSH2 0xA8C JUMP JUMPDEST SWAP4 POP PUSH2 0x819 DUP2 DUP6 PUSH1 0x20 DUP7 ADD PUSH2 0xAE4 JUMP JUMPDEST DUP1 DUP5 ADD SWAP2 POP POP SWAP3 SWAP2 POP POP JUMP JUMPDEST PUSH1 0x0 DUP2 SLOAD PUSH2 0x832 DUP2 PUSH2 0xB17 JUMP JUMPDEST PUSH2 0x83C DUP2 DUP7 PUSH2 0xA7B JUMP JUMPDEST SWAP5 POP PUSH1 0x1 DUP3 AND PUSH1 0x0 DUP2 EQ PUSH2 0x857 JUMPI PUSH1 0x1 DUP2 EQ PUSH2 0x869 JUMPI PUSH2 0x89C JUMP JUMPDEST PUSH1 0xFF NOT DUP4 AND DUP7 MSTORE PUSH1 0x20 DUP7 ADD SWAP4 POP PUSH2 0x89C JUMP JUMPDEST PUSH2 0x872 DUP6 PUSH2 0xA50 JUMP JUMPDEST PUSH1 0x0 JUMPDEST DUP4 DUP2 LT ISZERO PUSH2 0x894 JUMPI DUP2 SLOAD DUP2 DUP10 ADD MSTORE PUSH1 0x1 DUP3 ADD SWAP2 POP PUSH1 0x20 DUP2 ADD SWAP1 POP PUSH2 0x875 JUMP JUMPDEST DUP1 DUP9 ADD SWAP6 POP POP POP JUMPDEST POP POP POP SWAP3 SWAP2 POP POP JUMP JUMPDEST PUSH1 0x0 DUP2 SLOAD PUSH2 0x8B2 DUP2 PUSH2 0xB17 JUMP JUMPDEST PUSH2 0x8BC DUP2 DUP7 PUSH2 0xA8C JUMP JUMPDEST SWAP5 POP PUSH1 0x1 DUP3 AND PUSH1 0x0 DUP2 EQ PUSH2 0x8D7 JUMPI PUSH1 0x1 DUP2 EQ PUSH2 0x8E8 JUMPI PUSH2 0x91B JUMP JUMPDEST PUSH1 0xFF NOT DUP4 AND DUP7 MSTORE DUP2 DUP7 ADD SWAP4 POP PUSH2 0x91B JUMP JUMPDEST PUSH2 0x8F1 DUP6 PUSH2 0xA50 JUMP JUMPDEST PUSH1 0x0 JUMPDEST DUP4 DUP2 LT ISZERO PUSH2 0x913 JUMPI DUP2 SLOAD DUP2 DUP10 ADD MSTORE PUSH1 0x1 DUP3 ADD SWAP2 POP PUSH1 0x20 DUP2 ADD SWAP1 POP PUSH2 0x8F4 JUMP JUMPDEST DUP4 DUP9 ADD SWAP6 POP POP POP JUMPDEST POP POP POP SWAP3 SWAP2 POP POP JUMP JUMPDEST PUSH2 0x92D DUP2 PUSH2 0xACB JUMP JUMPDEST DUP3 MSTORE POP POP JUMP JUMPDEST PUSH1 0x0 PUSH2 0x93F DUP3 DUP5 PUSH2 0x73C JUMP JUMPDEST SWAP2 POP DUP2 SWAP1 POP SWAP3 SWAP2 POP POP JUMP JUMPDEST PUSH1 0x0 PUSH2 0x956 DUP3 DUP5 PUSH2 0x7F4 JUMP JUMPDEST SWAP2 POP DUP2 SWAP1 POP SWAP3 SWAP2 POP POP JUMP JUMPDEST PUSH1 0x0 PUSH2 0x96D DUP3 DUP5 PUSH2 0x8A5 JUMP JUMPDEST SWAP2 POP DUP2 SWAP1 POP SWAP3 SWAP2 POP POP JUMP JUMPDEST PUSH1 0x0 PUSH1 0x20 DUP3 ADD SWAP1 POP DUP2 DUP2 SUB PUSH1 0x0 DUP4 ADD MSTORE PUSH2 0x992 DUP2 DUP5 PUSH2 0x7BB JUMP JUMPDEST SWAP1 POP SWAP3 SWAP2 POP POP JUMP JUMPDEST PUSH1 0x0 PUSH1 0x40 DUP3 ADD SWAP1 POP DUP2 DUP2 SUB PUSH1 0x0 DUP4 ADD MSTORE PUSH2 0x9B4 DUP2 DUP6 PUSH2 0x825 JUMP JUMPDEST SWAP1 POP PUSH2 0x9C3 PUSH1 0x20 DUP4 ADD DUP5 PUSH2 0x924 JUMP JUMPDEST SWAP4 SWAP3 POP POP POP JUMP JUMPDEST PUSH1 0x0 PUSH1 0x20 DUP3 ADD SWAP1 POP PUSH2 0x9DF PUSH1 0x0 DUP4 ADD DUP5 PUSH2 0x924 JUMP JUMPDEST SWAP3 SWAP2 POP POP JUMP JUMPDEST PUSH1 0x0 PUSH2 0x9EF PUSH2 0xA00 JUMP JUMPDEST SWAP1 POP PUSH2 0x9FB DUP3 DUP3 PUSH2 0xB49 JUMP JUMPDEST SWAP2 SWAP1 POP JUMP JUMPDEST PUSH1 0x0 PUSH1 0x40 MLOAD SWAP1 POP SWAP1 JUMP JUMPDEST PUSH1 0x0 PUSH8 0xFFFFFFFFFFFFFFFF DUP3 GT ISZERO PUSH2 0xA25 JUMPI PUSH2 0xA24 PUSH2 0xC7F JUMP JUMPDEST JUMPDEST PUSH2 0xA2E DUP3 PUSH2 0xCC2 JUMP JUMPDEST SWAP1 POP PUSH1 0x20 DUP2 ADD SWAP1 POP SWAP2 SWAP1 POP JUMP JUMPDEST PUSH1 0x0 DUP2 SWAP1 POP DUP2 PUSH1 0x0 MSTORE PUSH1 0x20 PUSH1 0x0 KECCAK256 SWAP1 POP SWAP2 SWAP1 POP JUMP JUMPDEST PUSH1 0x0 DUP2 SWAP1 POP DUP2 PUSH1 0x0 MSTORE PUSH1 0x20 PUSH1 0x0 KECCAK256 SWAP1 POP SWAP2 SWAP1 POP JUMP JUMPDEST PUSH1 0x0 DUP2 MLOAD SWAP1 POP SWAP2 SWAP1 POP JUMP JUMPDEST PUSH1 0x0 DUP2 SWAP1 POP SWAP3 SWAP2 POP POP JUMP JUMPDEST PUSH1 0x0 DUP3 DUP3 MSTORE PUSH1 0x20 DUP3 ADD SWAP1 POP SWAP3 SWAP2 POP POP JUMP JUMPDEST PUSH1 0x0 DUP2 SWAP1 POP SWAP3 SWAP2 POP POP JUMP JUMPDEST PUSH1 0x0 PUSH2 0xAA2 DUP3 PUSH2 0xACB JUMP JUMPDEST SWAP2 POP PUSH2 0xAAD DUP4 PUSH2 0xACB JUMP JUMPDEST SWAP3 POP DUP3 DUP3 LT ISZERO PUSH2 0xAC0 JUMPI PUSH2 0xABF PUSH2 0xBC3 JUMP JUMPDEST JUMPDEST DUP3 DUP3 SUB SWAP1 POP SWAP3 SWAP2 POP POP JUMP JUMPDEST PUSH1 0x0 DUP2 SWAP1 POP SWAP2 SWAP1 POP JUMP JUMPDEST DUP3 DUP2 DUP4 CALLDATACOPY PUSH1 0x0 DUP4 DUP4 ADD MSTORE POP POP POP JUMP JUMPDEST PUSH1 0x0 JUMPDEST DUP4 DUP2 LT ISZERO PUSH2 0xB02 JUMPI DUP1 DUP3 ADD MLOAD DUP2 DUP5 ADD MSTORE PUSH1 0x20 DUP2 ADD SWAP1 POP PUSH2 0xAE7 JUMP JUMPDEST DUP4 DUP2 GT ISZERO PUSH2 0xB11 JUMPI PUSH1 0x0 DUP5 DUP5 ADD MSTORE JUMPDEST POP POP POP POP JUMP JUMPDEST PUSH1 0x0 PUSH1 0x2 DUP3 DIV SWAP1 POP PUSH1 0x1 DUP3 AND DUP1 PUSH2 0xB2F JUMPI PUSH1 0x7F DUP3 AND SWAP2 POP JUMPDEST PUSH1 0x20 DUP3 LT DUP2 EQ ISZERO PUSH2 0xB43 JUMPI PUSH2 0xB42 PUSH2 0xBF2 JUMP JUMPDEST JUMPDEST POP SWAP2 SWAP1 POP JUMP JUMPDEST PUSH2 0xB52 DUP3 PUSH2 0xCC2 JUMP JUMPDEST DUP2 ADD DUP2 DUP2 LT PUSH8 0xFFFFFFFFFFFFFFFF DUP3 GT OR ISZERO PUSH2 0xB71 JUMPI PUSH2 0xB70 PUSH2 0xC7F JUMP JUMPDEST JUMPDEST DUP1 PUSH1 0x40 MSTORE POP POP POP JUMP JUMPDEST PUSH1 0x0 PUSH2 0xB85 DUP3 PUSH2 0xACB JUMP JUMPDEST SWAP2 POP PUSH32 0xFFFFFFFFFFFFFFFFFFFFFFFFFFFFFFFFFFFFFFFFFFFFFFFFFFFFFFFFFFFFFFFF DUP3 EQ ISZERO PUSH2 0xBB8 JUMPI PUSH2 0xBB7 PUSH2 0xBC3 JUMP JUMPDEST JUMPDEST PUSH1 0x1 DUP3 ADD SWAP1 POP SWAP2 SWAP1 POP JUMP JUMPDEST PUSH32 0x4E487B7100000000000000000000000000000000000000000000000000000000 PUSH1 0x0 MSTORE PUSH1 0x11 PUSH1 0x4 MSTORE PUSH1 0x24 PUSH1 0x0 REVERT JUMPDEST PUSH32 0x4E487B7100000000000000000000000000000000000000000000000000000000 PUSH1 0x0 MSTORE PUSH1 0x22 PUSH1 0x4 MSTORE PUSH1 0x24 PUSH1 0x0 REVERT JUMPDEST PUSH32 0x4E487B7100000000000000000000000000000000000000000000000000000000 PUSH1 0x0 MSTORE PUSH1 0x31 PUSH1 0x4 MSTORE PUSH1 0x24 PUSH1 0x0 REVERT JUMPDEST PUSH32 0x4E487B7100000000000000000000000000000000000000000000000000000000 PUSH1 0x0 MSTORE PUSH1 0x32 PUSH1 0x4 MSTORE PUSH1 0x24 PUSH1 0x0 REVERT JUMPDEST PUSH32 0x4E487B7100000000000000000000000000000000000000000000000000000000 PUSH1 0x0 MSTORE PUSH1 0x41 PUSH1 0x4 MSTORE PUSH1 0x24 PUSH1 0x0 REVERT JUMPDEST PUSH1 0x0 DUP1 REVERT JUMPDEST PUSH1 0x0 DUP1 REVERT JUMPDEST PUSH1 0x0 DUP1 REVERT JUMPDEST PUSH1 0x0 DUP1 REVERT JUMPDEST PUSH1 0x0 PUSH1 0x1F NOT PUSH1 0x1F DUP4 ADD AND SWAP1 POP SWAP2 SWAP1 POP JUMP JUMPDEST PUSH2 0xCDC DUP2 PUSH2 0xACB JUMP JUMPDEST DUP2 EQ PUSH2 0xCE7 JUMPI PUSH1 0x0 DUP1 REVERT JUMPDEST POP JUMP INVALID LOG2 PUSH5 0x6970667358 0x22 SLT KECCAK256 CREATE2 PUSH32 0xC1B7CE2210EAF88C17B02CA519D49690DC054ACD111F69C51FF819214F516473 PUSH16 0x6C634300080700330000000000000000 "
		},
		"gasEstimates": {
			"creation": {
				"codeDepositCost": "672000",
				"executionCost": "702",
				"totalCost": "672702"
			},
			"external": {
				"BikeInfo(string)": "infinite",
				"BikeNameArray(uint256)": "infinite",
				"addNewBike(string,uint256)": "infinite",
				"delBike(string)": "infinite",
				"getBikePrice(string)": "infinite",
				"showBike()": "infinite"
			}
		},
		"methodIdentifiers": {
			"BikeInfo(string)": "9cc40216",
			"BikeNameArray(uint256)": "e22fd2b9",
			"addNewBike(string,uint256)": "8ef39bb6",
			"delBike(string)": "b7731f19",
			"getBikePrice(string)": "d7403aab",
			"showBike()": "fe4f95df"
		}
	},
	"abi": [
		{
			"anonymous": false,
			"inputs": [
				{
					"indexed": false,
					"internalType": "string",
					"name": "name_of_bike",
					"type": "string"
				},
				{
					"indexed": false,
					"internalType": "uint256",
					"name": "price_of_bike",
					"type": "uint256"
				}
			],
			"name": "ShowBikeInfo",
			"type": "event"
		},
		{
			"inputs": [
				{
					"internalType": "string",
					"name": "",
					"type": "string"
				}
			],
			"name": "BikeInfo",
			"outputs": [
				{
					"internalType": "uint256",
					"name": "",
					"type": "uint256"
				}
			],
			"stateMutability": "view",
			"type": "function"
		},
		{
			"inputs": [
				{
					"internalType": "uint256",
					"name": "",
					"type": "uint256"
				}
			],
			"name": "BikeNameArray",
			"outputs": [
				{
					"internalType": "string",
					"name": "",
					"type": "string"
				}
			],
			"stateMutability": "view",
			"type": "function"
		},
		{
			"inputs": [
				{
					"internalType": "string",
					"name": "_BikeName",
					"type": "string"
				},
				{
					"internalType": "uint256",
					"name": "_price",
					"type": "uint256"
				}
			],
			"name": "addNewBike",
			"outputs": [],
			"stateMutability": "nonpayable",
			"type": "function"
		},
		{
			"inputs": [
				{
					"internalType": "string",
					"name": "_BikeName",
					"type": "string"
				}
			],
			"name": "delBike",
			"outputs": [],
			"stateMutability": "nonpayable",
			"type": "function"
		},
		{
			"inputs": [
				{
					"internalType": "string",
					"name": "_BikeName",
					"type": "string"
				}
			],
			"name": "getBikePrice",
			"outputs": [
				{
					"internalType": "uint256",
					"name": "",
					"type": "uint256"
				}
			],
			"stateMutability": "view",
			"type": "function"
		},
		{
			"inputs": [],
			"name": "showBike",
			"outputs": [],
			"stateMutability": "nonpayable",
			"type": "function"
		}
	]
}